{
  "_format": "hh-sol-artifact-1",
  "contractName": "Pool",
  "sourceName": "contracts/protocol/pool/Pool.sol",
  "abi": [
    {
      "inputs": [
        {
          "internalType": "contract IPoolAddressesProvider",
          "name": "provider",
          "type": "address"
        }
      ],
      "stateMutability": "nonpayable",
      "type": "constructor"
    },
    {
      "anonymous": false,
      "inputs": [
        {
          "indexed": true,
          "internalType": "address",
          "name": "reserve",
          "type": "address"
        },
        {
          "indexed": true,
          "internalType": "address",
          "name": "backer",
          "type": "address"
        },
        {
          "indexed": false,
          "internalType": "uint256",
          "name": "amount",
          "type": "uint256"
        },
        {
          "indexed": false,
          "internalType": "uint256",
          "name": "fee",
          "type": "uint256"
        }
      ],
      "name": "BackUnbacked",
      "type": "event"
    },
    {
      "anonymous": false,
      "inputs": [
        {
          "indexed": true,
          "internalType": "address",
          "name": "reserve",
          "type": "address"
        },
        {
          "indexed": false,
          "internalType": "address",
          "name": "user",
          "type": "address"
        },
        {
          "indexed": true,
          "internalType": "address",
          "name": "onBehalfOf",
          "type": "address"
        },
        {
          "indexed": false,
          "internalType": "uint256",
          "name": "amount",
          "type": "uint256"
        },
        {
          "indexed": false,
          "internalType": "enum DataTypes.InterestRateMode",
          "name": "interestRateMode",
          "type": "uint8"
        },
        {
          "indexed": false,
          "internalType": "uint256",
          "name": "borrowRate",
          "type": "uint256"
        },
        {
          "indexed": true,
          "internalType": "uint16",
          "name": "referralCode",
          "type": "uint16"
        }
      ],
      "name": "Borrow",
      "type": "event"
    },
    {
      "anonymous": false,
      "inputs": [
        {
          "indexed": true,
          "internalType": "address",
          "name": "asset",
          "type": "address"
        },
        {
          "indexed": false,
          "internalType": "uint256",
          "name": "totalDebt",
          "type": "uint256"
        }
      ],
      "name": "IsolationModeTotalDebtUpdated",
      "type": "event"
    },
    {
      "anonymous": false,
      "inputs": [
        {
          "indexed": true,
          "internalType": "address",
          "name": "collateralAsset",
          "type": "address"
        },
        {
          "indexed": true,
          "internalType": "address",
          "name": "debtAsset",
          "type": "address"
        },
        {
          "indexed": true,
          "internalType": "address",
          "name": "user",
          "type": "address"
        },
        {
          "indexed": false,
          "internalType": "uint256",
          "name": "debtToCover",
          "type": "uint256"
        },
        {
          "indexed": false,
          "internalType": "uint256",
          "name": "liquidatedCollateralAmount",
          "type": "uint256"
        },
        {
          "indexed": false,
          "internalType": "address",
          "name": "liquidator",
          "type": "address"
        },
        {
          "indexed": false,
          "internalType": "bool",
          "name": "receiveAToken",
          "type": "bool"
        }
      ],
      "name": "LiquidationCall",
      "type": "event"
    },
    {
      "anonymous": false,
      "inputs": [
        {
          "indexed": true,
          "internalType": "address",
          "name": "reserve",
          "type": "address"
        },
        {
          "indexed": false,
          "internalType": "address",
          "name": "user",
          "type": "address"
        },
        {
          "indexed": true,
          "internalType": "address",
          "name": "onBehalfOf",
          "type": "address"
        },
        {
          "indexed": false,
          "internalType": "uint256",
          "name": "amount",
          "type": "uint256"
        },
        {
          "indexed": true,
          "internalType": "uint16",
          "name": "referralCode",
          "type": "uint16"
        }
      ],
      "name": "MintUnbacked",
      "type": "event"
    },
    {
      "anonymous": false,
      "inputs": [
        {
          "indexed": true,
          "internalType": "address",
          "name": "reserve",
          "type": "address"
        },
        {
          "indexed": false,
          "internalType": "uint256",
          "name": "amountMinted",
          "type": "uint256"
        }
      ],
      "name": "MintedToTreasury",
      "type": "event"
    },
    {
      "anonymous": false,
      "inputs": [
        {
          "indexed": true,
          "internalType": "address",
          "name": "reserve",
          "type": "address"
        },
        {
          "indexed": true,
          "internalType": "address",
          "name": "user",
          "type": "address"
        }
      ],
      "name": "RebalanceStableBorrowRate",
      "type": "event"
    },
    {
      "anonymous": false,
      "inputs": [
        {
          "indexed": true,
          "internalType": "address",
          "name": "reserve",
          "type": "address"
        },
        {
          "indexed": true,
          "internalType": "address",
          "name": "user",
          "type": "address"
        },
        {
          "indexed": true,
          "internalType": "address",
          "name": "repayer",
          "type": "address"
        },
        {
          "indexed": false,
          "internalType": "uint256",
          "name": "amount",
          "type": "uint256"
        },
        {
          "indexed": false,
          "internalType": "bool",
          "name": "useATokens",
          "type": "bool"
        }
      ],
      "name": "Repay",
      "type": "event"
    },
    {
      "anonymous": false,
      "inputs": [
        {
          "indexed": true,
          "internalType": "address",
          "name": "reserve",
          "type": "address"
        },
        {
          "indexed": false,
          "internalType": "uint256",
          "name": "liquidityRate",
          "type": "uint256"
        },
        {
          "indexed": false,
          "internalType": "uint256",
          "name": "stableBorrowRate",
          "type": "uint256"
        },
        {
          "indexed": false,
          "internalType": "uint256",
          "name": "variableBorrowRate",
          "type": "uint256"
        },
        {
          "indexed": false,
          "internalType": "uint256",
          "name": "liquidityIndex",
          "type": "uint256"
        },
        {
          "indexed": false,
          "internalType": "uint256",
          "name": "variableBorrowIndex",
          "type": "uint256"
        }
      ],
      "name": "ReserveDataUpdated",
      "type": "event"
    },
    {
      "anonymous": false,
      "inputs": [
        {
          "indexed": true,
          "internalType": "address",
          "name": "reserve",
          "type": "address"
        },
        {
          "indexed": true,
          "internalType": "address",
          "name": "user",
          "type": "address"
        }
      ],
      "name": "ReserveUsedAsCollateralDisabled",
      "type": "event"
    },
    {
      "anonymous": false,
      "inputs": [
        {
          "indexed": true,
          "internalType": "address",
          "name": "reserve",
          "type": "address"
        },
        {
          "indexed": true,
          "internalType": "address",
          "name": "user",
          "type": "address"
        }
      ],
      "name": "ReserveUsedAsCollateralEnabled",
      "type": "event"
    },
    {
      "anonymous": false,
      "inputs": [
        {
          "indexed": true,
          "internalType": "address",
          "name": "reserve",
          "type": "address"
        },
        {
          "indexed": false,
          "internalType": "address",
          "name": "user",
          "type": "address"
        },
        {
          "indexed": true,
          "internalType": "address",
          "name": "onBehalfOf",
          "type": "address"
        },
        {
          "indexed": false,
          "internalType": "uint256",
          "name": "amount",
          "type": "uint256"
        },
        {
          "indexed": true,
          "internalType": "uint16",
          "name": "referralCode",
          "type": "uint16"
        }
      ],
      "name": "Supply",
      "type": "event"
    },
    {
      "anonymous": false,
      "inputs": [
        {
          "indexed": true,
          "internalType": "address",
          "name": "reserve",
          "type": "address"
        },
        {
          "indexed": true,
          "internalType": "address",
          "name": "user",
          "type": "address"
        },
        {
          "indexed": false,
          "internalType": "enum DataTypes.InterestRateMode",
          "name": "interestRateMode",
          "type": "uint8"
        }
      ],
      "name": "SwapBorrowRateMode",
      "type": "event"
    },
    {
      "anonymous": false,
      "inputs": [
        {
          "indexed": true,
          "internalType": "address",
          "name": "user",
          "type": "address"
        },
        {
          "indexed": false,
          "internalType": "uint8",
          "name": "categoryId",
          "type": "uint8"
        }
      ],
      "name": "UserEModeSet",
      "type": "event"
    },
    {
      "anonymous": false,
      "inputs": [
        {
          "indexed": true,
          "internalType": "address",
          "name": "reserve",
          "type": "address"
        },
        {
          "indexed": true,
          "internalType": "address",
          "name": "user",
          "type": "address"
        },
        {
          "indexed": true,
          "internalType": "address",
          "name": "to",
          "type": "address"
        },
        {
          "indexed": false,
          "internalType": "uint256",
          "name": "amount",
          "type": "uint256"
        }
      ],
      "name": "Withdraw",
      "type": "event"
    },
    {
      "inputs": [],
      "name": "ADDRESSES_PROVIDER",
      "outputs": [
        {
          "internalType": "contract IPoolAddressesProvider",
          "name": "",
          "type": "address"
        }
      ],
      "stateMutability": "view",
      "type": "function"
    },
    {
      "inputs": [],
      "name": "BRIDGE_PROTOCOL_FEE",
      "outputs": [
        {
          "internalType": "uint256",
          "name": "",
          "type": "uint256"
        }
      ],
      "stateMutability": "view",
      "type": "function"
    },
    {
      "inputs": [],
      "name": "MAX_NUMBER_RESERVES",
      "outputs": [
        {
          "internalType": "uint16",
          "name": "",
          "type": "uint16"
        }
      ],
      "stateMutability": "view",
      "type": "function"
    },
    {
      "inputs": [],
      "name": "MAX_STABLE_RATE_BORROW_SIZE_PERCENT",
      "outputs": [
        {
          "internalType": "uint256",
          "name": "",
          "type": "uint256"
        }
      ],
      "stateMutability": "view",
      "type": "function"
    },
    {
      "inputs": [],
      "name": "POOL_REVISION",
      "outputs": [
        {
          "internalType": "uint256",
          "name": "",
          "type": "uint256"
        }
      ],
      "stateMutability": "view",
      "type": "function"
    },
    {
      "inputs": [
        {
          "internalType": "address",
          "name": "asset",
          "type": "address"
        },
        {
          "internalType": "uint256",
          "name": "amount",
          "type": "uint256"
        },
        {
          "internalType": "uint256",
          "name": "fee",
          "type": "uint256"
        }
      ],
      "name": "backUnbacked",
      "outputs": [
        {
          "internalType": "uint256",
          "name": "",
          "type": "uint256"
        }
      ],
      "stateMutability": "nonpayable",
      "type": "function"
    },
    {
      "inputs": [
        {
          "internalType": "address",
          "name": "asset",
          "type": "address"
        },
        {
          "internalType": "uint256",
          "name": "amount",
          "type": "uint256"
        },
        {
          "internalType": "uint256",
          "name": "interestRateMode",
          "type": "uint256"
        },
        {
          "internalType": "uint16",
          "name": "referralCode",
          "type": "uint16"
        },
        {
          "internalType": "address",
          "name": "onBehalfOf",
          "type": "address"
        }
      ],
      "name": "borrow",
      "outputs": [],
      "stateMutability": "nonpayable",
      "type": "function"
    },
    {
      "inputs": [
        {
          "internalType": "uint8",
          "name": "id",
          "type": "uint8"
        },
        {
          "components": [
            {
              "internalType": "uint16",
              "name": "ltv",
              "type": "uint16"
            },
            {
              "internalType": "uint16",
              "name": "liquidationThreshold",
              "type": "uint16"
            },
            {
              "internalType": "uint16",
              "name": "liquidationBonus",
              "type": "uint16"
            },
            {
              "internalType": "address",
              "name": "priceSource",
              "type": "address"
            },
            {
              "internalType": "string",
              "name": "label",
              "type": "string"
            }
          ],
          "internalType": "struct DataTypes.EModeCategory",
          "name": "category",
          "type": "tuple"
        }
      ],
      "name": "configureEModeCategory",
      "outputs": [],
      "stateMutability": "nonpayable",
      "type": "function"
    },
    {
      "inputs": [
        {
          "internalType": "address",
          "name": "asset",
          "type": "address"
        },
        {
          "internalType": "uint256",
          "name": "amount",
          "type": "uint256"
        },
        {
          "internalType": "address",
          "name": "onBehalfOf",
          "type": "address"
        },
        {
          "internalType": "uint16",
          "name": "referralCode",
          "type": "uint16"
        }
      ],
      "name": "deposit",
      "outputs": [],
      "stateMutability": "nonpayable",
      "type": "function"
    },
    {
      "inputs": [
        {
          "internalType": "address",
          "name": "asset",
          "type": "address"
        }
      ],
      "name": "dropReserve",
      "outputs": [],
      "stateMutability": "nonpayable",
      "type": "function"
    },
    {
      "inputs": [
        {
          "internalType": "address",
          "name": "asset",
          "type": "address"
        },
        {
          "internalType": "address",
          "name": "from",
          "type": "address"
        },
        {
          "internalType": "address",
          "name": "to",
          "type": "address"
        },
        {
          "internalType": "uint256",
          "name": "amount",
          "type": "uint256"
        },
        {
          "internalType": "uint256",
          "name": "balanceFromBefore",
          "type": "uint256"
        },
        {
          "internalType": "uint256",
          "name": "balanceToBefore",
          "type": "uint256"
        }
      ],
      "name": "finalizeTransfer",
      "outputs": [],
      "stateMutability": "nonpayable",
      "type": "function"
    },
    {
      "inputs": [
        {
          "internalType": "address",
          "name": "asset",
          "type": "address"
        }
      ],
      "name": "getConfiguration",
      "outputs": [
        {
          "components": [
            {
              "internalType": "uint256",
              "name": "data",
              "type": "uint256"
            }
          ],
          "internalType": "struct DataTypes.ReserveConfigurationMap",
          "name": "",
          "type": "tuple"
        }
      ],
      "stateMutability": "view",
      "type": "function"
    },
    {
      "inputs": [
        {
          "internalType": "uint8",
          "name": "id",
          "type": "uint8"
        }
      ],
      "name": "getEModeCategoryData",
      "outputs": [
        {
          "components": [
            {
              "internalType": "uint16",
              "name": "ltv",
              "type": "uint16"
            },
            {
              "internalType": "uint16",
              "name": "liquidationThreshold",
              "type": "uint16"
            },
            {
              "internalType": "uint16",
              "name": "liquidationBonus",
              "type": "uint16"
            },
            {
              "internalType": "address",
              "name": "priceSource",
              "type": "address"
            },
            {
              "internalType": "string",
              "name": "label",
              "type": "string"
            }
          ],
          "internalType": "struct DataTypes.EModeCategory",
          "name": "",
          "type": "tuple"
        }
      ],
      "stateMutability": "view",
      "type": "function"
    },
    {
      "inputs": [
        {
          "internalType": "uint16",
          "name": "id",
          "type": "uint16"
        }
      ],
      "name": "getReserveAddressById",
      "outputs": [
        {
          "internalType": "address",
          "name": "",
          "type": "address"
        }
      ],
      "stateMutability": "view",
      "type": "function"
    },
    {
      "inputs": [
        {
          "internalType": "address",
          "name": "asset",
          "type": "address"
        }
      ],
      "name": "getReserveData",
      "outputs": [
        {
          "components": [
            {
              "components": [
                {
                  "internalType": "uint256",
                  "name": "data",
                  "type": "uint256"
                }
              ],
              "internalType": "struct DataTypes.ReserveConfigurationMap",
              "name": "configuration",
              "type": "tuple"
            },
            {
              "internalType": "uint128",
              "name": "liquidityIndex",
              "type": "uint128"
            },
            {
              "internalType": "uint128",
              "name": "currentLiquidityRate",
              "type": "uint128"
            },
            {
              "internalType": "uint128",
              "name": "variableBorrowIndex",
              "type": "uint128"
            },
            {
              "internalType": "uint128",
              "name": "currentVariableBorrowRate",
              "type": "uint128"
            },
            {
              "internalType": "uint128",
              "name": "currentStableBorrowRate",
              "type": "uint128"
            },
            {
              "internalType": "uint40",
              "name": "lastUpdateTimestamp",
              "type": "uint40"
            },
            {
              "internalType": "uint16",
              "name": "id",
              "type": "uint16"
            },
            {
              "internalType": "address",
              "name": "aTokenAddress",
              "type": "address"
            },
            {
              "internalType": "address",
              "name": "stableDebtTokenAddress",
              "type": "address"
            },
            {
              "internalType": "address",
              "name": "variableDebtTokenAddress",
              "type": "address"
            },
            {
              "internalType": "address",
              "name": "interestRateStrategyAddress",
              "type": "address"
            },
            {
              "internalType": "uint128",
              "name": "accruedToTreasury",
              "type": "uint128"
            },
            {
              "internalType": "uint128",
              "name": "unbacked",
              "type": "uint128"
            },
            {
              "internalType": "uint128",
              "name": "isolationModeTotalDebt",
              "type": "uint128"
            }
          ],
          "internalType": "struct DataTypes.ReserveData",
          "name": "",
          "type": "tuple"
        }
      ],
      "stateMutability": "view",
      "type": "function"
    },
    {
      "inputs": [
        {
          "internalType": "address",
          "name": "asset",
          "type": "address"
        }
      ],
      "name": "getReserveNormalizedIncome",
      "outputs": [
        {
          "internalType": "uint256",
          "name": "",
          "type": "uint256"
        }
      ],
      "stateMutability": "view",
      "type": "function"
    },
    {
      "inputs": [
        {
          "internalType": "address",
          "name": "asset",
          "type": "address"
        }
      ],
      "name": "getReserveNormalizedVariableDebt",
      "outputs": [
        {
          "internalType": "uint256",
          "name": "",
          "type": "uint256"
        }
      ],
      "stateMutability": "view",
      "type": "function"
    },
    {
      "inputs": [],
      "name": "getReservesList",
      "outputs": [
        {
          "internalType": "address[]",
          "name": "",
          "type": "address[]"
        }
      ],
      "stateMutability": "view",
      "type": "function"
    },
    {
      "inputs": [
        {
          "internalType": "address",
          "name": "user",
          "type": "address"
        }
      ],
      "name": "getUserAccountData",
      "outputs": [
        {
          "internalType": "uint256",
          "name": "totalCollateralBase",
          "type": "uint256"
        },
        {
          "internalType": "uint256",
          "name": "totalDebtBase",
          "type": "uint256"
        },
        {
          "internalType": "uint256",
          "name": "availableBorrowsBase",
          "type": "uint256"
        },
        {
          "internalType": "uint256",
          "name": "currentLiquidationThreshold",
          "type": "uint256"
        },
        {
          "internalType": "uint256",
          "name": "ltv",
          "type": "uint256"
        },
        {
          "internalType": "uint256",
          "name": "healthFactor",
          "type": "uint256"
        }
      ],
      "stateMutability": "view",
      "type": "function"
    },
    {
      "inputs": [
        {
          "internalType": "address",
          "name": "user",
          "type": "address"
        }
      ],
      "name": "getUserConfiguration",
      "outputs": [
        {
          "components": [
            {
              "internalType": "uint256",
              "name": "data",
              "type": "uint256"
            }
          ],
          "internalType": "struct DataTypes.UserConfigurationMap",
          "name": "",
          "type": "tuple"
        }
      ],
      "stateMutability": "view",
      "type": "function"
    },
    {
      "inputs": [
        {
          "internalType": "address",
          "name": "user",
          "type": "address"
        }
      ],
      "name": "getUserEMode",
      "outputs": [
        {
          "internalType": "uint256",
          "name": "",
          "type": "uint256"
        }
      ],
      "stateMutability": "view",
      "type": "function"
    },
    {
      "inputs": [
        {
          "internalType": "address",
          "name": "asset",
          "type": "address"
        },
        {
          "internalType": "address",
          "name": "aTokenAddress",
          "type": "address"
        },
        {
          "internalType": "address",
          "name": "stableDebtAddress",
          "type": "address"
        },
        {
          "internalType": "address",
          "name": "variableDebtAddress",
          "type": "address"
        },
        {
          "internalType": "address",
          "name": "interestRateStrategyAddress",
          "type": "address"
        }
      ],
      "name": "initReserve",
      "outputs": [],
      "stateMutability": "nonpayable",
      "type": "function"
    },
    {
      "inputs": [
        {
          "internalType": "contract IPoolAddressesProvider",
          "name": "provider",
          "type": "address"
        }
      ],
      "name": "initialize",
      "outputs": [],
      "stateMutability": "nonpayable",
      "type": "function"
    },
    {
      "inputs": [
        {
          "internalType": "address",
          "name": "collateralAsset",
          "type": "address"
        },
        {
          "internalType": "address",
          "name": "debtAsset",
          "type": "address"
        },
        {
          "internalType": "address",
          "name": "user",
          "type": "address"
        },
        {
          "internalType": "uint256",
          "name": "debtToCover",
          "type": "uint256"
        },
        {
          "internalType": "bool",
          "name": "receiveAToken",
          "type": "bool"
        }
      ],
      "name": "liquidationCall",
      "outputs": [],
      "stateMutability": "nonpayable",
      "type": "function"
    },
    {
      "inputs": [
        {
          "internalType": "address[]",
          "name": "assets",
          "type": "address[]"
        }
      ],
      "name": "mintToTreasury",
      "outputs": [],
      "stateMutability": "nonpayable",
      "type": "function"
    },
    {
      "inputs": [
        {
          "internalType": "address",
          "name": "asset",
          "type": "address"
        },
        {
          "internalType": "uint256",
          "name": "amount",
          "type": "uint256"
        },
        {
          "internalType": "address",
          "name": "onBehalfOf",
          "type": "address"
        },
        {
          "internalType": "uint16",
          "name": "referralCode",
          "type": "uint16"
        }
      ],
      "name": "mintUnbacked",
      "outputs": [],
      "stateMutability": "nonpayable",
      "type": "function"
    },
    {
      "inputs": [
        {
          "internalType": "address",
          "name": "asset",
          "type": "address"
        },
        {
          "internalType": "address",
          "name": "user",
          "type": "address"
        }
      ],
      "name": "rebalanceStableBorrowRate",
      "outputs": [],
      "stateMutability": "nonpayable",
      "type": "function"
    },
    {
      "inputs": [
        {
          "internalType": "address",
          "name": "asset",
          "type": "address"
        },
        {
          "internalType": "uint256",
          "name": "amount",
          "type": "uint256"
        },
        {
          "internalType": "uint256",
          "name": "interestRateMode",
          "type": "uint256"
        },
        {
          "internalType": "address",
          "name": "onBehalfOf",
          "type": "address"
        }
      ],
      "name": "repay",
      "outputs": [
        {
          "internalType": "uint256",
          "name": "",
          "type": "uint256"
        }
      ],
      "stateMutability": "nonpayable",
      "type": "function"
    },
    {
      "inputs": [
        {
          "internalType": "address",
          "name": "asset",
          "type": "address"
        },
        {
          "internalType": "uint256",
          "name": "amount",
          "type": "uint256"
        },
        {
          "internalType": "uint256",
          "name": "interestRateMode",
          "type": "uint256"
        }
      ],
      "name": "repayWithATokens",
      "outputs": [
        {
          "internalType": "uint256",
          "name": "",
          "type": "uint256"
        }
      ],
      "stateMutability": "nonpayable",
      "type": "function"
    },
    {
      "inputs": [
        {
          "internalType": "address",
          "name": "asset",
          "type": "address"
        },
        {
          "internalType": "uint256",
          "name": "amount",
          "type": "uint256"
        },
        {
          "internalType": "uint256",
          "name": "interestRateMode",
          "type": "uint256"
        },
        {
          "internalType": "address",
          "name": "onBehalfOf",
          "type": "address"
        },
        {
          "internalType": "uint256",
          "name": "deadline",
          "type": "uint256"
        },
        {
          "internalType": "uint8",
          "name": "permitV",
          "type": "uint8"
        },
        {
          "internalType": "bytes32",
          "name": "permitR",
          "type": "bytes32"
        },
        {
          "internalType": "bytes32",
          "name": "permitS",
          "type": "bytes32"
        }
      ],
      "name": "repayWithPermit",
      "outputs": [
        {
          "internalType": "uint256",
          "name": "",
          "type": "uint256"
        }
      ],
      "stateMutability": "nonpayable",
      "type": "function"
    },
    {
      "inputs": [
        {
          "internalType": "address",
          "name": "token",
          "type": "address"
        },
        {
          "internalType": "address",
          "name": "to",
          "type": "address"
        },
        {
          "internalType": "uint256",
          "name": "amount",
          "type": "uint256"
        }
      ],
      "name": "rescueTokens",
      "outputs": [],
      "stateMutability": "nonpayable",
      "type": "function"
    },
    {
      "inputs": [
        {
          "internalType": "address",
          "name": "asset",
          "type": "address"
        }
      ],
      "name": "resetIsolationModeTotalDebt",
      "outputs": [],
      "stateMutability": "nonpayable",
      "type": "function"
    },
    {
      "inputs": [
        {
          "internalType": "address",
          "name": "asset",
          "type": "address"
        },
        {
          "components": [
            {
              "internalType": "uint256",
              "name": "data",
              "type": "uint256"
            }
          ],
          "internalType": "struct DataTypes.ReserveConfigurationMap",
          "name": "configuration",
          "type": "tuple"
        }
      ],
      "name": "setConfiguration",
      "outputs": [],
      "stateMutability": "nonpayable",
      "type": "function"
    },
    {
      "inputs": [
        {
          "internalType": "address",
          "name": "asset",
          "type": "address"
        },
        {
          "internalType": "address",
          "name": "rateStrategyAddress",
          "type": "address"
        }
      ],
      "name": "setReserveInterestRateStrategyAddress",
      "outputs": [],
      "stateMutability": "nonpayable",
      "type": "function"
    },
    {
      "inputs": [
        {
          "internalType": "uint8",
          "name": "categoryId",
          "type": "uint8"
        }
      ],
      "name": "setUserEMode",
      "outputs": [],
      "stateMutability": "nonpayable",
      "type": "function"
    },
    {
      "inputs": [
        {
          "internalType": "address",
          "name": "asset",
          "type": "address"
        },
        {
          "internalType": "bool",
          "name": "useAsCollateral",
          "type": "bool"
        }
      ],
      "name": "setUserUseReserveAsCollateral",
      "outputs": [],
      "stateMutability": "nonpayable",
      "type": "function"
    },
    {
      "inputs": [
        {
          "internalType": "address",
          "name": "asset",
          "type": "address"
        },
        {
          "internalType": "uint256",
          "name": "amount",
          "type": "uint256"
        },
        {
          "internalType": "address",
          "name": "onBehalfOf",
          "type": "address"
        },
        {
          "internalType": "uint16",
          "name": "referralCode",
          "type": "uint16"
        }
      ],
      "name": "supply",
      "outputs": [],
      "stateMutability": "nonpayable",
      "type": "function"
    },
    {
      "inputs": [
        {
          "internalType": "address",
          "name": "asset",
          "type": "address"
        },
        {
          "internalType": "uint256",
          "name": "amount",
          "type": "uint256"
        },
        {
          "internalType": "address",
          "name": "onBehalfOf",
          "type": "address"
        },
        {
          "internalType": "uint16",
          "name": "referralCode",
          "type": "uint16"
        },
        {
          "internalType": "uint256",
          "name": "deadline",
          "type": "uint256"
        },
        {
          "internalType": "uint8",
          "name": "permitV",
          "type": "uint8"
        },
        {
          "internalType": "bytes32",
          "name": "permitR",
          "type": "bytes32"
        },
        {
          "internalType": "bytes32",
          "name": "permitS",
          "type": "bytes32"
        }
      ],
      "name": "supplyWithPermit",
      "outputs": [],
      "stateMutability": "nonpayable",
      "type": "function"
    },
    {
      "inputs": [
        {
          "internalType": "address",
          "name": "asset",
          "type": "address"
        },
        {
          "internalType": "uint256",
          "name": "interestRateMode",
          "type": "uint256"
        }
      ],
      "name": "swapBorrowRateMode",
      "outputs": [],
      "stateMutability": "nonpayable",
      "type": "function"
    },
    {
      "inputs": [
        {
          "internalType": "uint256",
          "name": "protocolFee",
          "type": "uint256"
        }
      ],
      "name": "updateBridgeProtocolFee",
      "outputs": [],
      "stateMutability": "nonpayable",
      "type": "function"
    },
    {
      "inputs": [
        {
          "internalType": "address",
          "name": "asset",
          "type": "address"
        },
        {
          "internalType": "uint256",
          "name": "amount",
          "type": "uint256"
        },
        {
          "internalType": "address",
          "name": "to",
          "type": "address"
        }
      ],
      "name": "withdraw",
      "outputs": [
        {
          "internalType": "uint256",
          "name": "",
          "type": "uint256"
        }
      ],
      "stateMutability": "nonpayable",
      "type": "function"
    }
  ],
  "bytecode": "0x60a0604052600080553480156200001557600080fd5b5060405162004a7638038062004a7683398101604081905262000038916200004a565b6001600160a01b03166080526200007c565b6000602082840312156200005d57600080fd5b81516001600160a01b03811681146200007557600080fd5b9392505050565b608051614983620000f36000396000818161031f0152818161097901528181610a6b01528181610f6e01528181611417015281816117bd01528181611ece01528181611f9f015281816120fd0152818161235c015281816129d301528181612fd001528181613177015261330401526149836000f3fe608060405234801561001057600080fd5b50600436106102d25760003560e01c80637a708e9211610186578063d1946dbc116100e3578063e82fec2f11610097578063ee3e210b11610071578063ee3e210b14610898578063f51e435b146108ab578063f8119d51146108be57600080fd5b8063e82fec2f1461084d578063e8eda9df14610659578063eddf1b791461085f57600080fd5b8063d5ed3933116100c8578063d5ed393314610814578063d65dc7a114610827578063e43e88a11461083a57600080fd5b8063d1946dbc146107ec578063d579ea7d1461080157600080fd5b8063c44b11f71161013a578063cd1123821161011f578063cd112382146107b3578063cea9d26f146107c6578063d15e0053146107d957600080fd5b8063c44b11f714610751578063c4d66de8146107a057600080fd5b80639cd199961161016b5780639cd19996146106eb578063a415bcad146106fe578063bf92857c1461071157600080fd5b80637a708e92146106c557806394ba89a2146106d857600080fd5b8063386497fd11610234578063617ba037116101e857806369328dec116101cd57806369328dec1461067f57806369a933a5146106925780636c6f6ae1146106a557600080fd5b8063617ba0371461065957806363c9b8601461066c57600080fd5b8063527517971161021957806352751797146105f9578063573ade81146106335780635a3b74b91461064657600080fd5b8063386497fd146105885780634417a5831461059b57600080fd5b8063272d90721161028b5780632dad97d4116102705780632dad97d4146103945780633036b439146103a757806335ea6a75146103ba57600080fd5b8063272d90721461037957806328530a471461038157600080fd5b806302c205f0116102bc57806302c205f0146103075780630542975c1461031a5780631d2118f91461036657600080fd5b8062a718a9146102d75780630148170e146102ec575b600080fd5b6102ea6102e53660046137cc565b6108cd565b005b6102f4600181565b6040519081526020015b60405180910390f35b6102ea61031536600461385c565b610b48565b6103417f000000000000000000000000000000000000000000000000000000000000000081565b60405173ffffffffffffffffffffffffffffffffffffffff90911681526020016102fe565b6102ea6103743660046138db565b610cf8565b6039546102f4565b6102ea61038f366004613914565b610ee6565b6102f46103a236600461392f565b6110c5565b6102ea6103b5366004613964565b611209565b61057b6103c836600461397d565b604080516102008101825260006101e08201818152825260208201819052918101829052606081018290526080810182905260a0810182905260c0810182905260e08101829052610100810182905261012081018290526101408101829052610160810182905261018081018290526101a081018290526101c08101919091525073ffffffffffffffffffffffffffffffffffffffff90811660009081526034602090815260409182902082516102008101845281546101e08201908152815260018201546fffffffffffffffffffffffffffffffff80821694830194909452700100000000000000000000000000000000908190048416948201949094526002820154808416606083015284900483166080820152600382015480841660a083015284810464ffffffffff1660c08301527501000000000000000000000000000000000000000000900461ffff1660e0820152600482015485166101008201526005820154851661012082015260068201548516610140820152600782015490941661016085015260088101548083166101808601529290920481166101a0840152600990910154166101c082015290565b6040516102fe919061399a565b6102f461059636600461397d565b611216565b6105ea6105a936600461397d565b604080516020808201835260009182905273ffffffffffffffffffffffffffffffffffffffff93909316815260358352819020815192830190915254815290565b604051905181526020016102fe565b610341610607366004613b17565b61ffff1660009081526036602052604090205473ffffffffffffffffffffffffffffffffffffffff1690565b6102f4610641366004613b32565b61124a565b6102ea610654366004613b7c565b6113a3565b6102ea610667366004613baa565b611578565b6102ea61067a36600461397d565b61167b565b6102f461068d366004613bfb565b6116f7565b6102ea6106a0366004613baa565b611916565b6106b86106b3366004613914565b6119c3565b6040516102fe9190613ca8565b6102ea6106d3366004613d0b565b611afd565b6102ea6106e6366004613d6e565b611c89565b6102ea6106f9366004613d9a565b611d0a565b6102ea61070c366004613e0f565b611d5f565b61072461071f36600461397d565b612045565b604080519687526020870195909552938501929092526060840152608083015260a082015260c0016102fe565b6105ea61075f36600461397d565b604080516020808201835260009182905273ffffffffffffffffffffffffffffffffffffffff93909316815260348352819020815192830190915254815290565b6102ea6107ae36600461397d565b612274565b6102ea6107c13660046138db565b612478565b6102ea6107d4366004613e4e565b612501565b6102f46107e736600461397d565b6125ae565b6107f46125dc565b6040516102fe9190613e8f565b6102ea61080f366004613f90565b612718565b6102ea6108223660046140c8565b612884565b6102f461083536600461392f565b612b0b565b6102ea61084836600461397d565b612bab565b603b5467ffffffffffffffff166102f4565b6102f461086d36600461397d565b73ffffffffffffffffffffffffffffffffffffffff1660009081526038602052604090205460ff1690565b6102f46108a636600461412d565b612c20565b6102ea6108b9366004614173565b612dfb565b604051608081526020016102fe565b73__$f598c634f2d943205ac23f707b80075cbb$__6383c1087d6034603660356037604051806101200160405280603b60089054906101000a900461ffff1661ffff1681526020018981526020018c73ffffffffffffffffffffffffffffffffffffffff1681526020018b73ffffffffffffffffffffffffffffffffffffffff1681526020018a73ffffffffffffffffffffffffffffffffffffffff16815260200188151581526020017f000000000000000000000000000000000000000000000000000000000000000073ffffffffffffffffffffffffffffffffffffffff1663fca513a86040518163ffffffff1660e01b8152600401602060405180830381865afa1580156109e2573d6000803e3d6000fd5b505050506040513d601f19601f82011682018060405250810190610a0691906141d2565b73ffffffffffffffffffffffffffffffffffffffff90811682528b81166000908152603860209081526040918290205460ff168185015281517f5eb88d3d000000000000000000000000000000000000000000000000000000008152825192909401937f000000000000000000000000000000000000000000000000000000000000000090931692635eb88d3d92600480830193928290030181865afa158015610ab4573d6000803e3d6000fd5b505050506040513d601f19601f82011682018060405250810190610ad891906141d2565b73ffffffffffffffffffffffffffffffffffffffff168152506040518663ffffffff1660e01b8152600401610b119594939291906141ef565b60006040518083038186803b158015610b2957600080fd5b505af4158015610b3d573d6000803e3d6000fd5b505050505050505050565b6040517fd505accf000000000000000000000000000000000000000000000000000000008152336004820152306024820152604481018890526064810185905260ff8416608482015260a4810183905260c4810182905273ffffffffffffffffffffffffffffffffffffffff89169063d505accf9060e401600060405180830381600087803b158015610bda57600080fd5b505af1158015610bee573d6000803e3d6000fd5b5050505073ffffffffffffffffffffffffffffffffffffffff86811660008181526035602090815260409182902082516080810184528d861681529182018c815282840194855261ffff8b81166060850190815294517f1913f16100000000000000000000000000000000000000000000000000000000815260346004820152603660248201526044810193909352925186166064830152516084820152925190931660a48301525190911660c482015273__$db79717e66442ee197e8271d032a066e34$__90631913f1619060e40160006040518083038186803b158015610cd657600080fd5b505af4158015610cea573d6000803e3d6000fd5b505050505050505050505050565b610d00612fb7565b60408051808201909152600281527f3737000000000000000000000000000000000000000000000000000000000000602082015273ffffffffffffffffffffffffffffffffffffffff8316610d8b576040517f08c379a0000000000000000000000000000000000000000000000000000000008152600401610d8291906142d0565b60405180910390fd5b5073ffffffffffffffffffffffffffffffffffffffff82166000908152603460205260409020600301547501000000000000000000000000000000000000000000900461ffff16151580610e2157506000805260366020527f4cb2b152c1b54ce671907a93c300fd5aa72383a9d4ec19a81e3333632ae92e005473ffffffffffffffffffffffffffffffffffffffff8381169116145b6040518060400160405280600281526020017f383200000000000000000000000000000000000000000000000000000000000081525090610e8f576040517f08c379a0000000000000000000000000000000000000000000000000000000008152600401610d8291906142d0565b5073ffffffffffffffffffffffffffffffffffffffff918216600090815260346020526040902060070180547fffffffffffffffffffffffff00000000000000000000000000000000000000001691909216179055565b73__$e4b9550ff526a295e1233dea02821b9004$__635d5dc3136034603660376038603560003373ffffffffffffffffffffffffffffffffffffffff1673ffffffffffffffffffffffffffffffffffffffff1681526020019081526020016000206040518060600160405280603b60089054906101000a900461ffff1661ffff1681526020017f000000000000000000000000000000000000000000000000000000000000000073ffffffffffffffffffffffffffffffffffffffff1663fca513a86040518163ffffffff1660e01b8152600401602060405180830381865afa158015610fd7573d6000803e3d6000fd5b505050506040513d601f19601f82011682018060405250810190610ffb91906141d2565b73ffffffffffffffffffffffffffffffffffffffff1681526020018960ff168152506040518763ffffffff1660e01b81526004016110929695949392919095865260208087019590955260408087019490945260608601929092526080850152805160a08501529182015173ffffffffffffffffffffffffffffffffffffffff1660c0840152015160ff1660e08201526101000190565b60006040518083038186803b1580156110aa57600080fd5b505af41580156110be573d6000803e3d6000fd5b5050505050565b600073__$c3724b8d563dc83a94e797176cddecb3b9$__6340e95de660346036603560003373ffffffffffffffffffffffffffffffffffffffff1673ffffffffffffffffffffffffffffffffffffffff1681526020019081526020016000206040518060a001604052808a73ffffffffffffffffffffffffffffffffffffffff168152602001898152602001886002811115611163576111636142e3565b6002811115611174576111746142e3565b81523360208201526001604091820152517fffffffff0000000000000000000000000000000000000000000000000000000060e087901b1681526111be949392919060040161434d565b602060405180830381865af41580156111db573d6000803e3d6000fd5b505050506040513d601f19601f820116820180604052508101906111ff91906143c0565b90505b9392505050565b611211612fb7565b603955565b73ffffffffffffffffffffffffffffffffffffffff81166000908152603460205260408120611244906130e5565b92915050565b600073__$c3724b8d563dc83a94e797176cddecb3b9$__6340e95de660346036603560008773ffffffffffffffffffffffffffffffffffffffff1673ffffffffffffffffffffffffffffffffffffffff1681526020019081526020016000206040518060a001604052808b73ffffffffffffffffffffffffffffffffffffffff1681526020018a81526020018960028111156112e8576112e86142e3565b60028111156112f9576112f96142e3565b815273ffffffffffffffffffffffffffffffffffffffff891660208201526000604091820152517fffffffff0000000000000000000000000000000000000000000000000000000060e087901b168152611359949392919060040161434d565b602060405180830381865af4158015611376573d6000803e3d6000fd5b505050506040513d601f19601f8201168201806040525081019061139a91906143c0565b95945050505050565b73__$db79717e66442ee197e8271d032a066e34$__63bf697a26603460366037603560003373ffffffffffffffffffffffffffffffffffffffff1673ffffffffffffffffffffffffffffffffffffffff1681526020019081526020016000208787603b60089054906101000a900461ffff167f000000000000000000000000000000000000000000000000000000000000000073ffffffffffffffffffffffffffffffffffffffff1663fca513a86040518163ffffffff1660e01b8152600401602060405180830381865afa158015611480573d6000803e3d6000fd5b505050506040513d601f19601f820116820180604052508101906114a491906141d2565b336000908152603860205260409081902054905160e08b901b7fffffffff00000000000000000000000000000000000000000000000000000000168152600481019990995260248901979097526044880195909552606487019390935273ffffffffffffffffffffffffffffffffffffffff9182166084870152151560a486015261ffff90911660c48501521660e483015260ff16610104820152610124015b60006040518083038186803b15801561155c57600080fd5b505af4158015611570573d6000803e3d6000fd5b505050505050565b73ffffffffffffffffffffffffffffffffffffffff8281166000818152603560209081526040918290208251608081018452898616815291820188815282840194855261ffff8781166060850190815294517f1913f16100000000000000000000000000000000000000000000000000000000815260346004820152603660248201526044810193909352925186166064830152516084820152925190931660a48301525190911660c482015273__$db79717e66442ee197e8271d032a066e34$__90631913f1619060e4015b60006040518083038186803b15801561165d57600080fd5b505af4158015611671573d6000803e3d6000fd5b5050505050505050565b611683612fb7565b6040517f9cf57023000000000000000000000000000000000000000000000000000000008152603460048201526036602482015273ffffffffffffffffffffffffffffffffffffffff8216604482015273__$563c746fa3df0f1858d85f6ef4258864be$__90639cf5702390606401611092565b600073__$db79717e66442ee197e8271d032a066e34$__63186dea44603460366037603560003373ffffffffffffffffffffffffffffffffffffffff1673ffffffffffffffffffffffffffffffffffffffff1681526020019081526020016000206040518060c001604052808b73ffffffffffffffffffffffffffffffffffffffff1681526020018a81526020018973ffffffffffffffffffffffffffffffffffffffff168152602001603b60089054906101000a900461ffff1661ffff1681526020017f000000000000000000000000000000000000000000000000000000000000000073ffffffffffffffffffffffffffffffffffffffff1663fca513a86040518163ffffffff1660e01b8152600401602060405180830381865afa158015611826573d6000803e3d6000fd5b505050506040513d601f19601f8201168201806040525081019061184a91906141d2565b73ffffffffffffffffffffffffffffffffffffffff9081168252336000908152603860209081526040918290205460ff90811694820194909452815160e08b901b7fffffffff0000000000000000000000000000000000000000000000000000000016815260048101999099526024890197909752604488019590955260648701939093528151831660848701529381015160a486015291820151811660c4850152606082015160e485015260808201511661010484015260a0015116610124820152610144016111be565b61191e613175565b73ffffffffffffffffffffffffffffffffffffffff8281166000818152603560205260409081902090517f0413c86f0000000000000000000000000000000000000000000000000000000081526034600482015260366024820152604481019190915291861660648301526084820185905260a482015261ffff821660c482015273__$b06080f092f400a43662c3f835a4d9baa8$__90630413c86f9060e401611645565b6040805160a081018252600080825260208201819052918101829052606080820192909252608081019190915260ff8216600090815260376020908152604091829020825160a081018452815461ffff8082168352620100008204811694830194909452640100000000810490931693810193909352660100000000000090910473ffffffffffffffffffffffffffffffffffffffff166060830152600181018054608084019190611a74906143d9565b80601f0160208091040260200160405190810160405280929190818152602001828054611aa0906143d9565b8015611aed5780601f10611ac257610100808354040283529160200191611aed565b820191906000526020600020905b815481529060010190602001808311611ad057829003601f168201915b5050505050815250509050919050565b611b05612fb7565b73__$563c746fa3df0f1858d85f6ef4258864be$__6369fc1bdf603460366040518060e001604052808a73ffffffffffffffffffffffffffffffffffffffff1681526020018973ffffffffffffffffffffffffffffffffffffffff1681526020018873ffffffffffffffffffffffffffffffffffffffff1681526020018773ffffffffffffffffffffffffffffffffffffffff1681526020018673ffffffffffffffffffffffffffffffffffffffff168152602001603b60089054906101000a900461ffff1661ffff168152602001611bdc608090565b61ffff168152506040518463ffffffff1660e01b8152600401611c0193929190614427565b602060405180830381865af4158015611c1e573d6000803e3d6000fd5b505050506040513d601f19601f82011682018060405250810190611c4291906144b7565b156110be57603b805468010000000000000000900461ffff16906008611c6783614503565b91906101000a81548161ffff021916908361ffff160217905550505050505050565b73ffffffffffffffffffffffffffffffffffffffff82166000908152603460209081526040808320338452603590925290912073__$c3724b8d563dc83a94e797176cddecb3b9$__9163eac4d7039185856002811115611ceb57611ceb6142e3565b6040518563ffffffff1660e01b81526004016115449493929190614525565b6040517f48c2ca8c00000000000000000000000000000000000000000000000000000000815273__$563c746fa3df0f1858d85f6ef4258864be$__906348c2ca8c90611544906034908690869060040161455c565b73__$c3724b8d563dc83a94e797176cddecb3b9$__631e6473f9603460366037603560008773ffffffffffffffffffffffffffffffffffffffff1673ffffffffffffffffffffffffffffffffffffffff1681526020019081526020016000206040518061018001604052808c73ffffffffffffffffffffffffffffffffffffffff1681526020013373ffffffffffffffffffffffffffffffffffffffff1681526020018873ffffffffffffffffffffffffffffffffffffffff1681526020018b81526020018a6002811115611e3657611e366142e3565b6002811115611e4757611e476142e3565b815261ffff808b166020808401919091526001604080850191909152603b5467ffffffffffffffff81166060860152680100000000000000009004909216608084015281517ffca513a8000000000000000000000000000000000000000000000000000000008152915160a09093019273ffffffffffffffffffffffffffffffffffffffff7f0000000000000000000000000000000000000000000000000000000000000000169263fca513a89260048083019391928290030181865afa158015611f16573d6000803e3d6000fd5b505050506040513d601f19601f82011682018060405250810190611f3a91906141d2565b73ffffffffffffffffffffffffffffffffffffffff90811682528981166000908152603860209081526040918290205460ff168185015281517f5eb88d3d000000000000000000000000000000000000000000000000000000008152825192909401937f000000000000000000000000000000000000000000000000000000000000000090931692635eb88d3d92600480830193928290030181865afa158015611fe8573d6000803e3d6000fd5b505050506040513d601f19601f8201168201806040525081019061200c91906141d2565b73ffffffffffffffffffffffffffffffffffffffff168152506040518663ffffffff1660e01b8152600401610b119594939291906145c1565b6040805173ffffffffffffffffffffffffffffffffffffffff83811660008181526035602090815285822060c0860187525460a086019081528552603b5468010000000000000000900461ffff16818601528486019290925284517ffca513a8000000000000000000000000000000000000000000000000000000008152945190948594859485948594859473__$563c746fa3df0f1858d85f6ef4258864be$__946326ec273f9460349460369460379460608501937f0000000000000000000000000000000000000000000000000000000000000000169263fca513a8926004808401938290030181865afa158015612143573d6000803e3d6000fd5b505050506040513d601f19601f8201168201806040525081019061216791906141d2565b73ffffffffffffffffffffffffffffffffffffffff90811682528e81166000908152603860209081526040918290205460ff90811694820194909452815160e08a901b7fffffffff00000000000000000000000000000000000000000000000000000000168152600481019890985260248801969096526044870194909452825151606487015293820151608486015291810151831660a4850152606081015190921660c48401526080909101511660e48201526101040160c060405180830381865af415801561223c573d6000803e3d6000fd5b505050506040513d601f19601f8201168201806040525081019061226091906146e9565b949c939b5091995097509550909350915050565b6001805460ff16806122855750303b155b80612291575060005481115b61231d576040517f08c379a000000000000000000000000000000000000000000000000000000000815260206004820152602e60248201527f436f6e747261637420696e7374616e63652068617320616c726561647920626560448201527f656e20696e697469616c697a65640000000000000000000000000000000000006064820152608401610d82565b60015460ff1615801561235a57600180547fffffffffffffffffffffffffffffffffffffffffffffffffffffffffffffff00168117905560008290555b7f000000000000000000000000000000000000000000000000000000000000000073ffffffffffffffffffffffffffffffffffffffff168373ffffffffffffffffffffffffffffffffffffffff16146040518060400160405280600281526020017f313200000000000000000000000000000000000000000000000000000000000081525090612417576040517f08c379a0000000000000000000000000000000000000000000000000000000008152600401610d8291906142d0565b50603b80547fffffffffffffffffffffffffffffffffffffffffffffffff0000000000000000166109c4179055801561247357600180547fffffffffffffffffffffffffffffffffffffffffffffffffffffffffffffff001690555b505050565b73ffffffffffffffffffffffffffffffffffffffff8281166000818152603460205260409081902090517f6973f74400000000000000000000000000000000000000000000000000000000815260048101919091526024810191909152908216604482015273__$c3724b8d563dc83a94e797176cddecb3b9$__90636973f74490606401611544565b612509613302565b6040517f87b322b200000000000000000000000000000000000000000000000000000000815273ffffffffffffffffffffffffffffffffffffffff8085166004830152831660248201526044810182905273__$563c746fa3df0f1858d85f6ef4258864be$__906387b322b29060640160006040518083038186803b15801561259157600080fd5b505af41580156125a5573d6000803e3d6000fd5b50505050505050565b73ffffffffffffffffffffffffffffffffffffffff811660009081526034602052604081206112449061348f565b603b5460609068010000000000000000900461ffff166000808267ffffffffffffffff81111561260e5761260e613ee9565b604051908082528060200260200182016040528015612637578160200160208202803683370190505b50905060005b8381101561270e5760008181526036602052604090205473ffffffffffffffffffffffffffffffffffffffff16156126ee5760008181526036602052604090205473ffffffffffffffffffffffffffffffffffffffff168261269f8584614733565b815181106126af576126af61474a565b602002602001019073ffffffffffffffffffffffffffffffffffffffff16908173ffffffffffffffffffffffffffffffffffffffff16815250506126fc565b826126f881614779565b9350505b8061270681614779565b91505061263d565b5091038152919050565b612720612fb7565b60408051808201909152600281527f3136000000000000000000000000000000000000000000000000000000000000602082015260ff831661278f576040517f08c379a0000000000000000000000000000000000000000000000000000000008152600401610d8291906142d0565b5060ff8216600090815260376020908152604091829020835181548386015194860151606087015173ffffffffffffffffffffffffffffffffffffffff166601000000000000027fffffffffffff0000000000000000000000000000000000000000ffffffffffff61ffff92831664010000000002167fffffffffffff00000000000000000000000000000000000000000000ffffffff97831662010000027fffffffffffffffffffffffffffffffffffffffffffffffffffffffff000000009094169290941691909117919091179490941617929092178255608083015180518493926110be926001850192910190613703565b73ffffffffffffffffffffffffffffffffffffffff868116600090815260346020908152604091829020600401548251808401909352600283527f3131000000000000000000000000000000000000000000000000000000000000918301919091529091163314612922576040517f08c379a0000000000000000000000000000000000000000000000000000000008152600401610d8291906142d0565b5073__$db79717e66442ee197e8271d032a066e34$__638a5dadd160346036603760356040518061012001604052808d73ffffffffffffffffffffffffffffffffffffffff1681526020018c73ffffffffffffffffffffffffffffffffffffffff1681526020018b73ffffffffffffffffffffffffffffffffffffffff1681526020018a8152602001898152602001888152602001603b60089054906101000a900461ffff1661ffff1681526020017f000000000000000000000000000000000000000000000000000000000000000073ffffffffffffffffffffffffffffffffffffffff1663fca513a86040518163ffffffff1660e01b8152600401602060405180830381865afa158015612a3c573d6000803e3d6000fd5b505050506040513d601f19601f82011682018060405250810190612a6091906141d2565b73ffffffffffffffffffffffffffffffffffffffff90811682528d166000908152603860209081526040918290205460ff16920191909152517fffffffff0000000000000000000000000000000000000000000000000000000060e088901b168152612ad39594939291906004016147b2565b60006040518083038186803b158015612aeb57600080fd5b505af4158015612aff573d6000803e3d6000fd5b50505050505050505050565b6000612b15613175565b73ffffffffffffffffffffffffffffffffffffffff84166000818152603460205260409081902060395491517f8e743248000000000000000000000000000000000000000000000000000000008152600481019190915260248101929092526044820185905260648201849052608482015273__$b06080f092f400a43662c3f835a4d9baa8$__90638e7432489060a4016111be565b612bb3612fb7565b6040517f1e3b41450000000000000000000000000000000000000000000000000000000081526034600482015273ffffffffffffffffffffffffffffffffffffffff8216602482015273__$563c746fa3df0f1858d85f6ef4258864be$__90631e3b414590604401611092565b6040517fd505accf000000000000000000000000000000000000000000000000000000008152336004820152306024820152604481018890526064810185905260ff8416608482015260a4810183905260c4810182905260009073ffffffffffffffffffffffffffffffffffffffff8a169063d505accf9060e401600060405180830381600087803b158015612cb557600080fd5b505af1158015612cc9573d6000803e3d6000fd5b5050505060006040518060a001604052808b73ffffffffffffffffffffffffffffffffffffffff1681526020018a8152602001896002811115612d0e57612d0e6142e3565b6002811115612d1f57612d1f6142e3565b815273ffffffffffffffffffffffffffffffffffffffff89166020808301829052600060409384018190529182526035905281902090517f40e95de600000000000000000000000000000000000000000000000000000000815291925073__$c3724b8d563dc83a94e797176cddecb3b9$__916340e95de691612dac91603491603691879060040161434d565b602060405180830381865af4158015612dc9573d6000803e3d6000fd5b505050506040513d601f19601f82011682018060405250810190612ded91906143c0565b9a9950505050505050505050565b612e03612fb7565b60408051808201909152600281527f3737000000000000000000000000000000000000000000000000000000000000602082015273ffffffffffffffffffffffffffffffffffffffff8316612e85576040517f08c379a0000000000000000000000000000000000000000000000000000000008152600401610d8291906142d0565b5073ffffffffffffffffffffffffffffffffffffffff82166000908152603460205260409020600301547501000000000000000000000000000000000000000000900461ffff16151580612f1b57506000805260366020527f4cb2b152c1b54ce671907a93c300fd5aa72383a9d4ec19a81e3333632ae92e005473ffffffffffffffffffffffffffffffffffffffff8381169116145b6040518060400160405280600281526020017f383200000000000000000000000000000000000000000000000000000000000081525090612f89576040517f08c379a0000000000000000000000000000000000000000000000000000000008152600401610d8291906142d0565b5073ffffffffffffffffffffffffffffffffffffffff91909116600090815260346020526040902090359055565b3373ffffffffffffffffffffffffffffffffffffffff167f000000000000000000000000000000000000000000000000000000000000000073ffffffffffffffffffffffffffffffffffffffff1663631adfca6040518163ffffffff1660e01b8152600401602060405180830381865afa158015613039573d6000803e3d6000fd5b505050506040513d601f19601f8201168201806040525081019061305d91906141d2565b73ffffffffffffffffffffffffffffffffffffffff16146040518060400160405280600281526020017f3130000000000000000000000000000000000000000000000000000000000000815250906130e2576040517f08c379a0000000000000000000000000000000000000000000000000000000008152600401610d8291906142d0565b50565b6003810154600090700100000000000000000000000000000000900464ffffffffff164281141561312b575050600201546fffffffffffffffffffffffffffffffff1690565b6002830154611202906fffffffffffffffffffffffffffffffff80821691613169917001000000000000000000000000000000009091041684613513565b90613520565b50919050565b7f000000000000000000000000000000000000000000000000000000000000000073ffffffffffffffffffffffffffffffffffffffff1663707cd7166040518163ffffffff1660e01b8152600401602060405180830381865afa1580156131e0573d6000803e3d6000fd5b505050506040513d601f19601f8201168201806040525081019061320491906141d2565b6040517f726600ce00000000000000000000000000000000000000000000000000000000815233600482015273ffffffffffffffffffffffffffffffffffffffff919091169063726600ce90602401602060405180830381865afa158015613270573d6000803e3d6000fd5b505050506040513d601f19601f8201168201806040525081019061329491906144b7565b6040518060400160405280600181526020017f3600000000000000000000000000000000000000000000000000000000000000815250906130e2576040517f08c379a0000000000000000000000000000000000000000000000000000000008152600401610d8291906142d0565b7f000000000000000000000000000000000000000000000000000000000000000073ffffffffffffffffffffffffffffffffffffffff1663707cd7166040518163ffffffff1660e01b8152600401602060405180830381865afa15801561336d573d6000803e3d6000fd5b505050506040513d601f19601f8201168201806040525081019061339191906141d2565b6040517f7be53ca100000000000000000000000000000000000000000000000000000000815233600482015273ffffffffffffffffffffffffffffffffffffffff9190911690637be53ca190602401602060405180830381865afa1580156133fd573d6000803e3d6000fd5b505050506040513d601f19601f8201168201806040525081019061342191906144b7565b6040518060400160405280600181526020017f3100000000000000000000000000000000000000000000000000000000000000815250906130e2576040517f08c379a0000000000000000000000000000000000000000000000000000000008152600401610d8291906142d0565b6003810154600090700100000000000000000000000000000000900464ffffffffff16428114156134d5575050600101546fffffffffffffffffffffffffffffffff1690565b6001830154611202906fffffffffffffffffffffffffffffffff80821691613169917001000000000000000000000000000000009091041684613577565b60006112028383426135bc565b600081157ffffffffffffffffffffffffffffffffffffffffffe6268e1b017bfe18bffffff8390048411151761355557600080fd5b506b033b2e3c9fd0803ce800000091026b019d971e4fe8401e74000000010490565b60008061358b64ffffffffff841642614733565b613595908561488e565b6301e13380900490506135b4816b033b2e3c9fd0803ce80000006148fa565b949350505050565b6000806135d064ffffffffff851684614733565b9050806135ec576b033b2e3c9fd0803ce8000000915050611202565b7fffffffffffffffffffffffffffffffffffffffffffffffffffffffffffffffff81016000808060028511613622576000613627565b600285035b925066038882915c400061363b8a80613520565b81613648576136486148cb565b0491506301e1338061365a838b613520565b81613667576136676148cb565b049050600082613677868861488e565b613681919061488e565b60029004905060008285613695888a61488e565b61369f919061488e565b6136a9919061488e565b60069004905080826301e133806136c08a8f61488e565b6136ca9190614912565b6136e0906b033b2e3c9fd0803ce80000006148fa565b6136ea91906148fa565b6136f491906148fa565b9b9a5050505050505050505050565b82805461370f906143d9565b90600052602060002090601f0160209004810192826137315760008555613777565b82601f1061374a57805160ff1916838001178555613777565b82800160010185558215613777579182015b8281111561377757825182559160200191906001019061375c565b50613783929150613787565b5090565b5b808211156137835760008155600101613788565b73ffffffffffffffffffffffffffffffffffffffff811681146130e257600080fd5b80151581146130e257600080fd5b600080600080600060a086880312156137e457600080fd5b85356137ef8161379c565b945060208601356137ff8161379c565b9350604086013561380f8161379c565b9250606086013591506080860135613826816137be565b809150509295509295909350565b803561ffff8116811461384657600080fd5b919050565b803560ff8116811461384657600080fd5b600080600080600080600080610100898b03121561387957600080fd5b88356138848161379c565b975060208901359650604089013561389b8161379c565b95506138a960608a01613834565b9450608089013593506138be60a08a0161384b565b925060c0890135915060e089013590509295985092959890939650565b600080604083850312156138ee57600080fd5b82356138f98161379c565b915060208301356139098161379c565b809150509250929050565b60006020828403121561392657600080fd5b6112028261384b565b60008060006060848603121561394457600080fd5b833561394f8161379c565b95602085013595506040909401359392505050565b60006020828403121561397657600080fd5b5035919050565b60006020828403121561398f57600080fd5b81356112028161379c565b81515181526101e0810160208301516139c760208401826fffffffffffffffffffffffffffffffff169052565b5060408301516139eb60408401826fffffffffffffffffffffffffffffffff169052565b506060830151613a0f60608401826fffffffffffffffffffffffffffffffff169052565b506080830151613a3360808401826fffffffffffffffffffffffffffffffff169052565b5060a0830151613a5760a08401826fffffffffffffffffffffffffffffffff169052565b5060c0830151613a7060c084018264ffffffffff169052565b5060e0830151613a8660e084018261ffff169052565b506101008381015173ffffffffffffffffffffffffffffffffffffffff9081169184019190915261012080850151821690840152610140808501518216908401526101608085015190911690830152610180808401516fffffffffffffffffffffffffffffffff908116918401919091526101a0808501518216908401526101c09384015116929091019190915290565b600060208284031215613b2957600080fd5b61120282613834565b60008060008060808587031215613b4857600080fd5b8435613b538161379c565b935060208501359250604085013591506060850135613b718161379c565b939692955090935050565b60008060408385031215613b8f57600080fd5b8235613b9a8161379c565b91506020830135613909816137be565b60008060008060808587031215613bc057600080fd5b8435613bcb8161379c565b9350602085013592506040850135613be28161379c565b9150613bf060608601613834565b905092959194509250565b600080600060608486031215613c1057600080fd5b8335613c1b8161379c565b9250602084013591506040840135613c328161379c565b809150509250925092565b6000815180845260005b81811015613c6357602081850181015186830182015201613c47565b81811115613c75576000602083870101525b50601f017fffffffffffffffffffffffffffffffffffffffffffffffffffffffffffffffe0169290920160200192915050565b60208152600061ffff8084511660208401528060208501511660408401528060408501511660608401525073ffffffffffffffffffffffffffffffffffffffff6060840151166080830152608083015160a0808401526135b460c0840182613c3d565b600080600080600060a08688031215613d2357600080fd5b8535613d2e8161379c565b94506020860135613d3e8161379c565b93506040860135613d4e8161379c565b92506060860135613d5e8161379c565b915060808601356138268161379c565b60008060408385031215613d8157600080fd5b8235613d8c8161379c565b946020939093013593505050565b60008060208385031215613dad57600080fd5b823567ffffffffffffffff80821115613dc557600080fd5b818501915085601f830112613dd957600080fd5b813581811115613de857600080fd5b8660208260051b8501011115613dfd57600080fd5b60209290920196919550909350505050565b600080600080600060a08688031215613e2757600080fd5b8535613e328161379c565b94506020860135935060408601359250613d5e60608701613834565b600080600060608486031215613e6357600080fd5b8335613e6e8161379c565b92506020840135613e7e8161379c565b929592945050506040919091013590565b6020808252825182820181905260009190848201906040850190845b81811015613edd57835173ffffffffffffffffffffffffffffffffffffffff1683529284019291840191600101613eab565b50909695505050505050565b7f4e487b7100000000000000000000000000000000000000000000000000000000600052604160045260246000fd5b60405160a0810167ffffffffffffffff81118282101715613f3b57613f3b613ee9565b60405290565b604051601f82017fffffffffffffffffffffffffffffffffffffffffffffffffffffffffffffffe016810167ffffffffffffffff81118282101715613f8857613f88613ee9565b604052919050565b60008060408385031215613fa357600080fd5b613fac8361384b565b915060208084013567ffffffffffffffff80821115613fca57600080fd5b9085019060a08288031215613fde57600080fd5b613fe6613f18565b613fef83613834565b8152613ffc848401613834565b8482015261400c60408401613834565b6040820152606083013561401f8161379c565b606082015260808301358281111561403657600080fd5b80840193505087601f84011261404b57600080fd5b82358281111561405d5761405d613ee9565b61408d857fffffffffffffffffffffffffffffffffffffffffffffffffffffffffffffffe0601f84011601613f41565b925080835288858286010111156140a357600080fd5b8085850186850137600085828501015250816080820152809450505050509250929050565b60008060008060008060c087890312156140e157600080fd5b86356140ec8161379c565b955060208701356140fc8161379c565b9450604087013561410c8161379c565b959894975094956060810135955060808101359460a0909101359350915050565b600080600080600080600080610100898b03121561414a57600080fd5b88356141558161379c565b9750602089013596506040890135955060608901356138a98161379c565b600080828403604081121561418757600080fd5b83356141928161379c565b925060207fffffffffffffffffffffffffffffffffffffffffffffffffffffffffffffffe0820112156141c457600080fd5b506020830190509250929050565b6000602082840312156141e457600080fd5b81516112028161379c565b60006101a08201905086825285602083015284604083015283606083015282516080830152602083015160a0830152604083015173ffffffffffffffffffffffffffffffffffffffff80821660c08501528060608601511660e0850152505060808301516101006142778185018373ffffffffffffffffffffffffffffffffffffffff169052565b60a0850151151561012085015260c085015173ffffffffffffffffffffffffffffffffffffffff90811661014086015260e086015160ff166101608601529085015190811661018085015290505b509695505050505050565b6020815260006112026020830184613c3d565b7f4e487b7100000000000000000000000000000000000000000000000000000000600052602160045260246000fd5b60038110614349577f4e487b7100000000000000000000000000000000000000000000000000000000600052602160045260246000fd5b9052565b60006101008201905085825284602083015283604083015273ffffffffffffffffffffffffffffffffffffffff80845116606084015260208401516080840152604084015161439f60a0850182614312565b5060608401511660c0830152608090920151151560e0909101529392505050565b6000602082840312156143d257600080fd5b5051919050565b600181811c908216806143ed57607f821691505b6020821081141561316f577f4e487b7100000000000000000000000000000000000000000000000000000000600052602260045260246000fd5b60006101208201905084825283602083015273ffffffffffffffffffffffffffffffffffffffff8084511660408401528060208501511660608401528060408501511660808401528060608501511660a08401528060808501511660c08401525060a083015161449d60e084018261ffff169052565b5060c083015161ffff811661010084015250949350505050565b6000602082840312156144c957600080fd5b8151611202816137be565b7f4e487b7100000000000000000000000000000000000000000000000000000000600052601160045260246000fd5b600061ffff8083168181141561451b5761451b6144d4565b6001019392505050565b8481526020810184905273ffffffffffffffffffffffffffffffffffffffff831660408201526080810161139a6060830184614312565b83815260406020808301829052908201839052600090849060608401835b868110156145b557833561458d8161379c565b73ffffffffffffffffffffffffffffffffffffffff168252928201929082019060010161457a565b50979650505050505050565b858152602081018590526040810184905260608101839052815173ffffffffffffffffffffffffffffffffffffffff1660808201526102008101602083015173ffffffffffffffffffffffffffffffffffffffff811660a084015250604083015173ffffffffffffffffffffffffffffffffffffffff811660c084015250606083015160e0830152608083015161010061465d81850183614312565b60a085015191506101206146768186018461ffff169052565b60c0860151925061014061468d8187018515159052565b60e087015161016087810191909152928701516101808701529086015173ffffffffffffffffffffffffffffffffffffffff9081166101a08701529086015160ff166101c0860152908501519081166101e085015290506142c5565b60008060008060008060c0878903121561470257600080fd5b865195506020870151945060408701519350606087015192506080870151915060a087015190509295509295509295565b600082821015614745576147456144d4565b500390565b7f4e487b7100000000000000000000000000000000000000000000000000000000600052603260045260246000fd5b60007fffffffffffffffffffffffffffffffffffffffffffffffffffffffffffffffff8214156147ab576147ab6144d4565b5060010190565b60006101a08201905086825285602083015284604083015283606083015273ffffffffffffffffffffffffffffffffffffffff8084511660808401528060208501511660a084015250604083015161482260c084018273ffffffffffffffffffffffffffffffffffffffff169052565b50606083015160e08301526080830151610100818185015260a085015161012085015260c085015161014085015260e0850151915061487a61016085018373ffffffffffffffffffffffffffffffffffffffff169052565b84015160ff811661018085015290506142c5565b6000817fffffffffffffffffffffffffffffffffffffffffffffffffffffffffffffffff04831182151516156148c6576148c66144d4565b500290565b7f4e487b7100000000000000000000000000000000000000000000000000000000600052601260045260246000fd5b6000821982111561490d5761490d6144d4565b500190565b600082614948577f4e487b7100000000000000000000000000000000000000000000000000000000600052601260045260246000fd5b50049056fea264697066735822122042660b179ca3a0281133c1430834b420728a4e697bedd4975ad07dabb96a7bd164736f6c634300080a0033",
  "linkReferences": {
    "contracts/protocol/libraries/logic/BorrowLogic.sol": {
      "BorrowLogic": [
        {
          "length": 20,
          "start": 4540
        },
        {
          "length": 20,
          "start": 4929
        },
        {
          "length": 20,
          "start": 7601
        },
        {
          "length": 20,
          "start": 7764
        },
        {
          "length": 20,
          "start": 9682
        },
        {
          "length": 20,
          "start": 11889
        }
      ]
    },
    "contracts/protocol/libraries/logic/BridgeLogic.sol": {
      "BridgeLogic": [
        {
          "length": 20,
          "start": 6804
        },
        {
          "length": 20,
          "start": 11388
        }
      ]
    },
    "contracts/protocol/libraries/logic/EModeLogic.sol": {
      "EModeLogic": [
        {
          "length": 20,
          "start": 4059
        }
      ]
    },
    "contracts/protocol/libraries/logic/LiquidationLogic.sol": {
      "LiquidationLogic": [
        {
          "length": 20,
          "start": 2498
        }
      ]
    },
    "contracts/protocol/libraries/logic/PoolLogic.sol": {
      "PoolLogic": [
        {
          "length": 20,
          "start": 6088
        },
        {
          "length": 20,
          "start": 7162
        },
        {
          "length": 20,
          "start": 7717
        },
        {
          "length": 20,
          "start": 8646
        },
        {
          "length": 20,
          "start": 9807
        },
        {
          "length": 20,
          "start": 11505
        }
      ]
    },
    "contracts/protocol/libraries/logic/SupplyLogic.sol": {
      "SupplyLogic": [
        {
          "length": 20,
          "start": 3476
        },
        {
          "length": 20,
          "start": 5272
        },
        {
          "length": 20,
          "start": 5914
        },
        {
          "length": 20,
          "start": 6126
        },
        {
          "length": 20,
          "start": 10776
        }
      ]
    }
  },
  "deployedLinkReferences": {
    "contracts/protocol/libraries/logic/BorrowLogic.sol": {
      "BorrowLogic": [
        {
          "length": 20,
          "start": 4297
        },
        {
          "length": 20,
          "start": 4686
        },
        {
          "length": 20,
          "start": 7358
        },
        {
          "length": 20,
          "start": 7521
        },
        {
          "length": 20,
          "start": 9439
        },
        {
          "length": 20,
          "start": 11646
        }
      ]
    },
    "contracts/protocol/libraries/logic/BridgeLogic.sol": {
      "BridgeLogic": [
        {
          "length": 20,
          "start": 6561
        },
        {
          "length": 20,
          "start": 11145
        }
      ]
    },
    "contracts/protocol/libraries/logic/EModeLogic.sol": {
      "EModeLogic": [
        {
          "length": 20,
          "start": 3816
        }
      ]
    },
    "contracts/protocol/libraries/logic/LiquidationLogic.sol": {
      "LiquidationLogic": [
        {
          "length": 20,
          "start": 2255
        }
      ]
    },
    "contracts/protocol/libraries/logic/PoolLogic.sol": {
      "PoolLogic": [
        {
          "length": 20,
          "start": 5845
        },
        {
          "length": 20,
          "start": 6919
        },
        {
          "length": 20,
          "start": 7474
        },
        {
          "length": 20,
          "start": 8403
        },
        {
          "length": 20,
          "start": 9564
        },
        {
          "length": 20,
          "start": 11262
        }
      ]
    },
    "contracts/protocol/libraries/logic/SupplyLogic.sol": {
      "SupplyLogic": [
        {
          "length": 20,
          "start": 3233
        },
        {
          "length": 20,
          "start": 5029
        },
        {
          "length": 20,
          "start": 5671
        },
        {
          "length": 20,
          "start": 5883
        },
        {
          "length": 20,
          "start": 10533
        }
      ]
    }
  }
}