{
  "_format": "hh-sol-artifact-1",
  "contractName": "PoolConfigurator",
  "sourceName": "contracts/protocol/pool/PoolConfigurator.sol",
  "abi": [
    {
      "anonymous": false,
      "inputs": [
        {
          "indexed": true,
          "internalType": "address",
          "name": "asset",
          "type": "address"
        },
        {
          "indexed": true,
          "internalType": "address",
          "name": "proxy",
          "type": "address"
        },
        {
          "indexed": true,
          "internalType": "address",
          "name": "implementation",
          "type": "address"
        }
      ],
      "name": "ATokenUpgraded",
      "type": "event"
    },
    {
      "anonymous": false,
      "inputs": [
        {
          "indexed": true,
          "internalType": "address",
          "name": "asset",
          "type": "address"
        },
        {
          "indexed": false,
          "internalType": "uint256",
          "name": "oldBorrowCap",
          "type": "uint256"
        },
        {
          "indexed": false,
          "internalType": "uint256",
          "name": "newBorrowCap",
          "type": "uint256"
        }
      ],
      "name": "BorrowCapChanged",
      "type": "event"
    },
    {
      "anonymous": false,
      "inputs": [
        {
          "indexed": false,
          "internalType": "address",
          "name": "asset",
          "type": "address"
        },
        {
          "indexed": false,
          "internalType": "bool",
          "name": "borrowable",
          "type": "bool"
        }
      ],
      "name": "BorrowableInIsolationChanged",
      "type": "event"
    },
    {
      "anonymous": false,
      "inputs": [
        {
          "indexed": false,
          "internalType": "uint256",
          "name": "oldBridgeProtocolFee",
          "type": "uint256"
        },
        {
          "indexed": false,
          "internalType": "uint256",
          "name": "newBridgeProtocolFee",
          "type": "uint256"
        }
      ],
      "name": "BridgeProtocolFeeUpdated",
      "type": "event"
    },
    {
      "anonymous": false,
      "inputs": [
        {
          "indexed": true,
          "internalType": "address",
          "name": "asset",
          "type": "address"
        },
        {
          "indexed": false,
          "internalType": "uint256",
          "name": "ltv",
          "type": "uint256"
        },
        {
          "indexed": false,
          "internalType": "uint256",
          "name": "liquidationThreshold",
          "type": "uint256"
        },
        {
          "indexed": false,
          "internalType": "uint256",
          "name": "liquidationBonus",
          "type": "uint256"
        }
      ],
      "name": "CollateralConfigurationChanged",
      "type": "event"
    },
    {
      "anonymous": false,
      "inputs": [
        {
          "indexed": true,
          "internalType": "address",
          "name": "asset",
          "type": "address"
        },
        {
          "indexed": false,
          "internalType": "uint256",
          "name": "oldDebtCeiling",
          "type": "uint256"
        },
        {
          "indexed": false,
          "internalType": "uint256",
          "name": "newDebtCeiling",
          "type": "uint256"
        }
      ],
      "name": "DebtCeilingChanged",
      "type": "event"
    },
    {
      "anonymous": false,
      "inputs": [
        {
          "indexed": true,
          "internalType": "address",
          "name": "asset",
          "type": "address"
        },
        {
          "indexed": false,
          "internalType": "uint8",
          "name": "oldCategoryId",
          "type": "uint8"
        },
        {
          "indexed": false,
          "internalType": "uint8",
          "name": "newCategoryId",
          "type": "uint8"
        }
      ],
      "name": "EModeAssetCategoryChanged",
      "type": "event"
    },
    {
      "anonymous": false,
      "inputs": [
        {
          "indexed": true,
          "internalType": "uint8",
          "name": "categoryId",
          "type": "uint8"
        },
        {
          "indexed": false,
          "internalType": "uint256",
          "name": "ltv",
          "type": "uint256"
        },
        {
          "indexed": false,
          "internalType": "uint256",
          "name": "liquidationThreshold",
          "type": "uint256"
        },
        {
          "indexed": false,
          "internalType": "uint256",
          "name": "liquidationBonus",
          "type": "uint256"
        },
        {
          "indexed": false,
          "internalType": "address",
          "name": "oracle",
          "type": "address"
        },
        {
          "indexed": false,
          "internalType": "string",
          "name": "label",
          "type": "string"
        }
      ],
      "name": "EModeCategoryAdded",
      "type": "event"
    },
    {
      "anonymous": false,
      "inputs": [
        {
          "indexed": true,
          "internalType": "address",
          "name": "asset",
          "type": "address"
        },
        {
          "indexed": false,
          "internalType": "uint256",
          "name": "oldFee",
          "type": "uint256"
        },
        {
          "indexed": false,
          "internalType": "uint256",
          "name": "newFee",
          "type": "uint256"
        }
      ],
      "name": "LiquidationProtocolFeeChanged",
      "type": "event"
    },
    {
      "anonymous": false,
      "inputs": [
        {
          "indexed": true,
          "internalType": "address",
          "name": "asset",
          "type": "address"
        },
        {
          "indexed": false,
          "internalType": "bool",
          "name": "active",
          "type": "bool"
        }
      ],
      "name": "ReserveActive",
      "type": "event"
    },
    {
      "anonymous": false,
      "inputs": [
        {
          "indexed": true,
          "internalType": "address",
          "name": "asset",
          "type": "address"
        },
        {
          "indexed": false,
          "internalType": "bool",
          "name": "enabled",
          "type": "bool"
        }
      ],
      "name": "ReserveBorrowing",
      "type": "event"
    },
    {
      "anonymous": false,
      "inputs": [
        {
          "indexed": true,
          "internalType": "address",
          "name": "asset",
          "type": "address"
        }
      ],
      "name": "ReserveDropped",
      "type": "event"
    },
    {
      "anonymous": false,
      "inputs": [
        {
          "indexed": true,
          "internalType": "address",
          "name": "asset",
          "type": "address"
        },
        {
          "indexed": false,
          "internalType": "uint256",
          "name": "oldReserveFactor",
          "type": "uint256"
        },
        {
          "indexed": false,
          "internalType": "uint256",
          "name": "newReserveFactor",
          "type": "uint256"
        }
      ],
      "name": "ReserveFactorChanged",
      "type": "event"
    },
    {
      "anonymous": false,
      "inputs": [
        {
          "indexed": true,
          "internalType": "address",
          "name": "asset",
          "type": "address"
        },
        {
          "indexed": false,
          "internalType": "bool",
          "name": "frozen",
          "type": "bool"
        }
      ],
      "name": "ReserveFrozen",
      "type": "event"
    },
    {
      "anonymous": false,
      "inputs": [
        {
          "indexed": true,
          "internalType": "address",
          "name": "asset",
          "type": "address"
        },
        {
          "indexed": true,
          "internalType": "address",
          "name": "aToken",
          "type": "address"
        },
        {
          "indexed": false,
          "internalType": "address",
          "name": "stableDebtToken",
          "type": "address"
        },
        {
          "indexed": false,
          "internalType": "address",
          "name": "variableDebtToken",
          "type": "address"
        },
        {
          "indexed": false,
          "internalType": "address",
          "name": "interestRateStrategyAddress",
          "type": "address"
        }
      ],
      "name": "ReserveInitialized",
      "type": "event"
    },
    {
      "anonymous": false,
      "inputs": [
        {
          "indexed": true,
          "internalType": "address",
          "name": "asset",
          "type": "address"
        },
        {
          "indexed": false,
          "internalType": "address",
          "name": "oldStrategy",
          "type": "address"
        },
        {
          "indexed": false,
          "internalType": "address",
          "name": "newStrategy",
          "type": "address"
        }
      ],
      "name": "ReserveInterestRateStrategyChanged",
      "type": "event"
    },
    {
      "anonymous": false,
      "inputs": [
        {
          "indexed": true,
          "internalType": "address",
          "name": "asset",
          "type": "address"
        },
        {
          "indexed": false,
          "internalType": "bool",
          "name": "paused",
          "type": "bool"
        }
      ],
      "name": "ReservePaused",
      "type": "event"
    },
    {
      "anonymous": false,
      "inputs": [
        {
          "indexed": true,
          "internalType": "address",
          "name": "asset",
          "type": "address"
        },
        {
          "indexed": false,
          "internalType": "bool",
          "name": "enabled",
          "type": "bool"
        }
      ],
      "name": "ReserveStableRateBorrowing",
      "type": "event"
    },
    {
      "anonymous": false,
      "inputs": [
        {
          "indexed": true,
          "internalType": "address",
          "name": "asset",
          "type": "address"
        },
        {
          "indexed": false,
          "internalType": "bool",
          "name": "oldState",
          "type": "bool"
        },
        {
          "indexed": false,
          "internalType": "bool",
          "name": "newState",
          "type": "bool"
        }
      ],
      "name": "SiloedBorrowingChanged",
      "type": "event"
    },
    {
      "anonymous": false,
      "inputs": [
        {
          "indexed": true,
          "internalType": "address",
          "name": "asset",
          "type": "address"
        },
        {
          "indexed": true,
          "internalType": "address",
          "name": "proxy",
          "type": "address"
        },
        {
          "indexed": true,
          "internalType": "address",
          "name": "implementation",
          "type": "address"
        }
      ],
      "name": "StableDebtTokenUpgraded",
      "type": "event"
    },
    {
      "anonymous": false,
      "inputs": [
        {
          "indexed": true,
          "internalType": "address",
          "name": "asset",
          "type": "address"
        },
        {
          "indexed": false,
          "internalType": "uint256",
          "name": "oldSupplyCap",
          "type": "uint256"
        },
        {
          "indexed": false,
          "internalType": "uint256",
          "name": "newSupplyCap",
          "type": "uint256"
        }
      ],
      "name": "SupplyCapChanged",
      "type": "event"
    },
    {
      "anonymous": false,
      "inputs": [
        {
          "indexed": true,
          "internalType": "address",
          "name": "asset",
          "type": "address"
        },
        {
          "indexed": false,
          "internalType": "uint256",
          "name": "oldUnbackedMintCap",
          "type": "uint256"
        },
        {
          "indexed": false,
          "internalType": "uint256",
          "name": "newUnbackedMintCap",
          "type": "uint256"
        }
      ],
      "name": "UnbackedMintCapChanged",
      "type": "event"
    },
    {
      "anonymous": false,
      "inputs": [
        {
          "indexed": true,
          "internalType": "address",
          "name": "asset",
          "type": "address"
        },
        {
          "indexed": true,
          "internalType": "address",
          "name": "proxy",
          "type": "address"
        },
        {
          "indexed": true,
          "internalType": "address",
          "name": "implementation",
          "type": "address"
        }
      ],
      "name": "VariableDebtTokenUpgraded",
      "type": "event"
    },
    {
      "inputs": [],
      "name": "CONFIGURATOR_REVISION",
      "outputs": [
        {
          "internalType": "uint256",
          "name": "",
          "type": "uint256"
        }
      ],
      "stateMutability": "view",
      "type": "function"
    },
    {
      "inputs": [
        {
          "internalType": "address",
          "name": "asset",
          "type": "address"
        },
        {
          "internalType": "uint256",
          "name": "ltv",
          "type": "uint256"
        },
        {
          "internalType": "uint256",
          "name": "liquidationThreshold",
          "type": "uint256"
        },
        {
          "internalType": "uint256",
          "name": "liquidationBonus",
          "type": "uint256"
        }
      ],
      "name": "configureReserveAsCollateral",
      "outputs": [],
      "stateMutability": "nonpayable",
      "type": "function"
    },
    {
      "inputs": [
        {
          "internalType": "address",
          "name": "asset",
          "type": "address"
        }
      ],
      "name": "dropReserve",
      "outputs": [],
      "stateMutability": "nonpayable",
      "type": "function"
    },
    {
      "inputs": [
        {
          "components": [
            {
              "internalType": "address",
              "name": "aTokenImpl",
              "type": "address"
            },
            {
              "internalType": "address",
              "name": "stableDebtTokenImpl",
              "type": "address"
            },
            {
              "internalType": "address",
              "name": "variableDebtTokenImpl",
              "type": "address"
            },
            {
              "internalType": "uint8",
              "name": "underlyingAssetDecimals",
              "type": "uint8"
            },
            {
              "internalType": "address",
              "name": "interestRateStrategyAddress",
              "type": "address"
            },
            {
              "internalType": "address",
              "name": "underlyingAsset",
              "type": "address"
            },
            {
              "internalType": "address",
              "name": "treasury",
              "type": "address"
            },
            {
              "internalType": "address",
              "name": "incentivesController",
              "type": "address"
            },
            {
              "internalType": "string",
              "name": "aTokenName",
              "type": "string"
            },
            {
              "internalType": "string",
              "name": "aTokenSymbol",
              "type": "string"
            },
            {
              "internalType": "string",
              "name": "variableDebtTokenName",
              "type": "string"
            },
            {
              "internalType": "string",
              "name": "variableDebtTokenSymbol",
              "type": "string"
            },
            {
              "internalType": "string",
              "name": "stableDebtTokenName",
              "type": "string"
            },
            {
              "internalType": "string",
              "name": "stableDebtTokenSymbol",
              "type": "string"
            },
            {
              "internalType": "bytes",
              "name": "params",
              "type": "bytes"
            }
          ],
          "internalType": "struct ConfiguratorInputTypes.InitReserveInput[]",
          "name": "input",
          "type": "tuple[]"
        }
      ],
      "name": "initReserves",
      "outputs": [],
      "stateMutability": "nonpayable",
      "type": "function"
    },
    {
      "inputs": [
        {
          "internalType": "contract IPoolAddressesProvider",
          "name": "provider",
          "type": "address"
        }
      ],
      "name": "initialize",
      "outputs": [],
      "stateMutability": "nonpayable",
      "type": "function"
    },
    {
      "inputs": [
        {
          "internalType": "address",
          "name": "asset",
          "type": "address"
        },
        {
          "internalType": "uint8",
          "name": "newCategoryId",
          "type": "uint8"
        }
      ],
      "name": "setAssetEModeCategory",
      "outputs": [],
      "stateMutability": "nonpayable",
      "type": "function"
    },
    {
      "inputs": [
        {
          "internalType": "address",
          "name": "asset",
          "type": "address"
        },
        {
          "internalType": "uint256",
          "name": "newBorrowCap",
          "type": "uint256"
        }
      ],
      "name": "setBorrowCap",
      "outputs": [],
      "stateMutability": "nonpayable",
      "type": "function"
    },
    {
      "inputs": [
        {
          "internalType": "address",
          "name": "asset",
          "type": "address"
        },
        {
          "internalType": "bool",
          "name": "borrowable",
          "type": "bool"
        }
      ],
      "name": "setBorrowableInIsolation",
      "outputs": [],
      "stateMutability": "nonpayable",
      "type": "function"
    },
    {
      "inputs": [
        {
          "internalType": "address",
          "name": "asset",
          "type": "address"
        },
        {
          "internalType": "uint256",
          "name": "newDebtCeiling",
          "type": "uint256"
        }
      ],
      "name": "setDebtCeiling",
      "outputs": [],
      "stateMutability": "nonpayable",
      "type": "function"
    },
    {
      "inputs": [
        {
          "internalType": "uint8",
          "name": "categoryId",
          "type": "uint8"
        },
        {
          "internalType": "uint16",
          "name": "ltv",
          "type": "uint16"
        },
        {
          "internalType": "uint16",
          "name": "liquidationThreshold",
          "type": "uint16"
        },
        {
          "internalType": "uint16",
          "name": "liquidationBonus",
          "type": "uint16"
        },
        {
          "internalType": "address",
          "name": "oracle",
          "type": "address"
        },
        {
          "internalType": "string",
          "name": "label",
          "type": "string"
        }
      ],
      "name": "setEModeCategory",
      "outputs": [],
      "stateMutability": "nonpayable",
      "type": "function"
    },
    {
      "inputs": [
        {
          "internalType": "address",
          "name": "asset",
          "type": "address"
        },
        {
          "internalType": "uint256",
          "name": "newFee",
          "type": "uint256"
        }
      ],
      "name": "setLiquidationProtocolFee",
      "outputs": [],
      "stateMutability": "nonpayable",
      "type": "function"
    },
    {
      "inputs": [
        {
          "internalType": "bool",
          "name": "paused",
          "type": "bool"
        }
      ],
      "name": "setPoolPause",
      "outputs": [],
      "stateMutability": "nonpayable",
      "type": "function"
    },
    {
      "inputs": [
        {
          "internalType": "address",
          "name": "asset",
          "type": "address"
        },
        {
          "internalType": "bool",
          "name": "active",
          "type": "bool"
        }
      ],
      "name": "setReserveActive",
      "outputs": [],
      "stateMutability": "nonpayable",
      "type": "function"
    },
    {
      "inputs": [
        {
          "internalType": "address",
          "name": "asset",
          "type": "address"
        },
        {
          "internalType": "bool",
          "name": "enabled",
          "type": "bool"
        }
      ],
      "name": "setReserveBorrowing",
      "outputs": [],
      "stateMutability": "nonpayable",
      "type": "function"
    },
    {
      "inputs": [
        {
          "internalType": "address",
          "name": "asset",
          "type": "address"
        },
        {
          "internalType": "uint256",
          "name": "newReserveFactor",
          "type": "uint256"
        }
      ],
      "name": "setReserveFactor",
      "outputs": [],
      "stateMutability": "nonpayable",
      "type": "function"
    },
    {
      "inputs": [
        {
          "internalType": "address",
          "name": "asset",
          "type": "address"
        },
        {
          "internalType": "bool",
          "name": "freeze",
          "type": "bool"
        }
      ],
      "name": "setReserveFreeze",
      "outputs": [],
      "stateMutability": "nonpayable",
      "type": "function"
    },
    {
      "inputs": [
        {
          "internalType": "address",
          "name": "asset",
          "type": "address"
        },
        {
          "internalType": "address",
          "name": "newRateStrategyAddress",
          "type": "address"
        }
      ],
      "name": "setReserveInterestRateStrategyAddress",
      "outputs": [],
      "stateMutability": "nonpayable",
      "type": "function"
    },
    {
      "inputs": [
        {
          "internalType": "address",
          "name": "asset",
          "type": "address"
        },
        {
          "internalType": "bool",
          "name": "paused",
          "type": "bool"
        }
      ],
      "name": "setReservePause",
      "outputs": [],
      "stateMutability": "nonpayable",
      "type": "function"
    },
    {
      "inputs": [
        {
          "internalType": "address",
          "name": "asset",
          "type": "address"
        },
        {
          "internalType": "bool",
          "name": "enabled",
          "type": "bool"
        }
      ],
      "name": "setReserveStableRateBorrowing",
      "outputs": [],
      "stateMutability": "nonpayable",
      "type": "function"
    },
    {
      "inputs": [
        {
          "internalType": "address",
          "name": "asset",
          "type": "address"
        },
        {
          "internalType": "bool",
          "name": "newSiloed",
          "type": "bool"
        }
      ],
      "name": "setSiloedBorrowing",
      "outputs": [],
      "stateMutability": "nonpayable",
      "type": "function"
    },
    {
      "inputs": [
        {
          "internalType": "address",
          "name": "asset",
          "type": "address"
        },
        {
          "internalType": "uint256",
          "name": "newSupplyCap",
          "type": "uint256"
        }
      ],
      "name": "setSupplyCap",
      "outputs": [],
      "stateMutability": "nonpayable",
      "type": "function"
    },
    {
      "inputs": [
        {
          "internalType": "address",
          "name": "asset",
          "type": "address"
        },
        {
          "internalType": "uint256",
          "name": "newUnbackedMintCap",
          "type": "uint256"
        }
      ],
      "name": "setUnbackedMintCap",
      "outputs": [],
      "stateMutability": "nonpayable",
      "type": "function"
    },
    {
      "inputs": [
        {
          "components": [
            {
              "internalType": "address",
              "name": "asset",
              "type": "address"
            },
            {
              "internalType": "address",
              "name": "treasury",
              "type": "address"
            },
            {
              "internalType": "address",
              "name": "incentivesController",
              "type": "address"
            },
            {
              "internalType": "string",
              "name": "name",
              "type": "string"
            },
            {
              "internalType": "string",
              "name": "symbol",
              "type": "string"
            },
            {
              "internalType": "address",
              "name": "implementation",
              "type": "address"
            },
            {
              "internalType": "bytes",
              "name": "params",
              "type": "bytes"
            }
          ],
          "internalType": "struct ConfiguratorInputTypes.UpdateATokenInput",
          "name": "input",
          "type": "tuple"
        }
      ],
      "name": "updateAToken",
      "outputs": [],
      "stateMutability": "nonpayable",
      "type": "function"
    },
    {
      "inputs": [
        {
          "internalType": "uint256",
          "name": "newBridgeProtocolFee",
          "type": "uint256"
        }
      ],
      "name": "updateBridgeProtocolFee",
      "outputs": [],
      "stateMutability": "nonpayable",
      "type": "function"
    },
    {
      "inputs": [
        {
          "components": [
            {
              "internalType": "address",
              "name": "asset",
              "type": "address"
            },
            {
              "internalType": "address",
              "name": "incentivesController",
              "type": "address"
            },
            {
              "internalType": "string",
              "name": "name",
              "type": "string"
            },
            {
              "internalType": "string",
              "name": "symbol",
              "type": "string"
            },
            {
              "internalType": "address",
              "name": "implementation",
              "type": "address"
            },
            {
              "internalType": "bytes",
              "name": "params",
              "type": "bytes"
            }
          ],
          "internalType": "struct ConfiguratorInputTypes.UpdateDebtTokenInput",
          "name": "input",
          "type": "tuple"
        }
      ],
      "name": "updateStableDebtToken",
      "outputs": [],
      "stateMutability": "nonpayable",
      "type": "function"
    },
    {
      "inputs": [
        {
          "components": [
            {
              "internalType": "address",
              "name": "asset",
              "type": "address"
            },
            {
              "internalType": "address",
              "name": "incentivesController",
              "type": "address"
            },
            {
              "internalType": "string",
              "name": "name",
              "type": "string"
            },
            {
              "internalType": "string",
              "name": "symbol",
              "type": "string"
            },
            {
              "internalType": "address",
              "name": "implementation",
              "type": "address"
            },
            {
              "internalType": "bytes",
              "name": "params",
              "type": "bytes"
            }
          ],
          "internalType": "struct ConfiguratorInputTypes.UpdateDebtTokenInput",
          "name": "input",
          "type": "tuple"
        }
      ],
      "name": "updateVariableDebtToken",
      "outputs": [],
      "stateMutability": "nonpayable",
      "type": "function"
    }
  ],
  "bytecode": "0x60806040526000805534801561001457600080fd5b5061575380620000256000396000f3fe608060405234801561001057600080fd5b50600436106101ae5760003560e01c80637af635a6116100ee578063aeb4fcc111610097578063c19d61e411610071578063c19d61e41461035e578063c4d66de814610371578063d14a098314610384578063d4fe3f991461039757600080fd5b8063aeb4fcc114610325578063b736aaeb14610338578063bb01c37c1461034b57600080fd5b806396e957c4116100c857806396e957c4146102ec578063a7fa83b7146102ff578063ad4e64321461031257600080fd5b80637af635a6146102ac5780637c4e560b146102c65780638a751a60146102d957600080fd5b806348d9fba91161015b57806363c9b8601161013557806363c9b86014610260578063682cf264146102735780637626cde3146102865780637641f3d91461029957600080fd5b806348d9fba9146102275780634b4e67531461023a578063571f03e51461024d57600080fd5b806326d2cec21161018c57806326d2cec2146101ee5780633036b4391461020157806338ae0cc31461021457600080fd5b806302fb45e6146101b3578063145f5892146101c85780631d2118f9146101db575b600080fd5b6101c66101c136600461468e565b6103aa565b005b6101c66101d6366004614738565b61047b565b6101c66101e9366004614764565b610615565b6101c66101fc366004614738565b61079a565b6101c661020f36600461479d565b6109a2565b6101c66102223660046147c4565b610b73565b6101c66102353660046147c4565b610cfe565b6101c6610248366004614738565b610e8a565b6101c661025b366004614738565b611089565b6101c661026e3660046147f2565b611219565b6101c66102813660046147c4565b6112ea565b6101c6610294366004614816565b6114e9565b6101c66102a7366004614851565b61158e565b6102b4600181565b60405190815260200160405180910390f35b6101c66102d436600461486e565b6116e0565b6101c66102e73660046147c4565b611a6a565b6101c66102fa3660046147c4565b611c6d565b6101c661030d3660046147c4565b611dec565b6101c6610320366004614816565b611f99565b6101c6610333366004614738565b61200b565b6101c66103463660046147c4565b612238565b6101c66103593660046148a9565b6123c5565b6101c661036c366004614905565b612437565b6101c661037f3660046147f2565b612aab565b6101c6610392366004614738565b612cc4565b6101c66103a53660046149d3565b612e54565b6103b2613133565b60355473ffffffffffffffffffffffffffffffffffffffff1660005b828110156104755773__$3ddc574512022f331a6a4c7e4bbb5c67b6$__63df59b8b28386868581811061040357610403614a08565b90506020028101906104159190614a37565b6040518363ffffffff1660e01b8152600401610432929190614b29565b60006040518083038186803b15801561044a57600080fd5b505af415801561045e573d6000803e3d6000fd5b50505050808061046d90614dd8565b9150506103ce565b50505050565b61048361335e565b6035546040517fc44b11f700000000000000000000000000000000000000000000000000000000815273ffffffffffffffffffffffffffffffffffffffff8481166004830152600092169063c44b11f790602401602060405180830381865afa1580156104f4573d6000803e3d6000fd5b505050506040513d601f19601f820116820180604052508101906105189190614f45565b805190915060b01c640fffffffff166105318284613585565b6035546040517ff51e435b00000000000000000000000000000000000000000000000000000000815273ffffffffffffffffffffffffffffffffffffffff8681166004830152845160248301529091169063f51e435b90604401600060405180830381600087803b1580156105a557600080fd5b505af11580156105b9573d6000803e3d6000fd5b5050604080518481526020810187905273ffffffffffffffffffffffffffffffffffffffff881693507f09808b1fc5abde94edf02fdde393bea0d2e4795999ba31695472848638b5c29f9250015b60405180910390a250505050565b61061d61335e565b6035546040517f35ea6a7500000000000000000000000000000000000000000000000000000000815273ffffffffffffffffffffffffffffffffffffffff848116600483015260009216906335ea6a75906024016101e060405180830381865afa15801561068f573d6000803e3d6000fd5b505050506040513d601f19601f820116820180604052508101906106b39190614fac565b6101608101516035546040517f1d2118f900000000000000000000000000000000000000000000000000000000815273ffffffffffffffffffffffffffffffffffffffff8781166004830152868116602483015293945091921690631d2118f990604401600060405180830381600087803b15801561073157600080fd5b505af1158015610745573d6000803e3d6000fd5b50506040805173ffffffffffffffffffffffffffffffffffffffff85811682528781166020830152881693507fdb8dada53709ce4988154324196790c2e4a60c377e1256790946f83b87db3c33925001610607565b6107a261335e565b60408051808201909152600281527f3730000000000000000000000000000000000000000000000000000000000000602082015261271082111561081c576040517f08c379a00000000000000000000000000000000000000000000000000000000081526004016108139190615145565b60405180910390fd5b506035546040517fc44b11f700000000000000000000000000000000000000000000000000000000815273ffffffffffffffffffffffffffffffffffffffff8481166004830152600092169063c44b11f790602401602060405180830381865afa15801561088e573d6000803e3d6000fd5b505050506040513d601f19601f820116820180604052508101906108b29190614f45565b805190915060981c61ffff166108c88284613629565b6035546040517ff51e435b00000000000000000000000000000000000000000000000000000000815273ffffffffffffffffffffffffffffffffffffffff8681166004830152845160248301529091169063f51e435b90604401600060405180830381600087803b15801561093c57600080fd5b505af1158015610950573d6000803e3d6000fd5b5050604080518481526020810187905273ffffffffffffffffffffffffffffffffffffffff881693507fb5b0a963825337808b6e3154de8e98027595a5cad4219bb3a9bc55b192f4b391925001610607565b6109aa6136ca565b60408051808201909152600281527f32320000000000000000000000000000000000000000000000000000000000006020820152612710821115610a1b576040517f08c379a00000000000000000000000000000000000000000000000000000000081526004016108139190615145565b50603554604080517f272d9072000000000000000000000000000000000000000000000000000000008152905160009273ffffffffffffffffffffffffffffffffffffffff169163272d90729160048083019260209291908290030181865afa158015610a8c573d6000803e3d6000fd5b505050506040513d601f19601f82011682018060405250810190610ab09190615158565b6035546040517f3036b4390000000000000000000000000000000000000000000000000000000081526004810185905291925073ffffffffffffffffffffffffffffffffffffffff1690633036b43990602401600060405180830381600087803b158015610b1d57600080fd5b505af1158015610b31573d6000803e3d6000fd5b505060408051848152602081018690527f30b17cb587a89089d003457c432f73e22aeee93de425e92224ba01080260ecd9935001905060405180910390a15050565b610b7b61335e565b6035546040517fc44b11f700000000000000000000000000000000000000000000000000000000815273ffffffffffffffffffffffffffffffffffffffff8481166004830152600092169063c44b11f790602401602060405180830381865afa158015610bec573d6000803e3d6000fd5b505050506040513d601f19601f82011682018060405250810190610c109190614f45565b9050610c1c818361385d565b6035546040517ff51e435b00000000000000000000000000000000000000000000000000000000815273ffffffffffffffffffffffffffffffffffffffff8581166004830152835160248301529091169063f51e435b90604401600060405180830381600087803b158015610c9057600080fd5b505af1158015610ca4573d6000803e3d6000fd5b50506040805173ffffffffffffffffffffffffffffffffffffffff8716815285151560208201527f74adf6aaf58c08bc4f993640385e136522375ea3d1589a10d02adbb906c67d1c935001905060405180910390a1505050565b610d066138a2565b6035546040517fc44b11f700000000000000000000000000000000000000000000000000000000815273ffffffffffffffffffffffffffffffffffffffff8481166004830152600092169063c44b11f790602401602060405180830381865afa158015610d77573d6000803e3d6000fd5b505050506040513d601f19601f82011682018060405250810190610d9b9190614f45565b9050610da78183613ac9565b6035546040517ff51e435b00000000000000000000000000000000000000000000000000000000815273ffffffffffffffffffffffffffffffffffffffff8581166004830152835160248301529091169063f51e435b90604401600060405180830381600087803b158015610e1b57600080fd5b505af1158015610e2f573d6000803e3d6000fd5b505050508273ffffffffffffffffffffffffffffffffffffffff167fe188d542a5f11925d3a3af33703cdd30a43cb3e8066a3cf68b1b57f61a5a94b583604051610e7d911515815260200190565b60405180910390a2505050565b610e9261335e565b60408051808201909152600281527f36370000000000000000000000000000000000000000000000000000000000006020820152612710821115610f03576040517f08c379a00000000000000000000000000000000000000000000000000000000081526004016108139190615145565b506035546040517fc44b11f700000000000000000000000000000000000000000000000000000000815273ffffffffffffffffffffffffffffffffffffffff8481166004830152600092169063c44b11f790602401602060405180830381865afa158015610f75573d6000803e3d6000fd5b505050506040513d601f19601f82011682018060405250810190610f999190614f45565b805190915060401c61ffff16610faf8284613b0e565b6035546040517ff51e435b00000000000000000000000000000000000000000000000000000000815273ffffffffffffffffffffffffffffffffffffffff8681166004830152845160248301529091169063f51e435b90604401600060405180830381600087803b15801561102357600080fd5b505af1158015611037573d6000803e3d6000fd5b5050604080518481526020810187905273ffffffffffffffffffffffffffffffffffffffff881693507fb46e2b82b0c2cf3d7d9dece53635e165c53e0eaa7a44f904d61a2b7174826aef925001610607565b61109161335e565b6035546040517fc44b11f700000000000000000000000000000000000000000000000000000000815273ffffffffffffffffffffffffffffffffffffffff8481166004830152600092169063c44b11f790602401602060405180830381865afa158015611102573d6000803e3d6000fd5b505050506040513d601f19601f820116820180604052508101906111269190614f45565b805190915060741c640fffffffff1661113f8284613baf565b6035546040517ff51e435b00000000000000000000000000000000000000000000000000000000815273ffffffffffffffffffffffffffffffffffffffff8681166004830152845160248301529091169063f51e435b90604401600060405180830381600087803b1580156111b357600080fd5b505af11580156111c7573d6000803e3d6000fd5b5050604080518481526020810187905273ffffffffffffffffffffffffffffffffffffffff881693507f0263602682188540a2d633561c0b4453b7d8566285e99f9f6018b8ef2facef49925001610607565b6112216136ca565b6035546040517f63c9b86000000000000000000000000000000000000000000000000000000000815273ffffffffffffffffffffffffffffffffffffffff8381166004830152909116906363c9b86090602401600060405180830381600087803b15801561128e57600080fd5b505af11580156112a2573d6000803e3d6000fd5b505060405173ffffffffffffffffffffffffffffffffffffffff841692507feeec4c06f7adad215cbdb4d2960896c83c26aedce02dde76d36fa28588d62da49150600090a250565b6112f261335e565b6035546040517fc44b11f700000000000000000000000000000000000000000000000000000000815273ffffffffffffffffffffffffffffffffffffffff8481166004830152600092169063c44b11f790602401602060405180830381865afa158015611363573d6000803e3d6000fd5b505050506040513d601f19601f820116820180604052508101906113879190614f45565b90508161140957805160408051808201909152600281527f38380000000000000000000000000000000000000000000000000000000000006020820152906708000000000000001615611407576040517f08c379a00000000000000000000000000000000000000000000000000000000081526004016108139190615145565b505b6114138183613c53565b6035546040517ff51e435b00000000000000000000000000000000000000000000000000000000815273ffffffffffffffffffffffffffffffffffffffff8581166004830152835160248301529091169063f51e435b90604401600060405180830381600087803b15801561148757600080fd5b505af115801561149b573d6000803e3d6000fd5b505050508273ffffffffffffffffffffffffffffffffffffffff167f2443ba28e8d1d88d531a3d90b981816a4f3b3c7f1fd4085c6029e81d1b7a570d83604051610e7d911515815260200190565b6114f16136ca565b6035546040517ff5b50e7000000000000000000000000000000000000000000000000000000000815273__$3ddc574512022f331a6a4c7e4bbb5c67b6$__9163f5b50e709161155b9173ffffffffffffffffffffffffffffffffffffffff16908590600401615171565b60006040518083038186803b15801561157357600080fd5b505af4158015611587573d6000803e3d6000fd5b5050505050565b611596613c98565b603554604080517fd1946dbc000000000000000000000000000000000000000000000000000000008152905160009273ffffffffffffffffffffffffffffffffffffffff169163d1946dbc91600480830192869291908290030181865afa158015611605573d6000803e3d6000fd5b505050506040513d6000823e601f3d9081017fffffffffffffffffffffffffffffffffffffffffffffffffffffffffffffffe016820160405261164b9190810190615276565b905060005b81518110156116db57600073ffffffffffffffffffffffffffffffffffffffff1682828151811061168357611683614a08565b602002602001015173ffffffffffffffffffffffffffffffffffffffff16146116c9576116c98282815181106116bb576116bb614a08565b602002602001015184610cfe565b806116d381614dd8565b915050611650565b505050565b6116e861335e565b60408051808201909152600281527f3230000000000000000000000000000000000000000000000000000000000000602082015282841115611757576040517f08c379a00000000000000000000000000000000000000000000000000000000081526004016108139190615145565b506035546040517fc44b11f700000000000000000000000000000000000000000000000000000000815273ffffffffffffffffffffffffffffffffffffffff8681166004830152600092169063c44b11f790602401602060405180830381865afa1580156117c9573d6000803e3d6000fd5b505050506040513d601f19601f820116820180604052508101906117ed9190614f45565b905082156118e95760408051808201909152600281527f323000000000000000000000000000000000000000000000000000000000000060208201526127108311611865576040517f08c379a00000000000000000000000000000000000000000000000000000000081526004016108139190615145565b506127106118738484613e2b565b11156040518060400160405280600281526020017f3230000000000000000000000000000000000000000000000000000000000000815250906118e3576040517f08c379a00000000000000000000000000000000000000000000000000000000081526004016108139190615145565b50611960565b60408051808201909152600281527f323000000000000000000000000000000000000000000000000000000000000060208201528215611956576040517f08c379a00000000000000000000000000000000000000000000000000000000081526004016108139190615145565b5061196085613e6e565b61196a818561401f565b61197481846140ba565b61197e818361415b565b6035546040517ff51e435b00000000000000000000000000000000000000000000000000000000815273ffffffffffffffffffffffffffffffffffffffff8781166004830152835160248301529091169063f51e435b90604401600060405180830381600087803b1580156119f257600080fd5b505af1158015611a06573d6000803e3d6000fd5b5050604080518781526020810187905290810185905273ffffffffffffffffffffffffffffffffffffffff881692507f637febbda9275aea2e85c0ff690444c8d87eb2e8339bbede9715abcc89cb0995915060600160405180910390a25050505050565b611a7261335e565b6035546040517fc44b11f700000000000000000000000000000000000000000000000000000000815273ffffffffffffffffffffffffffffffffffffffff8481166004830152600092169063c44b11f790602401602060405180830381865afa158015611ae3573d6000803e3d6000fd5b505050506040513d601f19601f82011682018060405250810190611b079190614f45565b90508115611b8d5780516704000000000000001615156040518060400160405280600281526020017f333000000000000000000000000000000000000000000000000000000000000081525090611b8b576040517f08c379a00000000000000000000000000000000000000000000000000000000081526004016108139190615145565b505b611b9781836141fc565b6035546040517ff51e435b00000000000000000000000000000000000000000000000000000000815273ffffffffffffffffffffffffffffffffffffffff8581166004830152835160248301529091169063f51e435b90604401600060405180830381600087803b158015611c0b57600080fd5b505af1158015611c1f573d6000803e3d6000fd5b505050508273ffffffffffffffffffffffffffffffffffffffff167f0b64d0941719acd363f1a6be3d8525d8ec9d71738f7445aabcd88d7939b472e783604051610e7d911515815260200190565b611c7561335e565b6035546040517fc44b11f700000000000000000000000000000000000000000000000000000000815273ffffffffffffffffffffffffffffffffffffffff8481166004830152600092169063c44b11f790602401602060405180830381865afa158015611ce6573d6000803e3d6000fd5b505050506040513d601f19601f82011682018060405250810190611d0a9190614f45565b9050611d168183614241565b6035546040517ff51e435b00000000000000000000000000000000000000000000000000000000815273ffffffffffffffffffffffffffffffffffffffff8581166004830152835160248301529091169063f51e435b90604401600060405180830381600087803b158015611d8a57600080fd5b505af1158015611d9e573d6000803e3d6000fd5b505050508273ffffffffffffffffffffffffffffffffffffffff167f0c4443d258a350d27dc50c378b2ebf165e6469725f786d21b30cab16823f558783604051610e7d911515815260200190565b611df461335e565b8015611e0357611e0382614286565b6035546040517fc44b11f700000000000000000000000000000000000000000000000000000000815273ffffffffffffffffffffffffffffffffffffffff8481166004830152600092169063c44b11f790602401602060405180830381865afa158015611e74573d6000803e3d6000fd5b505050506040513d601f19601f82011682018060405250810190611e989190614f45565b90506000611eb0825167400000000000000016151590565b9050611ebc828461441c565b6035546040517ff51e435b00000000000000000000000000000000000000000000000000000000815273ffffffffffffffffffffffffffffffffffffffff8681166004830152845160248301529091169063f51e435b90604401600060405180830381600087803b158015611f3057600080fd5b505af1158015611f44573d6000803e3d6000fd5b5050604080518415158152861515602082015273ffffffffffffffffffffffffffffffffffffffff881693507f842a280b07e8e502a9101f32a3b768ebaba3655556dd674f0831900861fc674b925001610607565b611fa16136ca565b6035546040517fb0f0935500000000000000000000000000000000000000000000000000000000815273__$3ddc574512022f331a6a4c7e4bbb5c67b6$__9163b0f093559161155b9173ffffffffffffffffffffffffffffffffffffffff16908590600401615171565b61201361335e565b6035546040517fc44b11f700000000000000000000000000000000000000000000000000000000815273ffffffffffffffffffffffffffffffffffffffff8481166004830152600092169063c44b11f790602401602060405180830381865afa158015612084573d6000803e3d6000fd5b505050506040513d601f19601f820116820180604052508101906120a89190614f45565b805190915060d41c64ffffffffff16806120c5576120c584613e6e565b6120cf8284614461565b6035546040517ff51e435b00000000000000000000000000000000000000000000000000000000815273ffffffffffffffffffffffffffffffffffffffff8681166004830152845160248301529091169063f51e435b90604401600060405180830381600087803b15801561214357600080fd5b505af1158015612157573d6000803e3d6000fd5b5050505082600014156121ea576035546040517fe43e88a100000000000000000000000000000000000000000000000000000000815273ffffffffffffffffffffffffffffffffffffffff86811660048301529091169063e43e88a190602401600060405180830381600087803b1580156121d157600080fd5b505af11580156121e5573d6000803e3d6000fd5b505050505b604080518281526020810185905273ffffffffffffffffffffffffffffffffffffffff8616917f6824a6c7fbc10d2979b1f1ccf2dd4ed0436541679a661dedb5c10bd4be8306829101610607565b6122406136ca565b8061224e5761224e82613e6e565b6035546040517fc44b11f700000000000000000000000000000000000000000000000000000000815273ffffffffffffffffffffffffffffffffffffffff8481166004830152600092169063c44b11f790602401602060405180830381865afa1580156122bf573d6000803e3d6000fd5b505050506040513d601f19601f820116820180604052508101906122e39190614f45565b90506122ef8183614505565b6035546040517ff51e435b00000000000000000000000000000000000000000000000000000000815273ffffffffffffffffffffffffffffffffffffffff8581166004830152835160248301529091169063f51e435b90604401600060405180830381600087803b15801561236357600080fd5b505af1158015612377573d6000803e3d6000fd5b505050508273ffffffffffffffffffffffffffffffffffffffff167fc36c7d11ba01a5869d52aa4a3781939dab851cbc9ee6e7fdcedc7d58898a3f1e83604051610e7d911515815260200190565b6123cd6136ca565b6035546040517fb13c96a800000000000000000000000000000000000000000000000000000000815273__$3ddc574512022f331a6a4c7e4bbb5c67b6$__9163b13c96a89161155b9173ffffffffffffffffffffffffffffffffffffffff16908590600401615328565b61243f61335e565b60408051808201909152600281527f3231000000000000000000000000000000000000000000000000000000000000602082015261ffff87166124af576040517f08c379a00000000000000000000000000000000000000000000000000000000081526004016108139190615145565b5060408051808201909152600281527f3231000000000000000000000000000000000000000000000000000000000000602082015261ffff8616612520576040517f08c379a00000000000000000000000000000000000000000000000000000000081526004016108139190615145565b508461ffff168661ffff1611156040518060400160405280600281526020017f32310000000000000000000000000000000000000000000000000000000000008152509061259b576040517f08c379a00000000000000000000000000000000000000000000000000000000081526004016108139190615145565b5060408051808201909152600281527f3231000000000000000000000000000000000000000000000000000000000000602082015261271061ffff861611612610576040517f08c379a00000000000000000000000000000000000000000000000000000000081526004016108139190615145565b5061271061262561ffff878116908716613e2b565b11156040518060400160405280600281526020017f323100000000000000000000000000000000000000000000000000000000000081525090612695576040517f08c379a00000000000000000000000000000000000000000000000000000000081526004016108139190615145565b50603554604080517fd1946dbc000000000000000000000000000000000000000000000000000000008152905160009273ffffffffffffffffffffffffffffffffffffffff169163d1946dbc91600480830192869291908290030181865afa158015612705573d6000803e3d6000fd5b505050506040513d6000823e601f3d9081017fffffffffffffffffffffffffffffffffffffffffffffffffffffffffffffffe016820160405261274b9190810190615276565b905060005b815181101561293357603554825160009173ffffffffffffffffffffffffffffffffffffffff169063c44b11f79085908590811061279057612790614a08565b60200260200101516040518263ffffffff1660e01b81526004016127d0919073ffffffffffffffffffffffffffffffffffffffff91909116815260200190565b602060405180830381865afa1580156127ed573d6000803e3d6000fd5b505050506040513d601f19601f820116820180604052508101906128119190614f45565b805190915060a81c60ff168a60ff16141561292057805161ffff168961ffff16116040518060400160405280600281526020017f3231000000000000000000000000000000000000000000000000000000000000815250906128a0576040517f08c379a00000000000000000000000000000000000000000000000000000000081526004016108139190615145565b50805160101c61ffff168861ffff16116040518060400160405280600281526020017f32310000000000000000000000000000000000000000000000000000000000008152509061291e576040517f08c379a00000000000000000000000000000000000000000000000000000000081526004016108139190615145565b505b508061292b81614dd8565b915050612750565b50603560009054906101000a900473ffffffffffffffffffffffffffffffffffffffff1673ffffffffffffffffffffffffffffffffffffffff1663d579ea7d896040518060a001604052808b61ffff1681526020018a61ffff1681526020018961ffff1681526020018873ffffffffffffffffffffffffffffffffffffffff16815260200187878080601f01602080910402602001604051908101604052809392919081815260200183838082843760009201919091525050509152506040517fffffffff0000000000000000000000000000000000000000000000000000000060e085901b168152612a2a929190600401615467565b600060405180830381600087803b158015612a4457600080fd5b505af1158015612a58573d6000803e3d6000fd5b505050508760ff167f0acf8b4a3cace10779798a89a206a0ae73a71b63acdd3be2801d39c2ef7ab3cb888888888888604051612a99969594939291906154dd565b60405180910390a25050505050505050565b6001805460ff1680612abc5750303b155b80612ac8575060005481115b612b54576040517f08c379a000000000000000000000000000000000000000000000000000000000815260206004820152602e60248201527f436f6e747261637420696e7374616e63652068617320616c726561647920626560448201527f656e20696e697469616c697a65640000000000000000000000000000000000006064820152608401610813565b60015460ff16158015612b9157600180547fffffffffffffffffffffffffffffffffffffffffffffffffffffffffffffff00168117905560008290555b603480547fffffffffffffffffffffffff00000000000000000000000000000000000000001673ffffffffffffffffffffffffffffffffffffffff8516908117909155604080517f026b1d5f000000000000000000000000000000000000000000000000000000008152905163026b1d5f916004808201926020929091908290030181865afa158015612c28573d6000803e3d6000fd5b505050506040513d601f19601f82011682018060405250810190612c4c9190615529565b603580547fffffffffffffffffffffffff00000000000000000000000000000000000000001673ffffffffffffffffffffffffffffffffffffffff9290921691909117905580156116db57600180547fffffffffffffffffffffffffffffffffffffffffffffffffffffffffffffff00169055505050565b612ccc61335e565b6035546040517fc44b11f700000000000000000000000000000000000000000000000000000000815273ffffffffffffffffffffffffffffffffffffffff8481166004830152600092169063c44b11f790602401602060405180830381865afa158015612d3d573d6000803e3d6000fd5b505050506040513d601f19601f82011682018060405250810190612d619190614f45565b805190915060501c640fffffffff16612d7a828461454a565b6035546040517ff51e435b00000000000000000000000000000000000000000000000000000000815273ffffffffffffffffffffffffffffffffffffffff8681166004830152845160248301529091169063f51e435b90604401600060405180830381600087803b158015612dee57600080fd5b505af1158015612e02573d6000803e3d6000fd5b5050604080518481526020810187905273ffffffffffffffffffffffffffffffffffffffff881693507fc51aca575985d521c5072ad11549bad77013bb786d57f30f94b40ed8f8dc9bc4925001610607565b612e5c61335e565b6035546040517fc44b11f700000000000000000000000000000000000000000000000000000000815273ffffffffffffffffffffffffffffffffffffffff8481166004830152600092169063c44b11f790602401602060405180830381865afa158015612ecd573d6000803e3d6000fd5b505050506040513d601f19601f82011682018060405250810190612ef19190614f45565b905060ff82161561303b576035546040517f6c6f6ae100000000000000000000000000000000000000000000000000000000815260ff8416600482015260009173ffffffffffffffffffffffffffffffffffffffff1690636c6f6ae190602401600060405180830381865afa158015612f6e573d6000803e3d6000fd5b505050506040513d6000823e601f3d9081017fffffffffffffffffffffffffffffffffffffffffffffffffffffffffffffffe0168201604052612fb49190810190615546565b825190915060101c61ffff16816020015161ffff16116040518060400160405280600281526020017f313700000000000000000000000000000000000000000000000000000000000081525090613038576040517f08c379a00000000000000000000000000000000000000000000000000000000081526004016108139190615145565b50505b805160009060a81c60ff1690506130558260ff85166145ee565b6035546040517ff51e435b00000000000000000000000000000000000000000000000000000000815273ffffffffffffffffffffffffffffffffffffffff8681166004830152845160248301529091169063f51e435b90604401600060405180830381600087803b1580156130c957600080fd5b505af11580156130dd573d6000803e3d6000fd5b50506040805160ff80861682528716602082015273ffffffffffffffffffffffffffffffffffffffff881693507f5bb69795b6a2ea222d73a5f8939c23471a1f85a99c7ca43c207f1b71f10c6264925001610607565b603454604080517f707cd716000000000000000000000000000000000000000000000000000000008152905160009273ffffffffffffffffffffffffffffffffffffffff169163707cd7169160048083019260209291908290030181865afa1580156131a3573d6000803e3d6000fd5b505050506040513d601f19601f820116820180604052508101906131c79190615529565b6040517f13ee32e000000000000000000000000000000000000000000000000000000000815233600482015290915073ffffffffffffffffffffffffffffffffffffffff8216906313ee32e090602401602060405180830381865afa158015613234573d6000803e3d6000fd5b505050506040513d601f19601f820116820180604052508101906132589190615671565b806132ec57506040517f7be53ca100000000000000000000000000000000000000000000000000000000815233600482015273ffffffffffffffffffffffffffffffffffffffff821690637be53ca190602401602060405180830381865afa1580156132c8573d6000803e3d6000fd5b505050506040513d601f19601f820116820180604052508101906132ec9190615671565b6040518060400160405280600181526020017f35000000000000000000000000000000000000000000000000000000000000008152509061335a576040517f08c379a00000000000000000000000000000000000000000000000000000000081526004016108139190615145565b5050565b603454604080517f707cd716000000000000000000000000000000000000000000000000000000008152905160009273ffffffffffffffffffffffffffffffffffffffff169163707cd7169160048083019260209291908290030181865afa1580156133ce573d6000803e3d6000fd5b505050506040513d601f19601f820116820180604052508101906133f29190615529565b6040517f674b5e4d00000000000000000000000000000000000000000000000000000000815233600482015290915073ffffffffffffffffffffffffffffffffffffffff82169063674b5e4d90602401602060405180830381865afa15801561345f573d6000803e3d6000fd5b505050506040513d601f19601f820116820180604052508101906134839190615671565b8061351757506040517f7be53ca100000000000000000000000000000000000000000000000000000000815233600482015273ffffffffffffffffffffffffffffffffffffffff821690637be53ca190602401602060405180830381865afa1580156134f3573d6000803e3d6000fd5b505050506040513d601f19601f820116820180604052508101906135179190615671565b6040518060400160405280600181526020017f34000000000000000000000000000000000000000000000000000000000000008152509061335a576040517f08c379a00000000000000000000000000000000000000000000000000000000081526004016108139190615145565b60408051808201909152600281527f37320000000000000000000000000000000000000000000000000000000000006020820152640fffffffff8211156135f9576040517f08c379a00000000000000000000000000000000000000000000000000000000081526004016108139190615145565b5081517ffffffffffff000000000ffffffffffffffffffffffffffffffffffffffffffff1660b09190911b179052565b60408051808201909152600281527f3730000000000000000000000000000000000000000000000000000000000000602082015261ffff82111561369a576040517f08c379a00000000000000000000000000000000000000000000000000000000081526004016108139190615145565b5081517fffffffffffffffffffffff0000ffffffffffffffffffffffffffffffffffffff1660989190911b179052565b603454604080517f707cd716000000000000000000000000000000000000000000000000000000008152905160009273ffffffffffffffffffffffffffffffffffffffff169163707cd7169160048083019260209291908290030181865afa15801561373a573d6000803e3d6000fd5b505050506040513d601f19601f8201168201806040525081019061375e9190615529565b6040517f7be53ca100000000000000000000000000000000000000000000000000000000815233600482015290915073ffffffffffffffffffffffffffffffffffffffff821690637be53ca190602401602060405180830381865afa1580156137cb573d6000803e3d6000fd5b505050506040513d601f19601f820116820180604052508101906137ef9190615671565b6040518060400160405280600181526020017f31000000000000000000000000000000000000000000000000000000000000008152509061335a576040517f08c379a00000000000000000000000000000000000000000000000000000000081526004016108139190615145565b603d8161386b57600061386e565b60015b83517fffffffffffffffffffffffffffffffffffffffffffffffffdfffffffffffffff1660ff9190911690911b1790915250565b603454604080517f707cd716000000000000000000000000000000000000000000000000000000008152905160009273ffffffffffffffffffffffffffffffffffffffff169163707cd7169160048083019260209291908290030181865afa158015613912573d6000803e3d6000fd5b505050506040513d601f19601f820116820180604052508101906139369190615529565b6040517f7be53ca100000000000000000000000000000000000000000000000000000000815233600482015290915073ffffffffffffffffffffffffffffffffffffffff821690637be53ca190602401602060405180830381865afa1580156139a3573d6000803e3d6000fd5b505050506040513d601f19601f820116820180604052508101906139c79190615671565b80613a5b57506040517f2500f2b600000000000000000000000000000000000000000000000000000000815233600482015273ffffffffffffffffffffffffffffffffffffffff821690632500f2b690602401602060405180830381865afa158015613a37573d6000803e3d6000fd5b505050506040513d601f19601f82011682018060405250810190613a5b9190615671565b6040518060400160405280600181526020017f33000000000000000000000000000000000000000000000000000000000000008152509061335a576040517f08c379a00000000000000000000000000000000000000000000000000000000081526004016108139190615145565b603c81613ad7576000613ada565b60015b83517fffffffffffffffffffffffffffffffffffffffffffffffffefffffffffffffff1660ff9190911690911b1790915250565b60408051808201909152600281527f3637000000000000000000000000000000000000000000000000000000000000602082015261ffff821115613b7f576040517f08c379a00000000000000000000000000000000000000000000000000000000081526004016108139190615145565b5081517fffffffffffffffffffffffffffffffffffffffffffff0000ffffffffffffffff1660409190911b179052565b60408051808201909152600281527f36390000000000000000000000000000000000000000000000000000000000006020820152640fffffffff821115613c23576040517f08c379a00000000000000000000000000000000000000000000000000000000081526004016108139190615145565b5081517fffffffffffffffffffffffffff000000000fffffffffffffffffffffffffffff1660749190911b179052565b603a81613c61576000613c64565b60015b83517ffffffffffffffffffffffffffffffffffffffffffffffffffbffffffffffffff1660ff9190911690911b1790915250565b603454604080517f707cd716000000000000000000000000000000000000000000000000000000008152905160009273ffffffffffffffffffffffffffffffffffffffff169163707cd7169160048083019260209291908290030181865afa158015613d08573d6000803e3d6000fd5b505050506040513d601f19601f82011682018060405250810190613d2c9190615529565b6040517f2500f2b600000000000000000000000000000000000000000000000000000000815233600482015290915073ffffffffffffffffffffffffffffffffffffffff821690632500f2b690602401602060405180830381865afa158015613d99573d6000803e3d6000fd5b505050506040513d601f19601f82011682018060405250810190613dbd9190615671565b6040518060400160405280600181526020017f32000000000000000000000000000000000000000000000000000000000000008152509061335a576040517f08c379a00000000000000000000000000000000000000000000000000000000081526004016108139190615145565b600081157fffffffffffffffffffffffffffffffffffffffffffffffffffffffffffffec7783900484111517613e6057600080fd5b506127109102611388010490565b600080603460009054906101000a900473ffffffffffffffffffffffffffffffffffffffff1673ffffffffffffffffffffffffffffffffffffffff1663e860accb6040518163ffffffff1660e01b8152600401602060405180830381865afa158015613ede573d6000803e3d6000fd5b505050506040513d601f19601f82011682018060405250810190613f029190615529565b6040517f35ea6a7500000000000000000000000000000000000000000000000000000000815273ffffffffffffffffffffffffffffffffffffffff858116600483015291909116906335ea6a759060240161018060405180830381865afa158015613f71573d6000803e3d6000fd5b505050506040513d601f19601f82011682018060405250810190613f95919061568e565b5050505050505050509250925050806000148015613fb1575081155b6040518060400160405280600281526020017f313800000000000000000000000000000000000000000000000000000000000081525090610475576040517f08c379a00000000000000000000000000000000000000000000000000000000081526004016108139190615145565b60408051808201909152600281527f3633000000000000000000000000000000000000000000000000000000000000602082015261ffff821115614090576040517f08c379a00000000000000000000000000000000000000000000000000000000081526004016108139190615145565b5081517fffffffffffffffffffffffffffffffffffffffffffffffffffffffffffff000016179052565b60408051808201909152600281527f3634000000000000000000000000000000000000000000000000000000000000602082015261ffff82111561412b576040517f08c379a00000000000000000000000000000000000000000000000000000000081526004016108139190615145565b5081517fffffffffffffffffffffffffffffffffffffffffffffffffffffffff0000ffff1660109190911b179052565b60408051808201909152600281527f3635000000000000000000000000000000000000000000000000000000000000602082015261ffff8211156141cc576040517f08c379a00000000000000000000000000000000000000000000000000000000081526004016108139190615145565b5081517fffffffffffffffffffffffffffffffffffffffffffffffffffff0000ffffffff1660209190911b179052565b603b8161420a57600061420d565b60015b83517ffffffffffffffffffffffffffffffffffffffffffffffffff7ffffffffffffff1660ff9190911690911b1790915250565b60398161424f576000614252565b60015b83517ffffffffffffffffffffffffffffffffffffffffffffffffffdffffffffffffff1660ff9190911690911b1790915250565b603454604080517fe860accb000000000000000000000000000000000000000000000000000000008152905160009273ffffffffffffffffffffffffffffffffffffffff169163e860accb9160048083019260209291908290030181865afa1580156142f6573d6000803e3d6000fd5b505050506040513d601f19601f8201168201806040525081019061431a9190615529565b6040517f4d44ac4f00000000000000000000000000000000000000000000000000000000815273ffffffffffffffffffffffffffffffffffffffff84811660048301529190911690634d44ac4f90602401602060405180830381865afa158015614388573d6000803e3d6000fd5b505050506040513d601f19601f820116820180604052508101906143ac9190615158565b60408051808201909152600281527f3930000000000000000000000000000000000000000000000000000000000000602082015290915081156116db576040517f08c379a00000000000000000000000000000000000000000000000000000000081526004016108139190615145565b603e8161442a57600061442d565b60015b83517fffffffffffffffffffffffffffffffffffffffffffffffffbfffffffffffffff1660ff9190911690911b1790915250565b60408051808201909152600281527f3733000000000000000000000000000000000000000000000000000000000000602082015264ffffffffff8211156144d5576040517f08c379a00000000000000000000000000000000000000000000000000000000081526004016108139190615145565b5081517ff0000000000fffffffffffffffffffffffffffffffffffffffffffffffffffff1660d49190911b179052565b603881614513576000614516565b60015b83517ffffffffffffffffffffffffffffffffffffffffffffffffffeffffffffffffff1660ff9190911690911b1790915250565b60408051808201909152600281527f36380000000000000000000000000000000000000000000000000000000000006020820152640fffffffff8211156145be576040517f08c379a00000000000000000000000000000000000000000000000000000000081526004016108139190615145565b5081517ffffffffffffffffffffffffffffffffffff000000000ffffffffffffffffffff1660509190911b179052565b60408051808201909152600281527f3731000000000000000000000000000000000000000000000000000000000000602082015260ff82111561465e576040517f08c379a00000000000000000000000000000000000000000000000000000000081526004016108139190615145565b5081517fffffffffffffffffffff00ffffffffffffffffffffffffffffffffffffffffff1660a89190911b179052565b600080602083850312156146a157600080fd5b823567ffffffffffffffff808211156146b957600080fd5b818501915085601f8301126146cd57600080fd5b8135818111156146dc57600080fd5b8660208260051b85010111156146f157600080fd5b60209290920196919550909350505050565b73ffffffffffffffffffffffffffffffffffffffff8116811461472557600080fd5b50565b803561473381614703565b919050565b6000806040838503121561474b57600080fd5b823561475681614703565b946020939093013593505050565b6000806040838503121561477757600080fd5b823561478281614703565b9150602083013561479281614703565b809150509250929050565b6000602082840312156147af57600080fd5b5035919050565b801515811461472557600080fd5b600080604083850312156147d757600080fd5b82356147e281614703565b91506020830135614792816147b6565b60006020828403121561480457600080fd5b813561480f81614703565b9392505050565b60006020828403121561482857600080fd5b813567ffffffffffffffff81111561483f57600080fd5b820160c0818503121561480f57600080fd5b60006020828403121561486357600080fd5b813561480f816147b6565b6000806000806080858703121561488457600080fd5b843561488f81614703565b966020860135965060408601359560600135945092505050565b6000602082840312156148bb57600080fd5b813567ffffffffffffffff8111156148d257600080fd5b820160e0818503121561480f57600080fd5b803560ff8116811461473357600080fd5b61ffff8116811461472557600080fd5b600080600080600080600060c0888a03121561492057600080fd5b614929886148e4565b96506020880135614939816148f5565b95506040880135614949816148f5565b94506060880135614959816148f5565b9350608088013561496981614703565b925060a088013567ffffffffffffffff8082111561498657600080fd5b818a0191508a601f83011261499a57600080fd5b8135818111156149a957600080fd5b8b60208285010111156149bb57600080fd5b60208301945080935050505092959891949750929550565b600080604083850312156149e657600080fd5b82356149f181614703565b91506149ff602084016148e4565b90509250929050565b7f4e487b7100000000000000000000000000000000000000000000000000000000600052603260045260246000fd5b600082357ffffffffffffffffffffffffffffffffffffffffffffffffffffffffffffffe21833603018112614a6b57600080fd5b9190910192915050565b60008083357fffffffffffffffffffffffffffffffffffffffffffffffffffffffffffffffe1843603018112614aaa57600080fd5b830160208101925035905067ffffffffffffffff811115614aca57600080fd5b803603831315614ad957600080fd5b9250929050565b8183528181602085013750600060208284010152600060207fffffffffffffffffffffffffffffffffffffffffffffffffffffffffffffffe0601f840116840101905092915050565b73ffffffffffffffffffffffffffffffffffffffff8316815260406020820152614b7360408201614b5984614728565b73ffffffffffffffffffffffffffffffffffffffff169052565b6000614b8160208401614728565b73ffffffffffffffffffffffffffffffffffffffff166060830152614ba860408401614728565b73ffffffffffffffffffffffffffffffffffffffff166080830152614bcf606084016148e4565b60ff1660a0830152614be360808401614728565b73ffffffffffffffffffffffffffffffffffffffff1660c0830152614c0a60a08401614728565b73ffffffffffffffffffffffffffffffffffffffff1660e0830152614c3160c08401614728565b610100614c558185018373ffffffffffffffffffffffffffffffffffffffff169052565b614c6160e08601614728565b9150610120614c878186018473ffffffffffffffffffffffffffffffffffffffff169052565b614c9382870187614a75565b935091506101e06101408181880152614cb161022088018686614ae0565b9450614cbf83890189614a75565b945092507fffffffffffffffffffffffffffffffffffffffffffffffffffffffffffffffc06101608189880301818a0152614cfb878787614ae0565b9650614d09838b018b614a75565b9650945061018092508189880301838a0152614d26878787614ae0565b9650614d34818b018b614a75565b96509450506101a08189880301818a0152614d50878787614ae0565b9650614d5e838b018b614a75565b965094506101c092508189880301838a0152614d7b878787614ae0565b9650614d89818b018b614a75565b9650945050808887030183890152614da2868686614ae0565b9550614db0828a018a614a75565b955093508088870301610200890152505050614dcd838383614ae0565b979650505050505050565b60007fffffffffffffffffffffffffffffffffffffffffffffffffffffffffffffffff821415614e31577f4e487b7100000000000000000000000000000000000000000000000000000000600052601160045260246000fd5b5060010190565b7f4e487b7100000000000000000000000000000000000000000000000000000000600052604160045260246000fd5b6040516101e0810167ffffffffffffffff81118282101715614e8b57614e8b614e38565b60405290565b60405160a0810167ffffffffffffffff81118282101715614e8b57614e8b614e38565b604051601f82017fffffffffffffffffffffffffffffffffffffffffffffffffffffffffffffffe016810167ffffffffffffffff81118282101715614efb57614efb614e38565b604052919050565b600060208284031215614f1557600080fd5b6040516020810181811067ffffffffffffffff82111715614f3857614f38614e38565b6040529151825250919050565b600060208284031215614f5757600080fd5b61480f8383614f03565b80516fffffffffffffffffffffffffffffffff8116811461473357600080fd5b805164ffffffffff8116811461473357600080fd5b8051614733816148f5565b805161473381614703565b60006101e08284031215614fbf57600080fd5b614fc7614e67565b614fd18484614f03565b8152614fdf60208401614f61565b6020820152614ff060408401614f61565b604082015261500160608401614f61565b606082015261501260808401614f61565b608082015261502360a08401614f61565b60a082015261503460c08401614f81565b60c082015261504560e08401614f96565b60e0820152610100615058818501614fa1565b9082015261012061506a848201614fa1565b9082015261014061507c848201614fa1565b9082015261016061508e848201614fa1565b908201526101806150a0848201614f61565b908201526101a06150b2848201614f61565b908201526101c06150c4848201614f61565b908201529392505050565b60005b838110156150ea5781810151838201526020016150d2565b838111156104755750506000910152565b600081518084526151138160208601602086016150cf565b601f017fffffffffffffffffffffffffffffffffffffffffffffffffffffffffffffffe0169290920160200192915050565b60208152600061480f60208301846150fb565b60006020828403121561516a57600080fd5b5051919050565b600073ffffffffffffffffffffffffffffffffffffffff808516835260406020840152833561519f81614703565b8116604084015260208401356151b481614703565b1660608301526151c76040840184614a75565b60c060808501526151dd61010085018284614ae0565b9150506151ed6060850185614a75565b7fffffffffffffffffffffffffffffffffffffffffffffffffffffffffffffffc0808685030160a0870152615223848385614ae0565b935061523160808801614728565b73ffffffffffffffffffffffffffffffffffffffff811660c0880152925061525c60a0880188614a75565b93509150808685030160e087015250614dcd838383614ae0565b6000602080838503121561528957600080fd5b825167ffffffffffffffff808211156152a157600080fd5b818501915085601f8301126152b557600080fd5b8151818111156152c7576152c7614e38565b8060051b91506152d8848301614eb4565b81815291830184019184810190888411156152f257600080fd5b938501935b8385101561531c578451925061530c83614703565b82825293850193908501906152f7565b98975050505050505050565b600073ffffffffffffffffffffffffffffffffffffffff808516835260406020840152833561535681614703565b16604083015261536860208401614728565b73ffffffffffffffffffffffffffffffffffffffff16606083015261538f60408401614728565b73ffffffffffffffffffffffffffffffffffffffff1660808301526153b76060840184614a75565b60e060a08501526153cd61012085018284614ae0565b9150506153dd6080850185614a75565b7fffffffffffffffffffffffffffffffffffffffffffffffffffffffffffffffc0808685030160c0870152615413848385614ae0565b935061542160a08801614728565b73ffffffffffffffffffffffffffffffffffffffff811660e0880152925061544c60c0880188614a75565b93509150808685030161010087015250614dcd838383614ae0565b60ff8316815260406020820152600061ffff8084511660408401528060208501511660608401528060408501511660808401525073ffffffffffffffffffffffffffffffffffffffff60608401511660a0830152608083015160a060c08401526154d460e08401826150fb565b95945050505050565b600061ffff8089168352808816602084015280871660408401525073ffffffffffffffffffffffffffffffffffffffff8516606083015260a0608083015261531c60a083018486614ae0565b60006020828403121561553b57600080fd5b815161480f81614703565b6000602080838503121561555957600080fd5b825167ffffffffffffffff8082111561557157600080fd5b9084019060a0828703121561558557600080fd5b61558d614e91565b8251615598816148f5565b8152828401516155a7816148f5565b8185015260408301516155b9816148f5565b604082015260608301516155cc81614703565b60608201526080830151828111156155e357600080fd5b80840193505086601f8401126155f857600080fd5b82518281111561560a5761560a614e38565b61563a857fffffffffffffffffffffffffffffffffffffffffffffffffffffffffffffffe0601f84011601614eb4565b9250808352878582860101111561565057600080fd5b61565f818685018787016150cf565b50608081019190915295945050505050565b60006020828403121561568357600080fd5b815161480f816147b6565b6000806000806000806000806000806000806101808d8f0312156156b157600080fd5b8c519b5060208d01519a5060408d0151995060608d0151985060808d0151975060a08d0151965060c08d0151955060e08d015194506101008d015193506101208d015192506101408d0151915061570b6101608e01614f81565b90509295989b509295989b509295989b56fea2646970667358221220ce131e670524916e56000287f22124da9b4f882be2efa38c1901bc05044ba51264736f6c634300080a0033",
  "linkReferences": {
    "contracts/protocol/libraries/logic/ConfiguratorLogic.sol": {
      "ConfiguratorLogic": [
        {
          "length": 20,
          "start": 1021
        },
        {
          "length": 20,
          "start": 5441
        },
        {
          "length": 20,
          "start": 8177
        },
        {
          "length": 20,
          "start": 9245
        }
      ]
    }
  },
  "deployedLinkReferences": {
    "contracts/protocol/libraries/logic/ConfiguratorLogic.sol": {
      "ConfiguratorLogic": [
        {
          "length": 20,
          "start": 984
        },
        {
          "length": 20,
          "start": 5404
        },
        {
          "length": 20,
          "start": 8140
        },
        {
          "length": 20,
          "start": 9208
        }
      ]
    }
  }
}