{
  "_format": "hh-sol-artifact-1",
  "contractName": "MockL2Pool",
  "sourceName": "contracts/mocks/helpers/MockL2Pool.sol",
  "abi": [
    {
      "inputs": [
        {
          "internalType": "contract IPoolAddressesProvider",
          "name": "provider",
          "type": "address"
        }
      ],
      "stateMutability": "nonpayable",
      "type": "constructor"
    },
    {
      "anonymous": false,
      "inputs": [
        {
          "indexed": true,
          "internalType": "address",
          "name": "reserve",
          "type": "address"
        },
        {
          "indexed": true,
          "internalType": "address",
          "name": "backer",
          "type": "address"
        },
        {
          "indexed": false,
          "internalType": "uint256",
          "name": "amount",
          "type": "uint256"
        },
        {
          "indexed": false,
          "internalType": "uint256",
          "name": "fee",
          "type": "uint256"
        }
      ],
      "name": "BackUnbacked",
      "type": "event"
    },
    {
      "anonymous": false,
      "inputs": [
        {
          "indexed": true,
          "internalType": "address",
          "name": "reserve",
          "type": "address"
        },
        {
          "indexed": false,
          "internalType": "address",
          "name": "user",
          "type": "address"
        },
        {
          "indexed": true,
          "internalType": "address",
          "name": "onBehalfOf",
          "type": "address"
        },
        {
          "indexed": false,
          "internalType": "uint256",
          "name": "amount",
          "type": "uint256"
        },
        {
          "indexed": false,
          "internalType": "enum DataTypes.InterestRateMode",
          "name": "interestRateMode",
          "type": "uint8"
        },
        {
          "indexed": false,
          "internalType": "uint256",
          "name": "borrowRate",
          "type": "uint256"
        },
        {
          "indexed": true,
          "internalType": "uint16",
          "name": "referralCode",
          "type": "uint16"
        }
      ],
      "name": "Borrow",
      "type": "event"
    },
    {
      "anonymous": false,
      "inputs": [
        {
          "indexed": true,
          "internalType": "address",
          "name": "asset",
          "type": "address"
        },
        {
          "indexed": false,
          "internalType": "uint256",
          "name": "totalDebt",
          "type": "uint256"
        }
      ],
      "name": "IsolationModeTotalDebtUpdated",
      "type": "event"
    },
    {
      "anonymous": false,
      "inputs": [
        {
          "indexed": true,
          "internalType": "address",
          "name": "collateralAsset",
          "type": "address"
        },
        {
          "indexed": true,
          "internalType": "address",
          "name": "debtAsset",
          "type": "address"
        },
        {
          "indexed": true,
          "internalType": "address",
          "name": "user",
          "type": "address"
        },
        {
          "indexed": false,
          "internalType": "uint256",
          "name": "debtToCover",
          "type": "uint256"
        },
        {
          "indexed": false,
          "internalType": "uint256",
          "name": "liquidatedCollateralAmount",
          "type": "uint256"
        },
        {
          "indexed": false,
          "internalType": "address",
          "name": "liquidator",
          "type": "address"
        },
        {
          "indexed": false,
          "internalType": "bool",
          "name": "receiveAToken",
          "type": "bool"
        }
      ],
      "name": "LiquidationCall",
      "type": "event"
    },
    {
      "anonymous": false,
      "inputs": [
        {
          "indexed": true,
          "internalType": "address",
          "name": "reserve",
          "type": "address"
        },
        {
          "indexed": false,
          "internalType": "address",
          "name": "user",
          "type": "address"
        },
        {
          "indexed": true,
          "internalType": "address",
          "name": "onBehalfOf",
          "type": "address"
        },
        {
          "indexed": false,
          "internalType": "uint256",
          "name": "amount",
          "type": "uint256"
        },
        {
          "indexed": true,
          "internalType": "uint16",
          "name": "referralCode",
          "type": "uint16"
        }
      ],
      "name": "MintUnbacked",
      "type": "event"
    },
    {
      "anonymous": false,
      "inputs": [
        {
          "indexed": true,
          "internalType": "address",
          "name": "reserve",
          "type": "address"
        },
        {
          "indexed": false,
          "internalType": "uint256",
          "name": "amountMinted",
          "type": "uint256"
        }
      ],
      "name": "MintedToTreasury",
      "type": "event"
    },
    {
      "anonymous": false,
      "inputs": [
        {
          "indexed": true,
          "internalType": "address",
          "name": "reserve",
          "type": "address"
        },
        {
          "indexed": true,
          "internalType": "address",
          "name": "user",
          "type": "address"
        }
      ],
      "name": "RebalanceStableBorrowRate",
      "type": "event"
    },
    {
      "anonymous": false,
      "inputs": [
        {
          "indexed": true,
          "internalType": "address",
          "name": "reserve",
          "type": "address"
        },
        {
          "indexed": true,
          "internalType": "address",
          "name": "user",
          "type": "address"
        },
        {
          "indexed": true,
          "internalType": "address",
          "name": "repayer",
          "type": "address"
        },
        {
          "indexed": false,
          "internalType": "uint256",
          "name": "amount",
          "type": "uint256"
        },
        {
          "indexed": false,
          "internalType": "bool",
          "name": "useATokens",
          "type": "bool"
        }
      ],
      "name": "Repay",
      "type": "event"
    },
    {
      "anonymous": false,
      "inputs": [
        {
          "indexed": true,
          "internalType": "address",
          "name": "reserve",
          "type": "address"
        },
        {
          "indexed": false,
          "internalType": "uint256",
          "name": "liquidityRate",
          "type": "uint256"
        },
        {
          "indexed": false,
          "internalType": "uint256",
          "name": "stableBorrowRate",
          "type": "uint256"
        },
        {
          "indexed": false,
          "internalType": "uint256",
          "name": "variableBorrowRate",
          "type": "uint256"
        },
        {
          "indexed": false,
          "internalType": "uint256",
          "name": "liquidityIndex",
          "type": "uint256"
        },
        {
          "indexed": false,
          "internalType": "uint256",
          "name": "variableBorrowIndex",
          "type": "uint256"
        }
      ],
      "name": "ReserveDataUpdated",
      "type": "event"
    },
    {
      "anonymous": false,
      "inputs": [
        {
          "indexed": true,
          "internalType": "address",
          "name": "reserve",
          "type": "address"
        },
        {
          "indexed": true,
          "internalType": "address",
          "name": "user",
          "type": "address"
        }
      ],
      "name": "ReserveUsedAsCollateralDisabled",
      "type": "event"
    },
    {
      "anonymous": false,
      "inputs": [
        {
          "indexed": true,
          "internalType": "address",
          "name": "reserve",
          "type": "address"
        },
        {
          "indexed": true,
          "internalType": "address",
          "name": "user",
          "type": "address"
        }
      ],
      "name": "ReserveUsedAsCollateralEnabled",
      "type": "event"
    },
    {
      "anonymous": false,
      "inputs": [
        {
          "indexed": true,
          "internalType": "address",
          "name": "reserve",
          "type": "address"
        },
        {
          "indexed": false,
          "internalType": "address",
          "name": "user",
          "type": "address"
        },
        {
          "indexed": true,
          "internalType": "address",
          "name": "onBehalfOf",
          "type": "address"
        },
        {
          "indexed": false,
          "internalType": "uint256",
          "name": "amount",
          "type": "uint256"
        },
        {
          "indexed": true,
          "internalType": "uint16",
          "name": "referralCode",
          "type": "uint16"
        }
      ],
      "name": "Supply",
      "type": "event"
    },
    {
      "anonymous": false,
      "inputs": [
        {
          "indexed": true,
          "internalType": "address",
          "name": "reserve",
          "type": "address"
        },
        {
          "indexed": true,
          "internalType": "address",
          "name": "user",
          "type": "address"
        },
        {
          "indexed": false,
          "internalType": "enum DataTypes.InterestRateMode",
          "name": "interestRateMode",
          "type": "uint8"
        }
      ],
      "name": "SwapBorrowRateMode",
      "type": "event"
    },
    {
      "anonymous": false,
      "inputs": [
        {
          "indexed": true,
          "internalType": "address",
          "name": "user",
          "type": "address"
        },
        {
          "indexed": false,
          "internalType": "uint8",
          "name": "categoryId",
          "type": "uint8"
        }
      ],
      "name": "UserEModeSet",
      "type": "event"
    },
    {
      "anonymous": false,
      "inputs": [
        {
          "indexed": true,
          "internalType": "address",
          "name": "reserve",
          "type": "address"
        },
        {
          "indexed": true,
          "internalType": "address",
          "name": "user",
          "type": "address"
        },
        {
          "indexed": true,
          "internalType": "address",
          "name": "to",
          "type": "address"
        },
        {
          "indexed": false,
          "internalType": "uint256",
          "name": "amount",
          "type": "uint256"
        }
      ],
      "name": "Withdraw",
      "type": "event"
    },
    {
      "inputs": [],
      "name": "ADDRESSES_PROVIDER",
      "outputs": [
        {
          "internalType": "contract IPoolAddressesProvider",
          "name": "",
          "type": "address"
        }
      ],
      "stateMutability": "view",
      "type": "function"
    },
    {
      "inputs": [],
      "name": "BRIDGE_PROTOCOL_FEE",
      "outputs": [
        {
          "internalType": "uint256",
          "name": "",
          "type": "uint256"
        }
      ],
      "stateMutability": "view",
      "type": "function"
    },
    {
      "inputs": [],
      "name": "MAX_NUMBER_RESERVES",
      "outputs": [
        {
          "internalType": "uint16",
          "name": "",
          "type": "uint16"
        }
      ],
      "stateMutability": "view",
      "type": "function"
    },
    {
      "inputs": [],
      "name": "MAX_STABLE_RATE_BORROW_SIZE_PERCENT",
      "outputs": [
        {
          "internalType": "uint256",
          "name": "",
          "type": "uint256"
        }
      ],
      "stateMutability": "view",
      "type": "function"
    },
    {
      "inputs": [],
      "name": "POOL_REVISION",
      "outputs": [
        {
          "internalType": "uint256",
          "name": "",
          "type": "uint256"
        }
      ],
      "stateMutability": "view",
      "type": "function"
    },
    {
      "inputs": [
        {
          "internalType": "address",
          "name": "asset",
          "type": "address"
        },
        {
          "internalType": "uint256",
          "name": "amount",
          "type": "uint256"
        },
        {
          "internalType": "uint256",
          "name": "fee",
          "type": "uint256"
        }
      ],
      "name": "backUnbacked",
      "outputs": [
        {
          "internalType": "uint256",
          "name": "",
          "type": "uint256"
        }
      ],
      "stateMutability": "nonpayable",
      "type": "function"
    },
    {
      "inputs": [
        {
          "internalType": "address",
          "name": "asset",
          "type": "address"
        },
        {
          "internalType": "uint256",
          "name": "amount",
          "type": "uint256"
        },
        {
          "internalType": "uint256",
          "name": "interestRateMode",
          "type": "uint256"
        },
        {
          "internalType": "uint16",
          "name": "referralCode",
          "type": "uint16"
        },
        {
          "internalType": "address",
          "name": "onBehalfOf",
          "type": "address"
        }
      ],
      "name": "borrow",
      "outputs": [],
      "stateMutability": "nonpayable",
      "type": "function"
    },
    {
      "inputs": [
        {
          "internalType": "bytes32",
          "name": "args",
          "type": "bytes32"
        }
      ],
      "name": "borrow",
      "outputs": [],
      "stateMutability": "nonpayable",
      "type": "function"
    },
    {
      "inputs": [
        {
          "internalType": "uint8",
          "name": "id",
          "type": "uint8"
        },
        {
          "components": [
            {
              "internalType": "uint16",
              "name": "ltv",
              "type": "uint16"
            },
            {
              "internalType": "uint16",
              "name": "liquidationThreshold",
              "type": "uint16"
            },
            {
              "internalType": "uint16",
              "name": "liquidationBonus",
              "type": "uint16"
            },
            {
              "internalType": "address",
              "name": "priceSource",
              "type": "address"
            },
            {
              "internalType": "string",
              "name": "label",
              "type": "string"
            }
          ],
          "internalType": "struct DataTypes.EModeCategory",
          "name": "category",
          "type": "tuple"
        }
      ],
      "name": "configureEModeCategory",
      "outputs": [],
      "stateMutability": "nonpayable",
      "type": "function"
    },
    {
      "inputs": [
        {
          "internalType": "address",
          "name": "asset",
          "type": "address"
        },
        {
          "internalType": "uint256",
          "name": "amount",
          "type": "uint256"
        },
        {
          "internalType": "address",
          "name": "onBehalfOf",
          "type": "address"
        },
        {
          "internalType": "uint16",
          "name": "referralCode",
          "type": "uint16"
        }
      ],
      "name": "deposit",
      "outputs": [],
      "stateMutability": "nonpayable",
      "type": "function"
    },
    {
      "inputs": [
        {
          "internalType": "address",
          "name": "asset",
          "type": "address"
        }
      ],
      "name": "dropReserve",
      "outputs": [],
      "stateMutability": "nonpayable",
      "type": "function"
    },
    {
      "inputs": [
        {
          "internalType": "address",
          "name": "asset",
          "type": "address"
        },
        {
          "internalType": "address",
          "name": "from",
          "type": "address"
        },
        {
          "internalType": "address",
          "name": "to",
          "type": "address"
        },
        {
          "internalType": "uint256",
          "name": "amount",
          "type": "uint256"
        },
        {
          "internalType": "uint256",
          "name": "balanceFromBefore",
          "type": "uint256"
        },
        {
          "internalType": "uint256",
          "name": "balanceToBefore",
          "type": "uint256"
        }
      ],
      "name": "finalizeTransfer",
      "outputs": [],
      "stateMutability": "nonpayable",
      "type": "function"
    },
    {
      "inputs": [
        {
          "internalType": "address",
          "name": "asset",
          "type": "address"
        }
      ],
      "name": "getConfiguration",
      "outputs": [
        {
          "components": [
            {
              "internalType": "uint256",
              "name": "data",
              "type": "uint256"
            }
          ],
          "internalType": "struct DataTypes.ReserveConfigurationMap",
          "name": "",
          "type": "tuple"
        }
      ],
      "stateMutability": "view",
      "type": "function"
    },
    {
      "inputs": [
        {
          "internalType": "uint8",
          "name": "id",
          "type": "uint8"
        }
      ],
      "name": "getEModeCategoryData",
      "outputs": [
        {
          "components": [
            {
              "internalType": "uint16",
              "name": "ltv",
              "type": "uint16"
            },
            {
              "internalType": "uint16",
              "name": "liquidationThreshold",
              "type": "uint16"
            },
            {
              "internalType": "uint16",
              "name": "liquidationBonus",
              "type": "uint16"
            },
            {
              "internalType": "address",
              "name": "priceSource",
              "type": "address"
            },
            {
              "internalType": "string",
              "name": "label",
              "type": "string"
            }
          ],
          "internalType": "struct DataTypes.EModeCategory",
          "name": "",
          "type": "tuple"
        }
      ],
      "stateMutability": "view",
      "type": "function"
    },
    {
      "inputs": [
        {
          "internalType": "uint16",
          "name": "id",
          "type": "uint16"
        }
      ],
      "name": "getReserveAddressById",
      "outputs": [
        {
          "internalType": "address",
          "name": "",
          "type": "address"
        }
      ],
      "stateMutability": "view",
      "type": "function"
    },
    {
      "inputs": [
        {
          "internalType": "address",
          "name": "asset",
          "type": "address"
        }
      ],
      "name": "getReserveData",
      "outputs": [
        {
          "components": [
            {
              "components": [
                {
                  "internalType": "uint256",
                  "name": "data",
                  "type": "uint256"
                }
              ],
              "internalType": "struct DataTypes.ReserveConfigurationMap",
              "name": "configuration",
              "type": "tuple"
            },
            {
              "internalType": "uint128",
              "name": "liquidityIndex",
              "type": "uint128"
            },
            {
              "internalType": "uint128",
              "name": "currentLiquidityRate",
              "type": "uint128"
            },
            {
              "internalType": "uint128",
              "name": "variableBorrowIndex",
              "type": "uint128"
            },
            {
              "internalType": "uint128",
              "name": "currentVariableBorrowRate",
              "type": "uint128"
            },
            {
              "internalType": "uint128",
              "name": "currentStableBorrowRate",
              "type": "uint128"
            },
            {
              "internalType": "uint40",
              "name": "lastUpdateTimestamp",
              "type": "uint40"
            },
            {
              "internalType": "uint16",
              "name": "id",
              "type": "uint16"
            },
            {
              "internalType": "address",
              "name": "aTokenAddress",
              "type": "address"
            },
            {
              "internalType": "address",
              "name": "stableDebtTokenAddress",
              "type": "address"
            },
            {
              "internalType": "address",
              "name": "variableDebtTokenAddress",
              "type": "address"
            },
            {
              "internalType": "address",
              "name": "interestRateStrategyAddress",
              "type": "address"
            },
            {
              "internalType": "uint128",
              "name": "accruedToTreasury",
              "type": "uint128"
            },
            {
              "internalType": "uint128",
              "name": "unbacked",
              "type": "uint128"
            },
            {
              "internalType": "uint128",
              "name": "isolationModeTotalDebt",
              "type": "uint128"
            }
          ],
          "internalType": "struct DataTypes.ReserveData",
          "name": "",
          "type": "tuple"
        }
      ],
      "stateMutability": "view",
      "type": "function"
    },
    {
      "inputs": [
        {
          "internalType": "address",
          "name": "asset",
          "type": "address"
        }
      ],
      "name": "getReserveNormalizedIncome",
      "outputs": [
        {
          "internalType": "uint256",
          "name": "",
          "type": "uint256"
        }
      ],
      "stateMutability": "view",
      "type": "function"
    },
    {
      "inputs": [
        {
          "internalType": "address",
          "name": "asset",
          "type": "address"
        }
      ],
      "name": "getReserveNormalizedVariableDebt",
      "outputs": [
        {
          "internalType": "uint256",
          "name": "",
          "type": "uint256"
        }
      ],
      "stateMutability": "view",
      "type": "function"
    },
    {
      "inputs": [],
      "name": "getReservesList",
      "outputs": [
        {
          "internalType": "address[]",
          "name": "",
          "type": "address[]"
        }
      ],
      "stateMutability": "view",
      "type": "function"
    },
    {
      "inputs": [
        {
          "internalType": "address",
          "name": "user",
          "type": "address"
        }
      ],
      "name": "getUserAccountData",
      "outputs": [
        {
          "internalType": "uint256",
          "name": "totalCollateralBase",
          "type": "uint256"
        },
        {
          "internalType": "uint256",
          "name": "totalDebtBase",
          "type": "uint256"
        },
        {
          "internalType": "uint256",
          "name": "availableBorrowsBase",
          "type": "uint256"
        },
        {
          "internalType": "uint256",
          "name": "currentLiquidationThreshold",
          "type": "uint256"
        },
        {
          "internalType": "uint256",
          "name": "ltv",
          "type": "uint256"
        },
        {
          "internalType": "uint256",
          "name": "healthFactor",
          "type": "uint256"
        }
      ],
      "stateMutability": "view",
      "type": "function"
    },
    {
      "inputs": [
        {
          "internalType": "address",
          "name": "user",
          "type": "address"
        }
      ],
      "name": "getUserConfiguration",
      "outputs": [
        {
          "components": [
            {
              "internalType": "uint256",
              "name": "data",
              "type": "uint256"
            }
          ],
          "internalType": "struct DataTypes.UserConfigurationMap",
          "name": "",
          "type": "tuple"
        }
      ],
      "stateMutability": "view",
      "type": "function"
    },
    {
      "inputs": [
        {
          "internalType": "address",
          "name": "user",
          "type": "address"
        }
      ],
      "name": "getUserEMode",
      "outputs": [
        {
          "internalType": "uint256",
          "name": "",
          "type": "uint256"
        }
      ],
      "stateMutability": "view",
      "type": "function"
    },
    {
      "inputs": [
        {
          "internalType": "address",
          "name": "asset",
          "type": "address"
        },
        {
          "internalType": "address",
          "name": "aTokenAddress",
          "type": "address"
        },
        {
          "internalType": "address",
          "name": "stableDebtAddress",
          "type": "address"
        },
        {
          "internalType": "address",
          "name": "variableDebtAddress",
          "type": "address"
        },
        {
          "internalType": "address",
          "name": "interestRateStrategyAddress",
          "type": "address"
        }
      ],
      "name": "initReserve",
      "outputs": [],
      "stateMutability": "nonpayable",
      "type": "function"
    },
    {
      "inputs": [
        {
          "internalType": "contract IPoolAddressesProvider",
          "name": "provider",
          "type": "address"
        }
      ],
      "name": "initialize",
      "outputs": [],
      "stateMutability": "nonpayable",
      "type": "function"
    },
    {
      "inputs": [
        {
          "internalType": "address",
          "name": "collateralAsset",
          "type": "address"
        },
        {
          "internalType": "address",
          "name": "debtAsset",
          "type": "address"
        },
        {
          "internalType": "address",
          "name": "user",
          "type": "address"
        },
        {
          "internalType": "uint256",
          "name": "debtToCover",
          "type": "uint256"
        },
        {
          "internalType": "bool",
          "name": "receiveAToken",
          "type": "bool"
        }
      ],
      "name": "liquidationCall",
      "outputs": [],
      "stateMutability": "nonpayable",
      "type": "function"
    },
    {
      "inputs": [
        {
          "internalType": "bytes32",
          "name": "args1",
          "type": "bytes32"
        },
        {
          "internalType": "bytes32",
          "name": "args2",
          "type": "bytes32"
        }
      ],
      "name": "liquidationCall",
      "outputs": [],
      "stateMutability": "nonpayable",
      "type": "function"
    },
    {
      "inputs": [
        {
          "internalType": "address[]",
          "name": "assets",
          "type": "address[]"
        }
      ],
      "name": "mintToTreasury",
      "outputs": [],
      "stateMutability": "nonpayable",
      "type": "function"
    },
    {
      "inputs": [
        {
          "internalType": "address",
          "name": "asset",
          "type": "address"
        },
        {
          "internalType": "uint256",
          "name": "amount",
          "type": "uint256"
        },
        {
          "internalType": "address",
          "name": "onBehalfOf",
          "type": "address"
        },
        {
          "internalType": "uint16",
          "name": "referralCode",
          "type": "uint16"
        }
      ],
      "name": "mintUnbacked",
      "outputs": [],
      "stateMutability": "nonpayable",
      "type": "function"
    },
    {
      "inputs": [
        {
          "internalType": "bytes32",
          "name": "args",
          "type": "bytes32"
        }
      ],
      "name": "rebalanceStableBorrowRate",
      "outputs": [],
      "stateMutability": "nonpayable",
      "type": "function"
    },
    {
      "inputs": [
        {
          "internalType": "address",
          "name": "asset",
          "type": "address"
        },
        {
          "internalType": "address",
          "name": "user",
          "type": "address"
        }
      ],
      "name": "rebalanceStableBorrowRate",
      "outputs": [],
      "stateMutability": "nonpayable",
      "type": "function"
    },
    {
      "inputs": [
        {
          "internalType": "bytes32",
          "name": "args",
          "type": "bytes32"
        }
      ],
      "name": "repay",
      "outputs": [
        {
          "internalType": "uint256",
          "name": "",
          "type": "uint256"
        }
      ],
      "stateMutability": "nonpayable",
      "type": "function"
    },
    {
      "inputs": [
        {
          "internalType": "address",
          "name": "asset",
          "type": "address"
        },
        {
          "internalType": "uint256",
          "name": "amount",
          "type": "uint256"
        },
        {
          "internalType": "uint256",
          "name": "interestRateMode",
          "type": "uint256"
        },
        {
          "internalType": "address",
          "name": "onBehalfOf",
          "type": "address"
        }
      ],
      "name": "repay",
      "outputs": [
        {
          "internalType": "uint256",
          "name": "",
          "type": "uint256"
        }
      ],
      "stateMutability": "nonpayable",
      "type": "function"
    },
    {
      "inputs": [
        {
          "internalType": "address",
          "name": "asset",
          "type": "address"
        },
        {
          "internalType": "uint256",
          "name": "amount",
          "type": "uint256"
        },
        {
          "internalType": "uint256",
          "name": "interestRateMode",
          "type": "uint256"
        }
      ],
      "name": "repayWithATokens",
      "outputs": [
        {
          "internalType": "uint256",
          "name": "",
          "type": "uint256"
        }
      ],
      "stateMutability": "nonpayable",
      "type": "function"
    },
    {
      "inputs": [
        {
          "internalType": "bytes32",
          "name": "args",
          "type": "bytes32"
        }
      ],
      "name": "repayWithATokens",
      "outputs": [
        {
          "internalType": "uint256",
          "name": "",
          "type": "uint256"
        }
      ],
      "stateMutability": "nonpayable",
      "type": "function"
    },
    {
      "inputs": [
        {
          "internalType": "bytes32",
          "name": "args",
          "type": "bytes32"
        },
        {
          "internalType": "bytes32",
          "name": "r",
          "type": "bytes32"
        },
        {
          "internalType": "bytes32",
          "name": "s",
          "type": "bytes32"
        }
      ],
      "name": "repayWithPermit",
      "outputs": [
        {
          "internalType": "uint256",
          "name": "",
          "type": "uint256"
        }
      ],
      "stateMutability": "nonpayable",
      "type": "function"
    },
    {
      "inputs": [
        {
          "internalType": "address",
          "name": "asset",
          "type": "address"
        },
        {
          "internalType": "uint256",
          "name": "amount",
          "type": "uint256"
        },
        {
          "internalType": "uint256",
          "name": "interestRateMode",
          "type": "uint256"
        },
        {
          "internalType": "address",
          "name": "onBehalfOf",
          "type": "address"
        },
        {
          "internalType": "uint256",
          "name": "deadline",
          "type": "uint256"
        },
        {
          "internalType": "uint8",
          "name": "permitV",
          "type": "uint8"
        },
        {
          "internalType": "bytes32",
          "name": "permitR",
          "type": "bytes32"
        },
        {
          "internalType": "bytes32",
          "name": "permitS",
          "type": "bytes32"
        }
      ],
      "name": "repayWithPermit",
      "outputs": [
        {
          "internalType": "uint256",
          "name": "",
          "type": "uint256"
        }
      ],
      "stateMutability": "nonpayable",
      "type": "function"
    },
    {
      "inputs": [
        {
          "internalType": "address",
          "name": "token",
          "type": "address"
        },
        {
          "internalType": "address",
          "name": "to",
          "type": "address"
        },
        {
          "internalType": "uint256",
          "name": "amount",
          "type": "uint256"
        }
      ],
      "name": "rescueTokens",
      "outputs": [],
      "stateMutability": "nonpayable",
      "type": "function"
    },
    {
      "inputs": [
        {
          "internalType": "address",
          "name": "asset",
          "type": "address"
        }
      ],
      "name": "resetIsolationModeTotalDebt",
      "outputs": [],
      "stateMutability": "nonpayable",
      "type": "function"
    },
    {
      "inputs": [
        {
          "internalType": "address",
          "name": "asset",
          "type": "address"
        },
        {
          "components": [
            {
              "internalType": "uint256",
              "name": "data",
              "type": "uint256"
            }
          ],
          "internalType": "struct DataTypes.ReserveConfigurationMap",
          "name": "configuration",
          "type": "tuple"
        }
      ],
      "name": "setConfiguration",
      "outputs": [],
      "stateMutability": "nonpayable",
      "type": "function"
    },
    {
      "inputs": [
        {
          "internalType": "address",
          "name": "asset",
          "type": "address"
        },
        {
          "internalType": "address",
          "name": "rateStrategyAddress",
          "type": "address"
        }
      ],
      "name": "setReserveInterestRateStrategyAddress",
      "outputs": [],
      "stateMutability": "nonpayable",
      "type": "function"
    },
    {
      "inputs": [
        {
          "internalType": "uint8",
          "name": "categoryId",
          "type": "uint8"
        }
      ],
      "name": "setUserEMode",
      "outputs": [],
      "stateMutability": "nonpayable",
      "type": "function"
    },
    {
      "inputs": [
        {
          "internalType": "bytes32",
          "name": "args",
          "type": "bytes32"
        }
      ],
      "name": "setUserUseReserveAsCollateral",
      "outputs": [],
      "stateMutability": "nonpayable",
      "type": "function"
    },
    {
      "inputs": [
        {
          "internalType": "address",
          "name": "asset",
          "type": "address"
        },
        {
          "internalType": "bool",
          "name": "useAsCollateral",
          "type": "bool"
        }
      ],
      "name": "setUserUseReserveAsCollateral",
      "outputs": [],
      "stateMutability": "nonpayable",
      "type": "function"
    },
    {
      "inputs": [
        {
          "internalType": "address",
          "name": "asset",
          "type": "address"
        },
        {
          "internalType": "uint256",
          "name": "amount",
          "type": "uint256"
        },
        {
          "internalType": "address",
          "name": "onBehalfOf",
          "type": "address"
        },
        {
          "internalType": "uint16",
          "name": "referralCode",
          "type": "uint16"
        }
      ],
      "name": "supply",
      "outputs": [],
      "stateMutability": "nonpayable",
      "type": "function"
    },
    {
      "inputs": [
        {
          "internalType": "bytes32",
          "name": "args",
          "type": "bytes32"
        }
      ],
      "name": "supply",
      "outputs": [],
      "stateMutability": "nonpayable",
      "type": "function"
    },
    {
      "inputs": [
        {
          "internalType": "address",
          "name": "asset",
          "type": "address"
        },
        {
          "internalType": "uint256",
          "name": "amount",
          "type": "uint256"
        },
        {
          "internalType": "address",
          "name": "onBehalfOf",
          "type": "address"
        },
        {
          "internalType": "uint16",
          "name": "referralCode",
          "type": "uint16"
        },
        {
          "internalType": "uint256",
          "name": "deadline",
          "type": "uint256"
        },
        {
          "internalType": "uint8",
          "name": "permitV",
          "type": "uint8"
        },
        {
          "internalType": "bytes32",
          "name": "permitR",
          "type": "bytes32"
        },
        {
          "internalType": "bytes32",
          "name": "permitS",
          "type": "bytes32"
        }
      ],
      "name": "supplyWithPermit",
      "outputs": [],
      "stateMutability": "nonpayable",
      "type": "function"
    },
    {
      "inputs": [
        {
          "internalType": "bytes32",
          "name": "args",
          "type": "bytes32"
        },
        {
          "internalType": "bytes32",
          "name": "r",
          "type": "bytes32"
        },
        {
          "internalType": "bytes32",
          "name": "s",
          "type": "bytes32"
        }
      ],
      "name": "supplyWithPermit",
      "outputs": [],
      "stateMutability": "nonpayable",
      "type": "function"
    },
    {
      "inputs": [
        {
          "internalType": "bytes32",
          "name": "args",
          "type": "bytes32"
        }
      ],
      "name": "swapBorrowRateMode",
      "outputs": [],
      "stateMutability": "nonpayable",
      "type": "function"
    },
    {
      "inputs": [
        {
          "internalType": "address",
          "name": "asset",
          "type": "address"
        },
        {
          "internalType": "uint256",
          "name": "interestRateMode",
          "type": "uint256"
        }
      ],
      "name": "swapBorrowRateMode",
      "outputs": [],
      "stateMutability": "nonpayable",
      "type": "function"
    },
    {
      "inputs": [
        {
          "internalType": "uint256",
          "name": "protocolFee",
          "type": "uint256"
        }
      ],
      "name": "updateBridgeProtocolFee",
      "outputs": [],
      "stateMutability": "nonpayable",
      "type": "function"
    },
    {
      "inputs": [
        {
          "internalType": "address",
          "name": "asset",
          "type": "address"
        },
        {
          "internalType": "uint256",
          "name": "amount",
          "type": "uint256"
        },
        {
          "internalType": "address",
          "name": "to",
          "type": "address"
        }
      ],
      "name": "withdraw",
      "outputs": [
        {
          "internalType": "uint256",
          "name": "",
          "type": "uint256"
        }
      ],
      "stateMutability": "nonpayable",
      "type": "function"
    },
    {
      "inputs": [
        {
          "internalType": "bytes32",
          "name": "args",
          "type": "bytes32"
        }
      ],
      "name": "withdraw",
      "outputs": [
        {
          "internalType": "uint256",
          "name": "",
          "type": "uint256"
        }
      ],
      "stateMutability": "nonpayable",
      "type": "function"
    }
  ],
  "bytecode": "0x60a0604052600080553480156200001557600080fd5b506040516200512e3803806200512e83398101604081905262000038916200004a565b6001600160a01b03166080526200007c565b6000602082840312156200005d57600080fd5b81516001600160a01b03811681146200007557600080fd5b9392505050565b60805161503b620000f36000396000818161039801528181610ac301528181610bb5015281816110f90152818161163e01528181611a110152818161218401528181612255015281816123b30152818161261401528181612c8a015281816133a60152818161366501526138b2015261503b6000f3fe608060405234801561001057600080fd5b506004361061034b5760003560e01c80638e19899e116101bd578063d5ed3933116100f9578063e8eda9df116100a2578063f51e435b1161007c578063f51e435b146109cf578063f7a73840146109e2578063f8119d51146109f5578063fd21ecff14610a0457600080fd5b8063e8eda9df1461071e578063eddf1b7914610983578063ee3e210b146109bc57600080fd5b8063dc7c0bff116100d3578063dc7c0bff1461094b578063e43e88a11461095e578063e82fec2f1461097157600080fd5b8063d5ed393314610912578063d5eed86814610925578063d65dc7a11461093857600080fd5b8063c44b11f711610166578063cea9d26f11610140578063cea9d26f146108c4578063d15e0053146108d7578063d1946dbc146108ea578063d579ea7d146108ff57600080fd5b8063c44b11f71461084f578063c4d66de81461089e578063cd112382146108b157600080fd5b80639cd19996116101975780639cd19996146107e9578063a415bcad146107fc578063bf92857c1461080f57600080fd5b80638e19899e146107b057806394b576de146107c357806394ba89a2146107d657600080fd5b80634417a5831161028c578063617ba0371161023557806369328dec1161020f57806369328dec1461075757806369a933a51461076a5780636c6f6ae11461077d5780637a708e921461079d57600080fd5b8063617ba0371461071e57806363c9b86014610731578063680dd47c1461074457600080fd5b8063563dd61311610266578063563dd613146106e5578063573ade81146106f85780635a3b74b91461070b57600080fd5b80634417a5831461063a5780634d013f031461069857806352751797146106ab57600080fd5b8063272d9072116102f95780633036b439116102d35780633036b4391461043357806335ea6a7514610446578063386497fd14610614578063427da1771461062757600080fd5b8063272d90721461040557806328530a471461040d5780632dad97d41461042057600080fd5b80630542975c1161032a5780630542975c146103935780631d2118f9146103df5780631fe3c6f3146103f257600080fd5b8062a718a9146103505780630148170e1461036557806302c205f014610380575b600080fd5b61036361035e366004613e36565b610a17565b005b61036d600181565b6040519081526020015b60405180910390f35b61036361038e366004613ec6565b610c92565b6103ba7f000000000000000000000000000000000000000000000000000000000000000081565b60405173ffffffffffffffffffffffffffffffffffffffff9091168152602001610377565b6103636103ed366004613f45565b610e42565b610363610400366004613f7e565b611030565b60395461036d565b61036361041b366004613f97565b611071565b61036d61042e366004613fb2565b611250565b610363610441366004613f7e565b611394565b610607610454366004613fe7565b604080516102008101825260006101e08201818152825260208201819052918101829052606081018290526080810182905260a0810182905260c0810182905260e08101829052610100810182905261012081018290526101408101829052610160810182905261018081018290526101a081018290526101c08101919091525073ffffffffffffffffffffffffffffffffffffffff90811660009081526034602090815260409182902082516102008101845281546101e08201908152815260018201546fffffffffffffffffffffffffffffffff80821694830194909452700100000000000000000000000000000000908190048416948201949094526002820154808416606083015284900483166080820152600382015480841660a083015284810464ffffffffff1660c08301527501000000000000000000000000000000000000000000900461ffff1660e0820152600482015485166101008201526005820154851661012082015260068201548516610140820152600782015490941661016085015260088101548083166101808601529290920481166101a0840152600990910154166101c082015290565b6040516103779190614004565b61036d610622366004613fe7565b6113a1565b610363610635366004613f7e565b6113d5565b610689610648366004613fe7565b604080516020808201835260009182905273ffffffffffffffffffffffffffffffffffffffff93909316815260358352819020815192830190915254815290565b60405190518152602001610377565b6103636106a6366004613f7e565b611412565b6103ba6106b9366004614181565b61ffff1660009081526036602052604090205473ffffffffffffffffffffffffffffffffffffffff1690565b61036d6106f3366004613f7e565b61144e565b61036d61070636600461419c565b61147a565b6103636107193660046141e6565b6115ca565b61036361072c366004614214565b61179f565b61036361073f366004613fe7565b6118a2565b610363610752366004614265565b61191e565b61036d610765366004614291565b61194b565b610363610778366004614214565b611b6a565b61079061078b366004613f97565b611c17565b604051610377919061433e565b6103636107ab3660046143a1565b611d51565b61036d6107be366004613f7e565b611edd565b61036d6107d1366004614265565b611f04565b6103636107e4366004614404565b611f3f565b6103636107f7366004614430565b611fc0565b61036361080a3660046144a5565b612015565b61082261081d366004613fe7565b6122fb565b604080519687526020870195909552938501929092526060840152608083015260a082015260c001610377565b61068961085d366004613fe7565b604080516020808201835260009182905273ffffffffffffffffffffffffffffffffffffffff93909316815260348352819020815192830190915254815290565b6103636108ac366004613fe7565b61252a565b6103636108bf366004613f45565b61272f565b6103636108d23660046144e4565b6127b8565b61036d6108e5366004613fe7565b612865565b6108f2612893565b6040516103779190614525565b61036361090d366004614626565b6129cf565b61036361092036600461475e565b612b3b565b610363610933366004613f7e565b612dc2565b61036d610946366004613fb2565b612e39565b61036d610959366004613f7e565b612ed9565b61036361096c366004613fe7565b612efb565b603b5467ffffffffffffffff1661036d565b61036d610991366004613fe7565b73ffffffffffffffffffffffffffffffffffffffff1660009081526038602052604090205460ff1690565b61036d6109ca3660046147c3565b612f70565b6103636109dd366004614809565b61314b565b6103636109f0366004613f7e565b61330c565b60405160808152602001610377565b610363610a12366004614868565b613362565b73__$f598c634f2d943205ac23f707b80075cbb$__6383c1087d6034603660356037604051806101200160405280603b60089054906101000a900461ffff1661ffff1681526020018981526020018c73ffffffffffffffffffffffffffffffffffffffff1681526020018b73ffffffffffffffffffffffffffffffffffffffff1681526020018a73ffffffffffffffffffffffffffffffffffffffff16815260200188151581526020017f000000000000000000000000000000000000000000000000000000000000000073ffffffffffffffffffffffffffffffffffffffff1663fca513a86040518163ffffffff1660e01b8152600401602060405180830381865afa158015610b2c573d6000803e3d6000fd5b505050506040513d601f19601f82011682018060405250810190610b50919061488a565b73ffffffffffffffffffffffffffffffffffffffff90811682528b81166000908152603860209081526040918290205460ff168185015281517f5eb88d3d000000000000000000000000000000000000000000000000000000008152825192909401937f000000000000000000000000000000000000000000000000000000000000000090931692635eb88d3d92600480830193928290030181865afa158015610bfe573d6000803e3d6000fd5b505050506040513d601f19601f82011682018060405250810190610c22919061488a565b73ffffffffffffffffffffffffffffffffffffffff168152506040518663ffffffff1660e01b8152600401610c5b9594939291906148a7565b60006040518083038186803b158015610c7357600080fd5b505af4158015610c87573d6000803e3d6000fd5b505050505050505050565b6040517fd505accf000000000000000000000000000000000000000000000000000000008152336004820152306024820152604481018890526064810185905260ff8416608482015260a4810183905260c4810182905273ffffffffffffffffffffffffffffffffffffffff89169063d505accf9060e401600060405180830381600087803b158015610d2457600080fd5b505af1158015610d38573d6000803e3d6000fd5b5050505073ffffffffffffffffffffffffffffffffffffffff86811660008181526035602090815260409182902082516080810184528d861681529182018c815282840194855261ffff8b81166060850190815294517f1913f16100000000000000000000000000000000000000000000000000000000815260346004820152603660248201526044810193909352925186166064830152516084820152925190931660a48301525190911660c482015273__$db79717e66442ee197e8271d032a066e34$__90631913f1619060e40160006040518083038186803b158015610e2057600080fd5b505af4158015610e34573d6000803e3d6000fd5b505050505050505050505050565b610e4a61338d565b60408051808201909152600281527f3737000000000000000000000000000000000000000000000000000000000000602082015273ffffffffffffffffffffffffffffffffffffffff8316610ed5576040517f08c379a0000000000000000000000000000000000000000000000000000000008152600401610ecc9190614988565b60405180910390fd5b5073ffffffffffffffffffffffffffffffffffffffff82166000908152603460205260409020600301547501000000000000000000000000000000000000000000900461ffff16151580610f6b57506000805260366020527f4cb2b152c1b54ce671907a93c300fd5aa72383a9d4ec19a81e3333632ae92e005473ffffffffffffffffffffffffffffffffffffffff8381169116145b6040518060400160405280600281526020017f383200000000000000000000000000000000000000000000000000000000000081525090610fd9576040517f08c379a0000000000000000000000000000000000000000000000000000000008152600401610ecc9190614988565b5073ffffffffffffffffffffffffffffffffffffffff918216600090815260346020526040902060070180547fffffffffffffffffffffffff00000000000000000000000000000000000000001691909216179055565b61ffff811660009081526036602052604090205473ffffffffffffffffffffffffffffffffffffffff16601082901c60ff1661106c8282611f3f565b505050565b73__$e4b9550ff526a295e1233dea02821b9004$__635d5dc3136034603660376038603560003373ffffffffffffffffffffffffffffffffffffffff1673ffffffffffffffffffffffffffffffffffffffff1681526020019081526020016000206040518060600160405280603b60089054906101000a900461ffff1661ffff1681526020017f000000000000000000000000000000000000000000000000000000000000000073ffffffffffffffffffffffffffffffffffffffff1663fca513a86040518163ffffffff1660e01b8152600401602060405180830381865afa158015611162573d6000803e3d6000fd5b505050506040513d601f19601f82011682018060405250810190611186919061488a565b73ffffffffffffffffffffffffffffffffffffffff1681526020018960ff168152506040518763ffffffff1660e01b815260040161121d9695949392919095865260208087019590955260408087019490945260608601929092526080850152805160a08501529182015173ffffffffffffffffffffffffffffffffffffffff1660c0840152015160ff1660e08201526101000190565b60006040518083038186803b15801561123557600080fd5b505af4158015611249573d6000803e3d6000fd5b5050505050565b600073__$c3724b8d563dc83a94e797176cddecb3b9$__6340e95de660346036603560003373ffffffffffffffffffffffffffffffffffffffff1673ffffffffffffffffffffffffffffffffffffffff1681526020019081526020016000206040518060a001604052808a73ffffffffffffffffffffffffffffffffffffffff1681526020018981526020018860028111156112ee576112ee61499b565b60028111156112ff576112ff61499b565b81523360208201526001604091820152517fffffffff0000000000000000000000000000000000000000000000000000000060e087901b1681526113499493929190600401614a05565b602060405180830381865af4158015611366573d6000803e3d6000fd5b505050506040513d601f19601f8201168201806040525081019061138a9190614a78565b90505b9392505050565b61139c61338d565b603955565b73ffffffffffffffffffffffffffffffffffffffff811660009081526034602052604081206113cf906134bb565b92915050565b61ffff811660009081526036602052604090205473ffffffffffffffffffffffffffffffffffffffff90811690601083901c1661106c828261272f565b61ffff811660009081526036602052604090205473ffffffffffffffffffffffffffffffffffffffff16601082901c60011661106c82826115ca565b60008060008061145f60368661354b565b9250925092506114718383833361147a565b95945050505050565b600073__$c3724b8d563dc83a94e797176cddecb3b9$__6340e95de660346036603560008773ffffffffffffffffffffffffffffffffffffffff1673ffffffffffffffffffffffffffffffffffffffff1681526020019081526020016000206040518060a001604052808b73ffffffffffffffffffffffffffffffffffffffff1681526020018a81526020018960028111156115185761151861499b565b60028111156115295761152961499b565b815273ffffffffffffffffffffffffffffffffffffffff891660208201526000604091820152517fffffffff0000000000000000000000000000000000000000000000000000000060e087901b1681526115899493929190600401614a05565b602060405180830381865af41580156115a6573d6000803e3d6000fd5b505050506040513d601f19601f820116820180604052508101906114719190614a78565b73__$db79717e66442ee197e8271d032a066e34$__63bf697a26603460366037603560003373ffffffffffffffffffffffffffffffffffffffff1673ffffffffffffffffffffffffffffffffffffffff1681526020019081526020016000208787603b60089054906101000a900461ffff167f000000000000000000000000000000000000000000000000000000000000000073ffffffffffffffffffffffffffffffffffffffff1663fca513a86040518163ffffffff1660e01b8152600401602060405180830381865afa1580156116a7573d6000803e3d6000fd5b505050506040513d601f19601f820116820180604052508101906116cb919061488a565b336000908152603860205260409081902054905160e08b901b7fffffffff00000000000000000000000000000000000000000000000000000000168152600481019990995260248901979097526044880195909552606487019390935273ffffffffffffffffffffffffffffffffffffffff9182166084870152151560a486015261ffff90911660c48501521660e483015260ff16610104820152610124015b60006040518083038186803b15801561178357600080fd5b505af4158015611797573d6000803e3d6000fd5b505050505050565b73ffffffffffffffffffffffffffffffffffffffff8281166000818152603560209081526040918290208251608081018452898616815291820188815282840194855261ffff8781166060850190815294517f1913f16100000000000000000000000000000000000000000000000000000000815260346004820152603660248201526044810193909352925186166064830152516084820152925190931660a48301525190911660c482015273__$db79717e66442ee197e8271d032a066e34$__90631913f1619060e4015b60006040518083038186803b15801561188457600080fd5b505af4158015611898573d6000803e3d6000fd5b5050505050505050565b6118aa61338d565b6040517f9cf57023000000000000000000000000000000000000000000000000000000008152603460048201526036602482015273ffffffffffffffffffffffffffffffffffffffff8216604482015273__$563c746fa3df0f1858d85f6ef4258864be$__90639cf570239060640161121d565b60008060008060006119316036896135d9565b945094509450945094506118988585338686868d8d610c92565b600073__$db79717e66442ee197e8271d032a066e34$__63186dea44603460366037603560003373ffffffffffffffffffffffffffffffffffffffff1673ffffffffffffffffffffffffffffffffffffffff1681526020019081526020016000206040518060c001604052808b73ffffffffffffffffffffffffffffffffffffffff1681526020018a81526020018973ffffffffffffffffffffffffffffffffffffffff168152602001603b60089054906101000a900461ffff1661ffff1681526020017f000000000000000000000000000000000000000000000000000000000000000073ffffffffffffffffffffffffffffffffffffffff1663fca513a86040518163ffffffff1660e01b8152600401602060405180830381865afa158015611a7a573d6000803e3d6000fd5b505050506040513d601f19601f82011682018060405250810190611a9e919061488a565b73ffffffffffffffffffffffffffffffffffffffff9081168252336000908152603860209081526040918290205460ff90811694820194909452815160e08b901b7fffffffff0000000000000000000000000000000000000000000000000000000016815260048101999099526024890197909752604488019590955260648701939093528151831660848701529381015160a486015291820151811660c4850152606082015160e485015260808201511661010484015260a001511661012482015261014401611349565b611b72613663565b73ffffffffffffffffffffffffffffffffffffffff8281166000818152603560205260409081902090517f0413c86f0000000000000000000000000000000000000000000000000000000081526034600482015260366024820152604481019190915291861660648301526084820185905260a482015261ffff821660c482015273__$b06080f092f400a43662c3f835a4d9baa8$__90630413c86f9060e40161186c565b6040805160a081018252600080825260208201819052918101829052606080820192909252608081019190915260ff8216600090815260376020908152604091829020825160a081018452815461ffff8082168352620100008204811694830194909452640100000000810490931693810193909352660100000000000090910473ffffffffffffffffffffffffffffffffffffffff166060830152600181018054608084019190611cc890614a91565b80601f0160208091040260200160405190810160405280929190818152602001828054611cf490614a91565b8015611d415780601f10611d1657610100808354040283529160200191611d41565b820191906000526020600020905b815481529060010190602001808311611d2457829003601f168201915b5050505050815250509050919050565b611d5961338d565b73__$563c746fa3df0f1858d85f6ef4258864be$__6369fc1bdf603460366040518060e001604052808a73ffffffffffffffffffffffffffffffffffffffff1681526020018973ffffffffffffffffffffffffffffffffffffffff1681526020018873ffffffffffffffffffffffffffffffffffffffff1681526020018773ffffffffffffffffffffffffffffffffffffffff1681526020018673ffffffffffffffffffffffffffffffffffffffff168152602001603b60089054906101000a900461ffff1661ffff168152602001611e30608090565b61ffff168152506040518463ffffffff1660e01b8152600401611e5593929190614adf565b602060405180830381865af4158015611e72573d6000803e3d6000fd5b505050506040513d601f19601f82011682018060405250810190611e969190614b6f565b1561124957603b805468010000000000000000900461ffff16906008611ebb83614bbb565b91906101000a81548161ffff021916908361ffff160217905550505050505050565b6000806000611eed6036856137f0565b91509150611efc82823361194b565b949350505050565b600080600080600080611f1860368a613870565b94509450945094509450611f328585853386868e8e612f70565b9998505050505050505050565b73ffffffffffffffffffffffffffffffffffffffff82166000908152603460209081526040808320338452603590925290912073__$c3724b8d563dc83a94e797176cddecb3b9$__9163eac4d7039185856002811115611fa157611fa161499b565b6040518563ffffffff1660e01b815260040161176b9493929190614bdd565b6040517f48c2ca8c00000000000000000000000000000000000000000000000000000000815273__$563c746fa3df0f1858d85f6ef4258864be$__906348c2ca8c9061176b9060349086908690600401614c14565b73__$c3724b8d563dc83a94e797176cddecb3b9$__631e6473f9603460366037603560008773ffffffffffffffffffffffffffffffffffffffff1673ffffffffffffffffffffffffffffffffffffffff1681526020019081526020016000206040518061018001604052808c73ffffffffffffffffffffffffffffffffffffffff1681526020013373ffffffffffffffffffffffffffffffffffffffff1681526020018873ffffffffffffffffffffffffffffffffffffffff1681526020018b81526020018a60028111156120ec576120ec61499b565b60028111156120fd576120fd61499b565b815261ffff808b166020808401919091526001604080850191909152603b5467ffffffffffffffff81166060860152680100000000000000009004909216608084015281517ffca513a8000000000000000000000000000000000000000000000000000000008152915160a09093019273ffffffffffffffffffffffffffffffffffffffff7f0000000000000000000000000000000000000000000000000000000000000000169263fca513a89260048083019391928290030181865afa1580156121cc573d6000803e3d6000fd5b505050506040513d601f19601f820116820180604052508101906121f0919061488a565b73ffffffffffffffffffffffffffffffffffffffff90811682528981166000908152603860209081526040918290205460ff168185015281517f5eb88d3d000000000000000000000000000000000000000000000000000000008152825192909401937f000000000000000000000000000000000000000000000000000000000000000090931692635eb88d3d92600480830193928290030181865afa15801561229e573d6000803e3d6000fd5b505050506040513d601f19601f820116820180604052508101906122c2919061488a565b73ffffffffffffffffffffffffffffffffffffffff168152506040518663ffffffff1660e01b8152600401610c5b959493929190614c79565b6040805173ffffffffffffffffffffffffffffffffffffffff83811660008181526035602090815285822060c0860187525460a086019081528552603b5468010000000000000000900461ffff16818601528486019290925284517ffca513a8000000000000000000000000000000000000000000000000000000008152945190948594859485948594859473__$563c746fa3df0f1858d85f6ef4258864be$__946326ec273f9460349460369460379460608501937f0000000000000000000000000000000000000000000000000000000000000000169263fca513a8926004808401938290030181865afa1580156123f9573d6000803e3d6000fd5b505050506040513d601f19601f8201168201806040525081019061241d919061488a565b73ffffffffffffffffffffffffffffffffffffffff90811682528e81166000908152603860209081526040918290205460ff90811694820194909452815160e08a901b7fffffffff00000000000000000000000000000000000000000000000000000000168152600481019890985260248801969096526044870194909452825151606487015293820151608486015291810151831660a4850152606081015190921660c48401526080909101511660e48201526101040160c060405180830381865af41580156124f2573d6000803e3d6000fd5b505050506040513d601f19601f820116820180604052508101906125169190614da1565b949c939b5091995097509550909350915050565b60015460039060ff168061253d5750303b155b80612549575060005481115b6125d5576040517f08c379a000000000000000000000000000000000000000000000000000000000815260206004820152602e60248201527f436f6e747261637420696e7374616e63652068617320616c726561647920626560448201527f656e20696e697469616c697a65640000000000000000000000000000000000006064820152608401610ecc565b60015460ff1615801561261257600180547fffffffffffffffffffffffffffffffffffffffffffffffffffffffffffffff00168117905560008290555b7f000000000000000000000000000000000000000000000000000000000000000073ffffffffffffffffffffffffffffffffffffffff168373ffffffffffffffffffffffffffffffffffffffff16146040518060400160405280600281526020017f3132000000000000000000000000000000000000000000000000000000000000815250906126cf576040517f08c379a0000000000000000000000000000000000000000000000000000000008152600401610ecc9190614988565b50603b80547fffffffffffffffffffffffffffffffffffffffffffffffff0000000000000000166109c4179055801561106c57600180547fffffffffffffffffffffffffffffffffffffffffffffffffffffffffffffff00169055505050565b73ffffffffffffffffffffffffffffffffffffffff8281166000818152603460205260409081902090517f6973f74400000000000000000000000000000000000000000000000000000000815260048101919091526024810191909152908216604482015273__$c3724b8d563dc83a94e797176cddecb3b9$__90636973f7449060640161176b565b6127c06138b0565b6040517f87b322b200000000000000000000000000000000000000000000000000000000815273ffffffffffffffffffffffffffffffffffffffff8085166004830152831660248201526044810182905273__$563c746fa3df0f1858d85f6ef4258864be$__906387b322b29060640160006040518083038186803b15801561284857600080fd5b505af415801561285c573d6000803e3d6000fd5b50505050505050565b73ffffffffffffffffffffffffffffffffffffffff811660009081526034602052604081206113cf90613a3d565b603b5460609068010000000000000000900461ffff166000808267ffffffffffffffff8111156128c5576128c561457f565b6040519080825280602002602001820160405280156128ee578160200160208202803683370190505b50905060005b838110156129c55760008181526036602052604090205473ffffffffffffffffffffffffffffffffffffffff16156129a55760008181526036602052604090205473ffffffffffffffffffffffffffffffffffffffff16826129568584614deb565b8151811061296657612966614e02565b602002602001019073ffffffffffffffffffffffffffffffffffffffff16908173ffffffffffffffffffffffffffffffffffffffff16815250506129b3565b826129af81614e31565b9350505b806129bd81614e31565b9150506128f4565b5091038152919050565b6129d761338d565b60408051808201909152600281527f3136000000000000000000000000000000000000000000000000000000000000602082015260ff8316612a46576040517f08c379a0000000000000000000000000000000000000000000000000000000008152600401610ecc9190614988565b5060ff8216600090815260376020908152604091829020835181548386015194860151606087015173ffffffffffffffffffffffffffffffffffffffff166601000000000000027fffffffffffff0000000000000000000000000000000000000000ffffffffffff61ffff92831664010000000002167fffffffffffff00000000000000000000000000000000000000000000ffffffff97831662010000027fffffffffffffffffffffffffffffffffffffffffffffffffffffffff00000000909416929094169190911791909117949094161792909217825560808301518051849392611249926001850192910190613d6d565b73ffffffffffffffffffffffffffffffffffffffff868116600090815260346020908152604091829020600401548251808401909352600283527f3131000000000000000000000000000000000000000000000000000000000000918301919091529091163314612bd9576040517f08c379a0000000000000000000000000000000000000000000000000000000008152600401610ecc9190614988565b5073__$db79717e66442ee197e8271d032a066e34$__638a5dadd160346036603760356040518061012001604052808d73ffffffffffffffffffffffffffffffffffffffff1681526020018c73ffffffffffffffffffffffffffffffffffffffff1681526020018b73ffffffffffffffffffffffffffffffffffffffff1681526020018a8152602001898152602001888152602001603b60089054906101000a900461ffff1661ffff1681526020017f000000000000000000000000000000000000000000000000000000000000000073ffffffffffffffffffffffffffffffffffffffff1663fca513a86040518163ffffffff1660e01b8152600401602060405180830381865afa158015612cf3573d6000803e3d6000fd5b505050506040513d601f19601f82011682018060405250810190612d17919061488a565b73ffffffffffffffffffffffffffffffffffffffff90811682528d166000908152603860209081526040918290205460ff16920191909152517fffffffff0000000000000000000000000000000000000000000000000000000060e088901b168152612d8a959493929190600401614e6a565b60006040518083038186803b158015612da257600080fd5b505af4158015612db6573d6000803e3d6000fd5b50505050505050505050565b600080600080612e2460368661ffff818116600090815260209390935260409092205473ffffffffffffffffffffffffffffffffffffffff16926fffffffffffffffffffffffffffffffff601083901c169260ff609084901c169260981c1690565b93509350935093506112498484848433612015565b6000612e43613663565b73ffffffffffffffffffffffffffffffffffffffff84166000818152603460205260409081902060395491517f8e743248000000000000000000000000000000000000000000000000000000008152600481019190915260248101929092526044820185905260648201849052608482015273__$b06080f092f400a43662c3f835a4d9baa8$__90638e7432489060a401611349565b600080600080612eea60368661354b565b925092509250611471838383611250565b612f0361338d565b6040517f1e3b41450000000000000000000000000000000000000000000000000000000081526034600482015273ffffffffffffffffffffffffffffffffffffffff8216602482015273__$563c746fa3df0f1858d85f6ef4258864be$__90631e3b41459060440161121d565b6040517fd505accf000000000000000000000000000000000000000000000000000000008152336004820152306024820152604481018890526064810185905260ff8416608482015260a4810183905260c4810182905260009073ffffffffffffffffffffffffffffffffffffffff8a169063d505accf9060e401600060405180830381600087803b15801561300557600080fd5b505af1158015613019573d6000803e3d6000fd5b5050505060006040518060a001604052808b73ffffffffffffffffffffffffffffffffffffffff1681526020018a815260200189600281111561305e5761305e61499b565b600281111561306f5761306f61499b565b815273ffffffffffffffffffffffffffffffffffffffff89166020808301829052600060409384018190529182526035905281902090517f40e95de600000000000000000000000000000000000000000000000000000000815291925073__$c3724b8d563dc83a94e797176cddecb3b9$__916340e95de6916130fc916034916036918790600401614a05565b602060405180830381865af4158015613119573d6000803e3d6000fd5b505050506040513d601f19601f8201168201806040525081019061313d9190614a78565b9a9950505050505050505050565b61315361338d565b60408051808201909152600281527f3737000000000000000000000000000000000000000000000000000000000000602082015273ffffffffffffffffffffffffffffffffffffffff83166131d5576040517f08c379a0000000000000000000000000000000000000000000000000000000008152600401610ecc9190614988565b5073ffffffffffffffffffffffffffffffffffffffff82166000908152603460205260409020600301547501000000000000000000000000000000000000000000900461ffff1615158061326b57506000805260366020527f4cb2b152c1b54ce671907a93c300fd5aa72383a9d4ec19a81e3333632ae92e005473ffffffffffffffffffffffffffffffffffffffff8381169116145b6040518060400160405280600281526020017f3832000000000000000000000000000000000000000000000000000000000000815250906132d9576040517f08c379a0000000000000000000000000000000000000000000000000000000008152600401610ecc9190614988565b5073ffffffffffffffffffffffffffffffffffffffff821660009081526034602052604090208135815581905b50505050565b61ffff81811660009081526036602052604090205473ffffffffffffffffffffffffffffffffffffffff1690601083901c6fffffffffffffffffffffffffffffffff1690609084901c166133068383338461179f565b600080600080600061337660368888613ac1565b9450945094509450945061285c8585858585610a17565b3373ffffffffffffffffffffffffffffffffffffffff167f000000000000000000000000000000000000000000000000000000000000000073ffffffffffffffffffffffffffffffffffffffff1663631adfca6040518163ffffffff1660e01b8152600401602060405180830381865afa15801561340f573d6000803e3d6000fd5b505050506040513d601f19601f82011682018060405250810190613433919061488a565b73ffffffffffffffffffffffffffffffffffffffff16146040518060400160405280600281526020017f3130000000000000000000000000000000000000000000000000000000000000815250906134b8576040517f08c379a0000000000000000000000000000000000000000000000000000000008152600401610ecc9190614988565b50565b6003810154600090700100000000000000000000000000000000900464ffffffffff1642811415613501575050600201546fffffffffffffffffffffffffffffffff1690565b600283015461138d906fffffffffffffffffffffffffffffffff8082169161353f917001000000000000000000000000000000009091041684613b85565b90613b92565b50919050565b6000808061ffff84166fffffffffffffffffffffffffffffffff601086901c81169060ff609088901c16908214156135a1577fffffffffffffffffffffffffffffffffffffffffffffffffffffffffffffffff91505b61ffff90921660009081526020889052604090205473ffffffffffffffffffffffffffffffffffffffff169450925090509250925092565b60008080808060a086901c63ffffffff1660c087901c60ff1682808061364b8c8c61ffff81811660009081526020849052604090205473ffffffffffffffffffffffffffffffffffffffff1690601083901c6fffffffffffffffffffffffffffffffff1690609084901c169250925092565b919e909d50909b509499509297509295505050505050565b7f000000000000000000000000000000000000000000000000000000000000000073ffffffffffffffffffffffffffffffffffffffff1663707cd7166040518163ffffffff1660e01b8152600401602060405180830381865afa1580156136ce573d6000803e3d6000fd5b505050506040513d601f19601f820116820180604052508101906136f2919061488a565b6040517f726600ce00000000000000000000000000000000000000000000000000000000815233600482015273ffffffffffffffffffffffffffffffffffffffff919091169063726600ce90602401602060405180830381865afa15801561375e573d6000803e3d6000fd5b505050506040513d601f19601f820116820180604052508101906137829190614b6f565b6040518060400160405280600181526020017f3600000000000000000000000000000000000000000000000000000000000000815250906134b8576040517f08c379a0000000000000000000000000000000000000000000000000000000008152600401610ecc9190614988565b60008061ffff83166fffffffffffffffffffffffffffffffff601085901c81169081141561383b57507fffffffffffffffffffffffffffffffffffffffffffffffffffffffffffffffff5b61ffff91909116600090815260209590955260409094205473ffffffffffffffffffffffffffffffffffffffff169492505050565b6000806000806000806000806000806138898c8c61354b565b919e909d50909b609881901c63ffffffff169b5060b81c60ff169950975050505050505050565b7f000000000000000000000000000000000000000000000000000000000000000073ffffffffffffffffffffffffffffffffffffffff1663707cd7166040518163ffffffff1660e01b8152600401602060405180830381865afa15801561391b573d6000803e3d6000fd5b505050506040513d601f19601f8201168201806040525081019061393f919061488a565b6040517f7be53ca100000000000000000000000000000000000000000000000000000000815233600482015273ffffffffffffffffffffffffffffffffffffffff9190911690637be53ca190602401602060405180830381865afa1580156139ab573d6000803e3d6000fd5b505050506040513d601f19601f820116820180604052508101906139cf9190614b6f565b6040518060400160405280600181526020017f3100000000000000000000000000000000000000000000000000000000000000815250906134b8576040517f08c379a0000000000000000000000000000000000000000000000000000000008152600401610ecc9190614988565b6003810154600090700100000000000000000000000000000000900464ffffffffff1642811415613a83575050600101546fffffffffffffffffffffffffffffffff1690565b600183015461138d906fffffffffffffffffffffffffffffffff8082169161353f917001000000000000000000000000000000009091041684613be9565b60008080808061ffff87811690601089901c16602089901c73ffffffffffffffffffffffffffffffffffffffff166fffffffffffffffffffffffffffffffff8981169060808b901c60011690821415613b38577fffffffffffffffffffffffffffffffffffffffffffffffffffffffffffffffff91505b61ffff948516600090815260209d909d526040808e2054949095168d5293909b205473ffffffffffffffffffffffffffffffffffffffff9283169c92169a90995097509095509350505050565b600061138d838342613c26565b600081157ffffffffffffffffffffffffffffffffffffffffffe6268e1b017bfe18bffffff83900484111517613bc757600080fd5b506b033b2e3c9fd0803ce800000091026b019d971e4fe8401e74000000010490565b600080613bfd64ffffffffff841642614deb565b613c079085614f46565b6301e1338090049050611efc816b033b2e3c9fd0803ce8000000614fb2565b600080613c3a64ffffffffff851684614deb565b905080613c56576b033b2e3c9fd0803ce800000091505061138d565b7fffffffffffffffffffffffffffffffffffffffffffffffffffffffffffffffff81016000808060028511613c8c576000613c91565b600285035b925066038882915c4000613ca58a80613b92565b81613cb257613cb2614f83565b0491506301e13380613cc4838b613b92565b81613cd157613cd1614f83565b049050600082613ce18688614f46565b613ceb9190614f46565b60029004905060008285613cff888a614f46565b613d099190614f46565b613d139190614f46565b60069004905080826301e13380613d2a8a8f614f46565b613d349190614fca565b613d4a906b033b2e3c9fd0803ce8000000614fb2565b613d549190614fb2565b613d5e9190614fb2565b9b9a5050505050505050505050565b828054613d7990614a91565b90600052602060002090601f016020900481019282613d9b5760008555613de1565b82601f10613db457805160ff1916838001178555613de1565b82800160010185558215613de1579182015b82811115613de1578251825591602001919060010190613dc6565b50613ded929150613df1565b5090565b5b80821115613ded5760008155600101613df2565b73ffffffffffffffffffffffffffffffffffffffff811681146134b857600080fd5b80151581146134b857600080fd5b600080600080600060a08688031215613e4e57600080fd5b8535613e5981613e06565b94506020860135613e6981613e06565b93506040860135613e7981613e06565b9250606086013591506080860135613e9081613e28565b809150509295509295909350565b803561ffff81168114613eb057600080fd5b919050565b803560ff81168114613eb057600080fd5b600080600080600080600080610100898b031215613ee357600080fd5b8835613eee81613e06565b9750602089013596506040890135613f0581613e06565b9550613f1360608a01613e9e565b945060808901359350613f2860a08a01613eb5565b925060c0890135915060e089013590509295985092959890939650565b60008060408385031215613f5857600080fd5b8235613f6381613e06565b91506020830135613f7381613e06565b809150509250929050565b600060208284031215613f9057600080fd5b5035919050565b600060208284031215613fa957600080fd5b61138d82613eb5565b600080600060608486031215613fc757600080fd5b8335613fd281613e06565b95602085013595506040909401359392505050565b600060208284031215613ff957600080fd5b813561138d81613e06565b81515181526101e08101602083015161403160208401826fffffffffffffffffffffffffffffffff169052565b50604083015161405560408401826fffffffffffffffffffffffffffffffff169052565b50606083015161407960608401826fffffffffffffffffffffffffffffffff169052565b50608083015161409d60808401826fffffffffffffffffffffffffffffffff169052565b5060a08301516140c160a08401826fffffffffffffffffffffffffffffffff169052565b5060c08301516140da60c084018264ffffffffff169052565b5060e08301516140f060e084018261ffff169052565b506101008381015173ffffffffffffffffffffffffffffffffffffffff9081169184019190915261012080850151821690840152610140808501518216908401526101608085015190911690830152610180808401516fffffffffffffffffffffffffffffffff908116918401919091526101a0808501518216908401526101c09384015116929091019190915290565b60006020828403121561419357600080fd5b61138d82613e9e565b600080600080608085870312156141b257600080fd5b84356141bd81613e06565b9350602085013592506040850135915060608501356141db81613e06565b939692955090935050565b600080604083850312156141f957600080fd5b823561420481613e06565b91506020830135613f7381613e28565b6000806000806080858703121561422a57600080fd5b843561423581613e06565b935060208501359250604085013561424c81613e06565b915061425a60608601613e9e565b905092959194509250565b60008060006060848603121561427a57600080fd5b505081359360208301359350604090920135919050565b6000806000606084860312156142a657600080fd5b83356142b181613e06565b92506020840135915060408401356142c881613e06565b809150509250925092565b6000815180845260005b818110156142f9576020818501810151868301820152016142dd565b8181111561430b576000602083870101525b50601f017fffffffffffffffffffffffffffffffffffffffffffffffffffffffffffffffe0169290920160200192915050565b60208152600061ffff8084511660208401528060208501511660408401528060408501511660608401525073ffffffffffffffffffffffffffffffffffffffff6060840151166080830152608083015160a080840152611efc60c08401826142d3565b600080600080600060a086880312156143b957600080fd5b85356143c481613e06565b945060208601356143d481613e06565b935060408601356143e481613e06565b925060608601356143f481613e06565b91506080860135613e9081613e06565b6000806040838503121561441757600080fd5b823561442281613e06565b946020939093013593505050565b6000806020838503121561444357600080fd5b823567ffffffffffffffff8082111561445b57600080fd5b818501915085601f83011261446f57600080fd5b81358181111561447e57600080fd5b8660208260051b850101111561449357600080fd5b60209290920196919550909350505050565b600080600080600060a086880312156144bd57600080fd5b85356144c881613e06565b945060208601359350604086013592506143f460608701613e9e565b6000806000606084860312156144f957600080fd5b833561450481613e06565b9250602084013561451481613e06565b929592945050506040919091013590565b6020808252825182820181905260009190848201906040850190845b8181101561457357835173ffffffffffffffffffffffffffffffffffffffff1683529284019291840191600101614541565b50909695505050505050565b7f4e487b7100000000000000000000000000000000000000000000000000000000600052604160045260246000fd5b60405160a0810167ffffffffffffffff811182821017156145d1576145d161457f565b60405290565b604051601f82017fffffffffffffffffffffffffffffffffffffffffffffffffffffffffffffffe016810167ffffffffffffffff8111828210171561461e5761461e61457f565b604052919050565b6000806040838503121561463957600080fd5b61464283613eb5565b915060208084013567ffffffffffffffff8082111561466057600080fd5b9085019060a0828803121561467457600080fd5b61467c6145ae565b61468583613e9e565b8152614692848401613e9e565b848201526146a260408401613e9e565b604082015260608301356146b581613e06565b60608201526080830135828111156146cc57600080fd5b80840193505087601f8401126146e157600080fd5b8235828111156146f3576146f361457f565b614723857fffffffffffffffffffffffffffffffffffffffffffffffffffffffffffffffe0601f840116016145d7565b9250808352888582860101111561473957600080fd5b8085850186850137600085828501015250816080820152809450505050509250929050565b60008060008060008060c0878903121561477757600080fd5b863561478281613e06565b9550602087013561479281613e06565b945060408701356147a281613e06565b959894975094956060810135955060808101359460a0909101359350915050565b600080600080600080600080610100898b0312156147e057600080fd5b88356147eb81613e06565b975060208901359650604089013595506060890135613f1381613e06565b600080828403604081121561481d57600080fd5b833561482881613e06565b925060207fffffffffffffffffffffffffffffffffffffffffffffffffffffffffffffffe08201121561485a57600080fd5b506020830190509250929050565b6000806040838503121561487b57600080fd5b50508035926020909101359150565b60006020828403121561489c57600080fd5b815161138d81613e06565b60006101a08201905086825285602083015284604083015283606083015282516080830152602083015160a0830152604083015173ffffffffffffffffffffffffffffffffffffffff80821660c08501528060608601511660e08501525050608083015161010061492f8185018373ffffffffffffffffffffffffffffffffffffffff169052565b60a0850151151561012085015260c085015173ffffffffffffffffffffffffffffffffffffffff90811661014086015260e086015160ff166101608601529085015190811661018085015290505b509695505050505050565b60208152600061138d60208301846142d3565b7f4e487b7100000000000000000000000000000000000000000000000000000000600052602160045260246000fd5b60038110614a01577f4e487b7100000000000000000000000000000000000000000000000000000000600052602160045260246000fd5b9052565b60006101008201905085825284602083015283604083015273ffffffffffffffffffffffffffffffffffffffff808451166060840152602084015160808401526040840151614a5760a08501826149ca565b5060608401511660c0830152608090920151151560e0909101529392505050565b600060208284031215614a8a57600080fd5b5051919050565b600181811c90821680614aa557607f821691505b60208210811415613545577f4e487b7100000000000000000000000000000000000000000000000000000000600052602260045260246000fd5b60006101208201905084825283602083015273ffffffffffffffffffffffffffffffffffffffff8084511660408401528060208501511660608401528060408501511660808401528060608501511660a08401528060808501511660c08401525060a0830151614b5560e084018261ffff169052565b5060c083015161ffff811661010084015250949350505050565b600060208284031215614b8157600080fd5b815161138d81613e28565b7f4e487b7100000000000000000000000000000000000000000000000000000000600052601160045260246000fd5b600061ffff80831681811415614bd357614bd3614b8c565b6001019392505050565b8481526020810184905273ffffffffffffffffffffffffffffffffffffffff831660408201526080810161147160608301846149ca565b83815260406020808301829052908201839052600090849060608401835b86811015614c6d578335614c4581613e06565b73ffffffffffffffffffffffffffffffffffffffff1682529282019290820190600101614c32565b50979650505050505050565b858152602081018590526040810184905260608101839052815173ffffffffffffffffffffffffffffffffffffffff1660808201526102008101602083015173ffffffffffffffffffffffffffffffffffffffff811660a084015250604083015173ffffffffffffffffffffffffffffffffffffffff811660c084015250606083015160e08301526080830151610100614d15818501836149ca565b60a08501519150610120614d2e8186018461ffff169052565b60c08601519250610140614d458187018515159052565b60e087015161016087810191909152928701516101808701529086015173ffffffffffffffffffffffffffffffffffffffff9081166101a08701529086015160ff166101c0860152908501519081166101e0850152905061497d565b60008060008060008060c08789031215614dba57600080fd5b865195506020870151945060408701519350606087015192506080870151915060a087015190509295509295509295565b600082821015614dfd57614dfd614b8c565b500390565b7f4e487b7100000000000000000000000000000000000000000000000000000000600052603260045260246000fd5b60007fffffffffffffffffffffffffffffffffffffffffffffffffffffffffffffffff821415614e6357614e63614b8c565b5060010190565b60006101a08201905086825285602083015284604083015283606083015273ffffffffffffffffffffffffffffffffffffffff8084511660808401528060208501511660a0840152506040830151614eda60c084018273ffffffffffffffffffffffffffffffffffffffff169052565b50606083015160e08301526080830151610100818185015260a085015161012085015260c085015161014085015260e08501519150614f3261016085018373ffffffffffffffffffffffffffffffffffffffff169052565b84015160ff8116610180850152905061497d565b6000817fffffffffffffffffffffffffffffffffffffffffffffffffffffffffffffffff0483118215151615614f7e57614f7e614b8c565b500290565b7f4e487b7100000000000000000000000000000000000000000000000000000000600052601260045260246000fd5b60008219821115614fc557614fc5614b8c565b500190565b600082615000577f4e487b7100000000000000000000000000000000000000000000000000000000600052601260045260246000fd5b50049056fea26469706673582212201dcf9ae2f83b35e0cff55981a01399d1f82cbfd11d6e595bdcf63a7f2ce9f5dc64736f6c634300080a0033",
  "linkReferences": {
    "contracts/protocol/libraries/logic/BorrowLogic.sol": {
      "BorrowLogic": [
        {
          "length": 20,
          "start": 4935
        },
        {
          "length": 20,
          "start": 5489
        },
        {
          "length": 20,
          "start": 8295
        },
        {
          "length": 20,
          "start": 8458
        },
        {
          "length": 20,
          "start": 10377
        },
        {
          "length": 20,
          "start": 12737
        }
      ]
    },
    "contracts/protocol/libraries/logic/BridgeLogic.sol": {
      "BridgeLogic": [
        {
          "length": 20,
          "start": 7400
        },
        {
          "length": 20,
          "start": 12202
        }
      ]
    },
    "contracts/protocol/libraries/logic/EModeLogic.sol": {
      "EModeLogic": [
        {
          "length": 20,
          "start": 4454
        }
      ]
    },
    "contracts/protocol/libraries/logic/LiquidationLogic.sol": {
      "LiquidationLogic": [
        {
          "length": 20,
          "start": 2828
        }
      ]
    },
    "contracts/protocol/libraries/logic/PoolLogic.sol": {
      "PoolLogic": [
        {
          "length": 20,
          "start": 6639
        },
        {
          "length": 20,
          "start": 7758
        },
        {
          "length": 20,
          "start": 8411
        },
        {
          "length": 20,
          "start": 9340
        },
        {
          "length": 20,
          "start": 10502
        },
        {
          "length": 20,
          "start": 12353
        }
      ]
    },
    "contracts/protocol/libraries/logic/SupplyLogic.sol": {
      "SupplyLogic": [
        {
          "length": 20,
          "start": 3806
        },
        {
          "length": 20,
          "start": 5823
        },
        {
          "length": 20,
          "start": 6465
        },
        {
          "length": 20,
          "start": 6722
        },
        {
          "length": 20,
          "start": 11471
        }
      ]
    }
  },
  "deployedLinkReferences": {
    "contracts/protocol/libraries/logic/BorrowLogic.sol": {
      "BorrowLogic": [
        {
          "length": 20,
          "start": 4692
        },
        {
          "length": 20,
          "start": 5246
        },
        {
          "length": 20,
          "start": 8052
        },
        {
          "length": 20,
          "start": 8215
        },
        {
          "length": 20,
          "start": 10134
        },
        {
          "length": 20,
          "start": 12494
        }
      ]
    },
    "contracts/protocol/libraries/logic/BridgeLogic.sol": {
      "BridgeLogic": [
        {
          "length": 20,
          "start": 7157
        },
        {
          "length": 20,
          "start": 11959
        }
      ]
    },
    "contracts/protocol/libraries/logic/EModeLogic.sol": {
      "EModeLogic": [
        {
          "length": 20,
          "start": 4211
        }
      ]
    },
    "contracts/protocol/libraries/logic/LiquidationLogic.sol": {
      "LiquidationLogic": [
        {
          "length": 20,
          "start": 2585
        }
      ]
    },
    "contracts/protocol/libraries/logic/PoolLogic.sol": {
      "PoolLogic": [
        {
          "length": 20,
          "start": 6396
        },
        {
          "length": 20,
          "start": 7515
        },
        {
          "length": 20,
          "start": 8168
        },
        {
          "length": 20,
          "start": 9097
        },
        {
          "length": 20,
          "start": 10259
        },
        {
          "length": 20,
          "start": 12110
        }
      ]
    },
    "contracts/protocol/libraries/logic/SupplyLogic.sol": {
      "SupplyLogic": [
        {
          "length": 20,
          "start": 3563
        },
        {
          "length": 20,
          "start": 5580
        },
        {
          "length": 20,
          "start": 6222
        },
        {
          "length": 20,
          "start": 6479
        },
        {
          "length": 20,
          "start": 11228
        }
      ]
    }
  }
}